:020000040800F2
:1000000080070020ED640008990400089B040008A4
:100010009F040008A3040008A704000800000000D3
:10002000000000000000000000000000AB04000819
:10003000AD04000800000000AF040008B10400088F
:1000400007650008076500080765000807650008E0
:1000500007650008076500080765000807650008D0
:1000600007650008076500080765000807650008C0
:1000700007650008076500080765000807650008B0
:1000800007650008076500080765000807650008A0
:100090000765000807650008076500080765000890
:1000A0000765000807650008076500080765000880
:1000B0000765000807650008076500080765000870
:1000C0000765000807650008076500080765000860
:1000D00007650008636400080765000807650008F5
:1000E0000765000807650008076500080765000840
:1000F0000765000807650008076500080765000830
:100100000765000807650008CD600008076500085E
:10011000076500080765000807650008076500080F
:1001200007650008076500080765000807650008FF
:1001300000F002F800F03FF80AA090E8000C8244BA
:100140008344AAF10107DA4501D100F034F8AFF297
:10015000090EBAE80F0013F0010F18BFFB1A43F0A5
:10016000010318470498000024980000103A24BFA7
:1001700078C878C1FAD8520724BF30C830C144BF0C
:1001800004680C607047000000230024002500264E
:10019000103A28BF78C1FBD8520728BF30C148BFEA
:1001A0000B607047782907F0FF86002070471FB565
:1001B0001FBD10B510BD07F0B3FF1146FFF7F7FFE5
:1001C00000F008F807F0D1FF03B4FFF7F2FF03BC1B
:1001D00006F0EAF81CB50025002606F077F806F0D0
:1001E000DDF84FF4165006F0EDF800F051FA01F08A
:1001F000B6FE05F013FF4FF478407249088072A0F4
:1002000010210B46C822CDE9001032213C2005F018
:1002100079FE70A010210B46C822CDE900104621BE
:100220003C2005F06FFE6EA010210B46C822CDE9E0
:1002300000105A213C2005F065FE6DA010210B46F0
:10024000C822CDE900106E213C2005F05BFE6BA0BA
:1002500010210B46C822CDE9001082213C2005F078
:1002600051FE68A010210B46C822CDE9001096214E
:100270003C2005F047FE65A010210B46C822CDE9C1
:100280000010AA213C2005F03DFE99E005F0DBFFBF
:100290000446002C7DD010200323224682210090AA
:1002A000742005F086FD1020032300905948027841
:1002B0009621742005F07DFD622C35D017DC302CA2
:1002C00048D00BDC102C4BD003DC4CB3022C51D1AA
:1002D0002CE0182C40D0222C4CD12DE0382C41D0D1
:1002E000422C43D0522C43D05A2C43D13CE0A82C72
:1002F00026D00CDC902C25D004DC682C24D07A2C61
:1003000038D12BE0982C21D0A22C33D10AE0B02C8C
:100310001ED0C22C0ED0E02C10D0E22C2AD107E047
:100320003DA627E03EA625E03FA623E03FA621E02C
:1003300040A61FE042A61DE043A61BE044A619E02C
:1003400045A617E046A615E047A613E02AA611E049
:1003500046A60FE046A60DE046A60BE046A609E03D
:1003600046A607E046A605E046A603E046A601E04D
:1003700046A600BF00BF4FF6FF70BA23B422AA21E1
:100380000090742005F0F5FA10200346C822AA2137
:1003900000E005E0CDE90006742005F0B3FD02E0C1
:1003A0000A2005F0CFFF681CC5B2142D08D1002526
:1003B0003848006808B9012000E00020354908608D
:1003C00064E70000140000204D696E692053544D0D
:1003D0003332000052454D4F54452054455354008C
:1003E00041544F4D40414C49454E54454B0000004F
:1003F000323031342F332F31320000004B45595603
:10040000414C3A004B4559434E543A0053594D42E2
:100410004F4C3A00200000204552524F520000003D
:10042000504F57455200000055500000504C415964
:1004300000000000414C49454E54454B000000006F
:1004400052494748540000004C4546540000000003
:10045000564F4C2D00000000444F574E0000000046
:10046000564F4C2B0000000031000000330000000C
:1004700034000000350000003600000037000000A6
:1004800038000000390000003000000044454C45B1
:1004900054450000A0012142704700BFFEE700BFA5
:1004A000FEE700BFFEE700BFFEE7704770477047FA
:1004B000704700000CB50020019000906B48006868
:1004C00040F480306949086000BF6848006800F463
:1004D000003000900198401C0190009818B90198D4
:1004E000B0F5A06FF1D16148006810F4003F02D070
:1004F0000120009001E0002000900098012842D1E6
:100500005B48006840F010005949086008460068E0
:1005100020F0030008600846006840F00200086010
:10052000524840685149486008464068486008465B
:10053000406840F4806048600846406820F47C10C1
:1005400048600846406840F4E81048600846006883
:1005500040F08070086000BF4448006810F0007FE1
:10056000FAD04248406820F00300404948600846FD
:10057000406840F00200486000BF3C48406800F01E
:100580000C000828F9D10CBD10B5FFF793FF10BD82
:1005900010B53648006840F001003449086008464C
:1005A000406834490840314948600846006832498B
:1005B00008402E4908600846006820F48020086042
:1005C0000846406820F4FE0048604FF41F00886031
:1005D000FFF7DAFF4FF000602849086010BD10B542
:1005E000002100200022214B5B6803F00C0121B1A7
:1005F000042906D0082928D107E0214B214C23608B
:1006000027E01F4B1F4C236023E0184B5B6803F46B
:100610007010164B5B6803F48032022303EB9040AA
:1006200022B9194B4343174C23600DE00F4B5B6815
:1006300013F4003F04D0144B4343124C236003E0F7
:100640000F4B43430F4C236003E00D4B0D4C2360D5
:1006500000BF00BF054B5B68C3F303130B4CE15CA9
:10066000084B1B68CB40074C236010BD00100240B4
:10067000002002400000FFF8FFFFF6FE08ED00E05A
:1006800000127A000000002000093D000400002054
:1006900008B50121242006F05FFA4FF48070ADF810
:1006A000000010208DF8030003208DF80200694639
:1006B000094805F09BFF4FF48071074806F041F8A8
:1006C0000420ADF800006946044805F08FFF0421BE
:1006D000024806F036F808BD000801400014014049
:1006E00010B504464FF48071FE4806F02CF84FF424
:1006F0000071FC4806F027F82146FB4806F02AF86E
:100700008021F84806F01FF88021F64806F019F815
:100710004FF40071F34806F014F810BD10B504460C
:100720004FF48071EF4806F00CF84FF40071ED487B
:1007300006F009F82146EC4806F00CF88021E9485B
:1007400006F001F88021E74805F0FBFF4FF4007147
:10075000E44805F0F6FF10BD10B54FF08830E249CF
:100760000860091D08600020DF490C310860891508
:10077000DC4805F0E6FF4FF40071DA4805F0E3FFCE
:100780004021D84805F0DFFFD8488088A0F509410E
:10079000893902D1022005F0B2FDD34805F0C0FF2F
:1007A00004464021CF4805F0CCFF4FF40071CD48FE
:1007B00005F0C7FF4FF03330CB490860091D0860D2
:1007C0004FF6FF70C8490C310860204610BD70B567
:1007D00004460D462046FFF783FF4FF48071C14861
:1007E00005F0AFFF4FF40071BE4805F0ACFF29469D
:1007F000BD4805F0AFFF8021BA4805F0A4FF802175
:10080000B84805F09EFF4FF40071B64805F099FF17
:1008100070BD10B504462046FFF762FFFFF79CFF4E
:1008200010BD10B5B1490889FFF75AFF10BD10B5CA
:1008300004464FF48071AB4805F083FF4FF400711C
:10084000A84805F080FF2146A74805F083FF8021D6
:10085000A44805F078FF8021A24805F072FF4FF40C
:100860000071A04805F06DFF10BD30B5014601F0E4
:100870001F04C1F34513CA0AE50205EB43151544ED
:10088000A8B230BD70B504460D4698488088A0F5E2
:100890001341413905D095488088A0F5A64110390B
:1008A00075D192494889FFF71BFF4FF480718D483D
:1008B00005F047FF4FF400718A4805F044FF21120C
:1008C000894805F047FF8021864805F03CFF8021DC
:1008D000844805F036FF4FF40071824805F031FF7F
:1008E0004FF480717F4805F02CFF4FF400717D4874
:1008F00005F029FFE1B27C4805F02CFF8021794802
:1009000005F021FF8021774805F01BFF4FF40071AF
:10091000744805F016FF75498889FFF7E1FE4FF42A
:100920008071704805F00DFF4FF400716D4805F0BF
:100930000AFF29126C4805F00DFF8021694805F077
:1009400002FF8021674805F0FCFE4FF40071654806
:1009500005F0F7FE4FF48071624805F0F2FE4FF4A7
:100960000071604805F0EFFEE9B25F4805F0F2FE65
:1009700080215C4805F0E7FE80215A4805F0E1FE41
:100980004FF40071574805F0DCFE28E1FFE75748B7
:100990008088A0F5D04104397ED15448807901285F
:1009A00004D152480088401E001B84B24F49488938
:1009B000FFF796FE4FF480714A4805F0C2FE4FF4EF
:1009C0000071484805F0BFFE2112474805F0C2FEFD
:1009D0008021444805F0B7FE8021424805F0B1FE71
:1009E0004FF400713F4805F0ACFE4FF480713D4874
:1009F00005F0A7FE4FF400713A4805F0A4FEE1B2FD
:100A0000394805F0A7FE8021364805F09CFE80217C
:100A1000344805F096FE4FF40071324805F091FE1F
:100A200032498889FFF75CFE4FF480712D4805F04C
:100A300088FE4FF400712B4805F085FE29122A48E4
:100A400005F088FE8021274805F07DFE802125489D
:100A500005F077FE4FF40071224805F072FE4FF466
:100A60008071204805F06DFE4FF400711D4805F0BF
:100A70006AFEE9B21C4805F06DFE8021194805F0B8
:100A800062FE8021174805F05CFE4FF400711548A6
:100A900005F057FEA3E0FFE714488088A0F5AA41BF
:100AA00010397CD111494889FFF71AFE4FF4807143
:100AB0000C4805F046FE4FF400710A4805F043FE6D
:100AC0002112094805F046FE8021064805F03BFE4C
:100AD0008021044805F035FE4FF40071014805F00F
:100AE00030FE05E000100140000C014044000020F1
:100AF000F9494989491C88B2FFF7F2FD4FF480712A
:100B0000F64805F01EFE4FF40071F44805F01BFE98
:100B1000E1B2F34805F01EFE8021F04805F013FE17
:100B20008021EE4805F00DFE4FF40071EB4805F012
:100B300008FEE9498889FFF7D3FD4FF48071E74843
:100B400005F0FFFD4FF40071E44805F0FCFD2912AB
:100B5000E34805F0FFFD8021E04805F0F4FD802129
:100B6000DE4805F0EEFD4FF40071DC4805F0E9FDCC
:100B7000D9498989491C88B2FFF7B2FD4FF48071C9
:100B8000D64805F0DEFD4FF40071D44805F0DBFDDA
:100B9000E9B2D34805F0DEFD8021D04800E00BE04B
:100BA00005F0D1FD8021CD4805F0CBFD4FF400715B
:100BB000CA4805F0C6FD12E0C7488079012804D173
:100BC000C5480088401E001B84B2C349488921469D
:100BD000FFF7FDFDC04988892946FFF7F8FD70BD84
:100BE0002DE9F04105460E46BB480088A84203DDCA
:100BF000B9484088B04202DC0020BDE8F0813146AF
:100C00002846FFF73FFEB4488088A0F513414139DC
:100C10000BD0B1488088A0F5D041043905D0AE484A
:100C20008088A0F5A641103903D12E20FFF758FD8A
:100C30000DE0A9488088A0F5AA41103904D14FF4ED
:100C40003850FFF74DFD02E02220FFF749FD4FF03D
:100C50008830A3490860091D08604FF6FF70A0495D
:100C60000C31086089159D4805F06BFD4FF400714B
:100C70009A4805F068FD4021984805F064FD012080
:100C800005F03DFB4021954805F05BFD4021934870
:100C900005F059FD012005F032FB914805F040FDBB
:100CA000044640218D4805F04CFD8B488088A0F516
:100CB000134141390BD088488088A0F5A6411039EE
:100CC00005D085488088A0F5AA41103911D140216E
:100CD000824805F038FD824805F022FD804640211B
:100CE0007E4805F02EFDE7B24FF6FF7000EA0727B9
:100CF00011E079488088A0F5D04104390BD140211A
:100D0000764805F020FD4021744805F01AFD74482E
:100D100005F006FD04464FF40071704805F011FD22
:100D20004FF033306E490860091D08604FF6FF70C0
:100D30006B490C31086068488088A0F5134125395B
:100D400017D065488088A0F58A41353911D06248AE
:100D50008088A0F58A4131390BD05F488088A0F5A2
:100D60000941893905D05C488088A0F535410539AD
:100D700001D1204641E758488088A0F51341413908
:100D80000BD055488088A0F5A641103905D05248AF
:100D90008088A0F5AA41103907D1E012C002B9122B
:100DA00040EA411040EAE82027E72046FFF75DFDD2
:100DB00023E710B548488088A0F5134141390BD08E
:100DC00045488088A0F5D041043905D04248808844
:100DD000A0F5A641103903D12920FFF781FC0FE0CF
:100DE0003D488088A0F5AA41103904D14FF4245021
:100DF000FFF776FC04E040F273110720FFF7E7FCF1
:100E000010BD10B534488088A0F5134141390BD08E
:100E100031488088A0F5D041043905D02E4880881B
:100E2000A0F5A641103903D12820FFF759FC0EE0A8
:100E300029488088A0F5AA41103904D14FF42050E8
:100E4000FFF74EFC03E000210720FFF7C0FC10BDB8
:100E50002DE9F0410546002400271F48807901282C
:100E60001ED11D488088A0F5D041043918D0082D26
:100E700015D2DFE805F00406080A0C0E101206254C
:100E80000DE007250BE0042509E0052507E0012515
:100E900005E0002503E0032501E0022500BF00BFB7
:100EA0000D488088A0F51341413911D00A48808847
:100EB000A0F5D04104390BD007488088A0F5A641A1
:100EC000103905D004488088A0F5AA4110397DD199
:100ED000082D24D206E0000044000020001001404C
:100EE000000C0140DFE805F00406090C0F1215188C
:100EF00000BF14E044F0800411E044F040040EE030
:100F000044F0C0040BE044F0200408E044F0600426
:100F100005E044F0A00402E044F0E00400BF00BF9C
:100F2000FE488088A0F5AA41103902D14FF45857E5
:100F300000E03627F9488088A0F5A641103907D08F
:100F4000F6488088A0F5AA41103901D044F0080481
:100F5000F2488088A0F5D041043901D144F0020460
:100F600021463846FFF733FC14F0200F03D1EB483D
:100F7000807901280DD1E9480088E84949888842EC
:100F800014DAE64806884088E44908800846468026
:100F90000CE0E2480088E1494988884206DDDF48E4
:100FA00006884088DD49088008464680DB488088FE
:100FB000A0F5AA4110397CD1D8494889FFF790FBA8
:100FC0004FF48071D64805F0BCFB00E002E24FF41C
:100FD0000071D34805F0B7FB0021D24805F0BAFBF9
:100FE0008021CF4805F0AFFB8021CD4805F0A9FB5B
:100FF0004FF40071CA4805F0A4FBC8494989491C4F
:1010000088B2FFF76DFB4FF48071C54805F099FB7E
:101010004FF40071C24805F096FB0021C14805F06D
:1010200099FB8021BE4805F08EFB8021BC4805F06D
:1010300088FB4FF40071BA4805F083FBB749498932
:10104000891C88B2FFF74CFB4FF48071B44805F05F
:1010500078FB4FF40071B24805F075FBAF4800888B
:10106000401EC0F30F21AF4805F074FB8021AC484F
:1010700005F069FB8021AA4805F063FB4FF400717D
:10108000A74805F05EFBA5494989C91C88B2FFF74E
:1010900027FB4FF48071A24805F053FB4FF4007119
:1010A0009F4805F050FB9D480078401EC1B29D4806
:1010B00000E098E005F04EFB8021994805F043FBE5
:1010C0008021974805F03DFB4FF40071944805F0EE
:1010D00038FB92498889FFF703FB4FF480719048F1
:1010E00005F02FFB4FF400718D4805F02CFB00211B
:1010F0008C4805F02FFB8021894805F024FB8021D6
:10110000874805F01EFB4FF40071854805F019FB78
:1011100082498989491C88B2FFF7E2FA4FF480714D
:101120007F4805F00EFB4FF400717D4805F00BFB86
:1011300000217C4805F00EFB8021794805F003FB77
:101140008021774805F0FDFA4FF40071744805F0EE
:10115000F8FA72498989891C88B2FFF7C1FA4FF4FD
:1011600080716F4805F0EDFA4FF400716C4805F09E
:10117000EAFA6A484088401EC0F30F21694805F02A
:10118000E9FA8021664805F0DEFA8021644805F01E
:10119000D8FA4FF40071624805F0D3FA5F498989A3
:1011A000C91C88B2FFF79CFA4FF480715C4805F0C7
:1011B000C8FA4FF400715A4805F0C5FA57488078CC
:1011C000401EC1B2574805F0C5FA8021544805F0C9
:1011D000BAFA8021524805F0B4FA4FF40071504831
:1011E00005F0AFFA28E14D494889FFF779FA4FF445
:1011F00080714B4805F0A5FA4FF40071484805F09E
:10120000A2FA0021474805F0A5FA8021444805F0DC
:101210009AFA8021424805F094FA4FF40071404850
:1012200005F08FFA4FF480713D4805F08AFA4FF4CB
:1012300000713B4805F087FA00213A4805F08AFA28
:101240008021374805F07FFA8021354805F079FA8A
:101250004FF40071324805F074FA4FF48071304851
:1012600005F06FFA4FF400712D4805F06CFA2B4829
:101270000088401EC0F30F212A4805F06BFA802138
:10128000274805F060FA8021254805F05AFA4FF406
:101290000071234805F055FA4FF48071204805F09D
:1012A00050FA4FF400711E4805F04DFA1B480078C3
:1012B000401EC1B21B4805F04DFA8021184805F0C8
:1012C00042FA8021164805F03CFA4FF400711448A8
:1012D00005F037FA11498889FFF702FA4FF4807157
:1012E0000F4805F02EFA4FF400710D4805F02BFA67
:1012F00000210C4805F02EFA8021094805F023FA58
:101300008021074805F01DFA4FF40071044805F0EC
:1013100018FA4FF48071024806E0000044000020F3
:1013200000100140000C014005F00BFA4FF4007171
:10133000FE4805F008FA0021FD4805F00BFA80216F
:10134000FA4805F000FA8021F84805F0FAF94FF460
:101350000071F64805F0F5F94FF48071F34805F097
:10136000F0F94FF40071F14805F0EDF9F1484088CB
:10137000401EC0F30F21EE4805F0ECF98021EB4848
:1013800005F0E1F98021E94805F0DBF94FF400713F
:10139000E64805F0D6F94FF48071E44805F0D1F93C
:1013A0004FF40071E14805F0CEF9E2488078401E24
:1013B000C1B2DF4805F0CEF98021DC4805F0C3F961
:1013C0008021DA4805F0BDF94FF40071D74805F0E7
:1013D000B8F931E0082D1CD2DFE805F004070A0D4A
:1013E0000F12151844F0300413E044F0100410E01C
:1013F00044F020040DE000BF0BE044F0380408E0A6
:1014000044F0280405E044F0180402E044F0080425
:1014100000BF00BFC7488088A0F50941893904D1C1
:10142000112746F24000044302E0032744F48054AD
:1014300021463846FFF7CBF9BDE8F08170B5044688
:101440000D4629462046FFF71DFAFFF7EAF94FF44B
:101450008071B64805F075F94FF40071B34805F096
:1014600072F9B5480188B24805F074F98021AF4897
:1014700005F069F98021AD4805F063F94FF400717A
:10148000AA4805F05EF970BD70B504460D461646D3
:10149000A8488088A0F51341413905D0A548808827
:1014A000A0F5A641103975D1A2494889FFF718F96E
:1014B0004FF480719D4805F044F94FF400719B484A
:1014C00005F041F921129A4805F044F98021974826
:1014D00005F039F98021954805F033F94FF4007192
:1014E000924805F02EF94FF48071904805F029F9E3
:1014F0004FF400718D4805F026F9E1B28C4805F0F3
:1015000029F98021894805F01EF98021874805F0D6
:1015100018F94FF40071854805F013F98549888959
:10152000FFF7DEF84FF48071804805F00AF94FF4B8
:1015300000717E4805F007F929127D4805F00AF987
:1015400080217A4805F0FFF88021784805F0F9F805
:101550004FF40071754805F0F4F84FF4807173484A
:1015600005F0EFF84FF40071704805F0ECF8E9B2BF
:101570006F4805F0EFF880216C4805F0E4F8802111
:101580006A4805F0DEF84FF40071684805F0D9F8B4
:101590002BE1FFE767488088A0F5AA4110397DD18B
:1015A00064494889FFF79CF84FF480715F4805F063
:1015B000C8F84FF400715D4805F0C5F821125C4889
:1015C00005F0C8F88021594805F0BDF8802157483A
:1015D00005F0B7F84FF40071544805F0B2F85549DA
:1015E0004989491C88B2FFF77BF84FF480714F4856
:1015F00005F0A7F84FF400714C4805F0A4F8E1B2EB
:101600004B4805F0A7F88021484805F09CF8802158
:10161000464805F096F84FF40071444805F091F8FB
:1016200044498889FFF75CF84FF480713F4805F022
:1016300088F84FF400713D4805F085F829123C48C0
:1016400005F088F88021394805F07DF88021374879
:1016500005F077F84FF40071344805F072F8354919
:101660008989491C88B2FFF73BF84FF480712F48F5
:1016700005F067F84FF400712C4805F064F8E9B202
:101680002B4805F067F88021284805F05CF8802198
:10169000264805F056F84FF4007100E003E02348B7
:1016A00005F04FF8A1E023488088A0F5D041043927
:1016B0007ED120488079012804D11E480088401E30
:1016C000001B84B21B494889FFF70AF84FF4807168
:1016D000164805F036F84FF40071144805F033F859
:1016E0002112134805F036F88021104805F02BF838
:1016F00080210E4805F025F84FF400710B4805F0E5
:1017000020F84FF48071094805F01BF84FF4007180
:10171000064805F018F8E1B2054805F01BF88021ED
:10172000024805F010F88021004807E00010014051
:10173000000C0140440000201400002005F001F8D6
:101740004FF40071FD4804F0FCFFFD498889FEF765
:10175000C7FF4FF48071F94804F0F3FF4FF40071B4
:10176000F64804F0F0FF2912F64804F0F3FF802158
:10177000F24804F0E8FF8021F04804F0E2FF4FF463
:101780000071EE4804F0DDFF4FF48071EB4804F087
:10179000D8FF4FF40071E94804F0D5FFE9B2E948F9
:1017A00004F0D8FF8021E54804F0CDFF802100E05F
:1017B00008E0E24804F0C5FF4FF40071DF4804F090
:1017C000C0FF12E0DE488079012804D1DC4800889F
:1017D000401E001B84B2DA4948892146FEF7F7FF14
:1017E000D74988892946FEF7F2FF4FF48071D34824
:1017F00004F0A9FF4FF40071D04804F0A4FFD048D2
:101800000189D04804F0A6FF8021CC4804F09BFF5A
:101810008021CA4804F095FF4FF40071C74804F0D6
:1018200090FF4FF48071C54804F08BFF4FF40071B6
:10183000C24804F088FF3146C24804F08BFF802183
:10184000BE4804F080FF8021BC4804F07AFF4FF4CA
:101850000071BA4804F075FF70BD10B50446002C45
:1018600060D1B7498871F02008804FF4A07048809B
:1018700008468088A0F5134141390BD0B0488088D4
:10188000A0F5D041043905D0AD488088A0F5A64127
:1018900010391AD12C20AA4908812A2048812B20EE
:1018A000888108468088A0F5D041043905D0A44835
:1018B0008088A0F5A641103906D14FF4A070A04948
:1018C00008804FF4F070488095E09D488088A0F52E
:1018D0000941893907D12220994908814E20488140
:1018E0004F20888187E096488088A0F5AA4110396A
:1018F00010D14FF43050924908814FF4285048815C
:101900004FF42C5088814FF4F07008804FF44870E9
:10191000488070E022208A490881202048812120C7
:10192000888168E00120864988714FF4A0700880A2
:10193000F020488008468088A0F51341413905D041
:101940007F488088A0F5A641103907D12C207C491A
:1019500008812A2048812B20888139E078488088B6
:10196000A0F5D041043907D12C20754908812B20DE
:1019700048812A2088812BE071488088A0F50941A0
:10198000893907D122206E4908814F2048814E2095
:1019900088811DE06A488088A0F5AA41103910D1DD
:1019A0004FF43050664908814FF4285048814FF475
:1019B0002C5088814FF4487008804FF4F0704880B4
:1019C00006E022205E49088121204881202088816C
:1019D0005B488088A0F5D041043905D058488088FC
:1019E000A0F5A641103906D14FF4F0705449088093
:1019F0004FF4A07048800020FFF72AFA10BD2DE9AF
:101A0000FF5F04460D4616461F46A019401E86B2CB
:101A1000E819401E87B24A488088A0F51341413931
:101A20000BD047488088A0F5A641103905D044481E
:101A30008088A0F5D04104397ED141494889FEF71C
:101A40004FFE4FF480713D4804F07BFE4FF400716F
:101A50003A4804F078FE21123A4804F07BFE8021D7
:101A6000364804F070FE8021344804F06AFE4FF4DA
:101A70000071324804F065FE4FF480712F4804F085
:101A800060FE4FF400712D4804F05DFEE1B22D4878
:101A900004F060FE8021294804F055FE802127488B
:101AA00004F04FFE4FF40071244804F04AFE4FF456
:101AB0008071224804F045FE4FF400711F4804F085
:101AC00042FE31121F4804F045FE80211B4804F0FD
:101AD0003AFE8021194804F034FE4FF40071174893
:101AE00004F02FFE4FF48071144804F02AFE4FF4E6
:101AF0000071124804F027FEF1B2124804F02AFEE9
:101B000080210E4804F01FFE80210C4804F019FECD
:101B10004FF40071094804F014FE09498889FEF762
:101B2000DFFD4FF48071054804F00BFE4FF40071A7
:101B3000024804F008FE07E069E0000000100140E0
:101B400044000020000C01402912FE4804F002FE6F
:101B50008021FD4804F0F7FD8021FB4804F0F1FDF1
:101B60004FF40071F84804F0ECFD4FF48071F64832
:101B700004F0E7FD4FF40071F34804F0E4FDE9B22E
:101B8000F04804F0E7FD8021EF4804F0DCFD8021FF
:101B9000ED4804F0D6FD4FF40071EB4804F0D1FDA0
:101BA0004FF48071E84804F0CCFD4FF40071E64832
:101BB00004F0C9FD3912E34804F0CCFD8021E2486D
:101BC00004F0C1FD8021E04804F0BBFD4FF400713A
:101BD000DD4804F0B6FD4FF48071DB4804F0B1FD40
:101BE0004FF40071D84804F0AEFDF9B2D54804F0C6
:101BF000B1FD8021D44804F0A6FD8021D24804F034
:101C0000A0FD4FF40071D04804F09BFD53E1CF4894
:101C10008088A0F5AA4110397DD1CC494889FEF7CA
:101C20005FFD4FF48071C84804F08BFD4FF40071E4
:101C3000C54804F088FD2112C24804F08BFD8021C4
:101C4000C14804F080FD8021BF4804F07AFD4FF4C4
:101C50000071BD4804F075FDBC494989491C88B232
:101C6000FEF73EFD4FF48071B74804F06AFD4FF473
:101C70000071B54804F067FDE1B2B24804F06AFDB6
:101C80008021B14804F05FFD8021AF4804F059FD88
:101C90004FF40071AC4804F054FDAC494989891CEB
:101CA00088B2FEF71DFD4FF48071A74804F049FD8E
:101CB0004FF40071A44804F046FD3112A14804F02D
:101CC00049FD8021A04804F03EFD80219E4804F09B
:101CD00038FD4FF400719C4804F033FD9B4949895D
:101CE000C91C88B2FEF7FCFC4FF48071964804F0E2
:101CF00028FD4FF40071944804F025FDF1B291489D
:101D000004F028FD8021904804F01DFD80218E48BC
:101D100004F017FD00E087E04FF400718A4804F0FA
:101D200010FD8A498889FEF7DBFC4FF480718648F4
:101D300004F007FD4FF40071834804F004FD2912FC
:101D4000804804F007FD80217F4804F0FCFC8021DE
:101D50007D4804F0F6FC4FF400717B4804F0F1FC80
:101D60007A498989491C88B2FEF7BAFC4FF4807120
:101D7000754804F0E6FC4FF40071734804F0E3FC8E
:101D8000E9B2704804F0E6FC80216F4804F0DBFC07
:101D900080216D4804F0D5FC4FF400716A4804F0CE
:101DA000D0FC6A498989891C88B2FEF799FC4FF4F6
:101DB0008071654804F0C5FC4FF40071624804F07E
:101DC000C2FC39125F4804F0C5FC80215E4804F073
:101DD000BAFC80215C4804F0B4FC4FF400715A480E
:101DE00004F0AFFC59498989C91C88B2FEF778FC18
:101DF0004FF48071544804F0A4FC4FF40071524831
:101E000004F0A1FCF9B24F4804F0A4FC80214E4834
:101E100004F099FC80214C4804F093FC4FF40071CD
:101E2000494804F08EFC46E04848807901280ED1EC
:101E3000A846B94645480088801B401E80B20090E5
:101E400042480088001B401E1FFA80FB03E0A046AA
:101E5000B1460095BB463D488088A0F509418939C7
:101E60000DD14FF0440A4420039048EA09201FFA9C
:101E700080F8C146452002904620019007E04FF0CF
:101E8000500A512003905220029053200190414665
:101E90005046FEF79CFC49460398FEF798FC0099D3
:101EA0000298FEF794FC59460198FEF790FC2946EB
:101EB0002046FEF7E7FCBDE8FF9F70B5044600260C
:101EC000224805884088454320488088A0F5D041B5
:101ED000043916D11D488079012812D100201B49F0
:101EE00088712A2048812B20888100210846FEF72E
:101EF000C9FC0120154988712B2048812A2088813E
:101F000003E000210846FEF7BDFCFEF78AFC002630
:101F100022E04FF480710C4804F013FC4FF4007180
:101F2000094804F010FC2146064804F013FC802107
:101F3000054804F008FC8021034804F002FC4FF43B
:101F4000007105E0000C0140001001404400002039
:101F5000FE4804F0F6FB761CAE42DAD370BD08B53D
:101F60000121192004F0F8FD0121F94804F00DFCCD
:101F70004FF4F860ADF8000010208DF80300032046
:101F80008DF802006946F14804F030FB4FF4F86127
:101F9000EE4804F0D6FB4FF6FF70ADF8000069463E
:101FA000EC4804F023FB4FF6FF71EA4804F0C9FB4C
:101FB000322004F0C7F901210020FEF708FC32208E
:101FC00004F0C0F90020FEF724FCE34988800846AD
:101FD0008088FF280ADB08468088A0F57F41FF390A
:101FE00004D0DD488088B0F5134F7CD1D320FEF7B4
:101FF00077FBFEF7B1FBFEF7AFFBFEF7ADFBD64973
:102000008880084680884FF6FF7101EA0020D24997
:102010008880FEF7A1FBD04989880843CE49888093
:1020200008468088A0F5134141396CD0BF20FEF7E7
:1020300057FBFEF791FBFEF78FFBFEF78DFBFEF7DC
:102040008BFBC5498880084680884FF6FF7101EAFE
:102050000020C1498880FEF77FFBBF49898808437B
:10206000BD49888008468088A0F5D04104394AD00F
:10207000D420FEF735FBFEF76FFBFEF76DFBFEF796
:102080006BFBB5498880084680884FF6FF7101EAEE
:102090000020B1498880FEF75FFBAF49898808437B
:1020A000AD49888008468088A0F5A64110392AD01D
:1020B0004FF45A40FEF714FBFEF74EFB4FF45B4023
:1020C000FEF70EFBFEF748FBA34988800846808890
:1020D0004FF6FF7101EA00209F4988804FF45C4071
:1020E000FEF7FEFA00E00EE0FEF736FB9A4989881B
:1020F00008439949888008468088B0F5004F02D18E
:1021000045F2105088809448818894A005F00CFF17
:1021100091488088A0F5134141397CD1CF20FEF74A
:10212000DFFA0020FEF7FAFAC120FEF7F7FA3020B6
:10213000FEF7F4FAED20FEF7D3FA6420FEF7EEFA8C
:102140000320FEF7EBFA1220FEF7E8FA8120FEF7F3
:10215000E5FAE820FEF7C4FA8520FEF7DFFA102042
:10216000FEF7DCFA7A20FEF7D9FACB20FEF7B8FAB0
:102170003920FEF7D3FA2C20FEF7D0FA0020FEF724
:10218000CDFA3420FEF7CAFA0220FEF7C7FAF7208C
:10219000FEF7A6FA2020FEF7C1FAEA20FEF7A0FA21
:1021A0000020FEF7BBFA0020FEF7B8FAC020FEF7C9
:1021B00097FA1B20FEF7B2FAC120FEF791FA012030
:1021C000FEF7ACFAC520FEF78BFA3020FEF7A6FA30
:1021D0003020FEF7A3FAC720FEF782FAB720FEF7F9
:1021E0009DFA3620FEF77CFA4820FEF797FA3A204F
:1021F000FEF776FA5520FEF791FAB120FEF770FA55
:102200000020FEF78BFA1A20FEF788FAB620FEF7B8
:1022100067FA0A2000E0A9E0FEF780FAA220FEF7A4
:102220007DFAF220FEF75CFA0020FEF777FA26200E
:10223000FEF756FA0120FEF771FAE020FEF750FA99
:102240000F20FEF76BFA2A20FEF768FA2820FEF727
:1022500065FA0820FEF762FA0E20FEF75FFA082002
:10226000FEF75CFA5420FEF759FAA920FEF756FA59
:102270004320FEF753FA0A20FEF750FA0F20FEF72C
:102280004DFA0020FEF74AFA0020FEF747FA002038
:10229000FEF744FA0020FEF741FAE120FEF720FAAB
:1022A0000020FEF73BFA1520FEF738FA1720FEF75C
:1022B00035FA0720FEF732FA1120FEF72FFA062032
:1022C000FEF72CFA2B20FEF729FA5620FEF726FA05
:1022D0003C20FEF723FA0520FEF720FA1020FEF737
:1022E0001DFA0F20FEF71AFA3F20FEF717FA3F20DB
:1022F000FEF714FA0F20FEF711FA2B20FEF7F0F983
:102300000020FEF70BFA0020FEF708FA0120FEF786
:1023100005FA3F20FEF702FA2A20FEF7E1F9002035
:10232000FEF7FCF90020FEF7F9F90020FEF7F6F9B8
:10233000EF20FEF7F3F91120FEF7D2F9782004F030
:1023400001F82920FEF7CCF903F008BB001001408A
:1023500000023000000C014044000020204C4344A7
:102360002049443A25780D0A00000000FE48808884
:10237000A0F5D04104397CD11120FEF7B1F9142029
:1023800003F0E0FFD020FEF7ABF90720FEF7C6F917
:102390004220FEF7C3F91D20FEF7C0F9D120FEF759
:1023A0009FF90020FEF7BAF91A20FEF7B7F90920C5
:1023B000FEF7B4F9D220FEF793F90120FEF7AEF94B
:1023C0002220FEF7ABF9C020FEF78AF91020FEF7B5
:1023D000A5F93B20FEF7A2F90020FEF79FF90220A5
:1023E000FEF79CF91120FEF799F9C520FEF778F960
:1023F0000320FEF793F9C820FEF772F90020FEF7DC
:102400008DF92520FEF78AF92120FEF787F90520AE
:10241000FEF784F90020FEF781F90A20FEF77EF925
:102420006520FEF77BF92520FEF778F97720FEF787
:1024300075F95020FEF772F90F20FEF76FF90020B2
:10244000FEF76CF9F820FEF74BF90120FEF766F96C
:10245000FE20FEF745F90020FEF760F90220FEF7A6
:102460005DF92020FEF73CF93620FEF739F9082007
:1024700000E02CE0FEF752F93A20FEF731F9552042
:10248000FEF74CF92B20FEF72BF90020FEF746F95A
:102490000020FEF743F90120FEF740F93F20FEF748
:1024A0003DF92A20FEF71CF90020FEF737F900203D
:1024B000FEF734F90120FEF731F9DF20FEF72EF99F
:1024C000782003F03FFF2920FEF70AF93CE7A648F1
:1024D0008088A0F5A641103940F07C87ED20FEF7FA
:1024E000FFF80120FEF71AF9FE20FEF717F9EE209B
:1024F000FEF7F6F8DE20FEF711F92120FEF70EF9BF
:10250000F120FEF7EDF80120FEF708F9DF20FEF7D5
:10251000E7F81020FEF702F9C420FEF7E1F88F205B
:10252000FEF7FCF8C620FEF7DBF80020FEF7F6F811
:10253000E220FEF7F3F8E220FEF7F0F8E220FEF7E3
:10254000EDF8BF20FEF7CCF8AA20FEF7E7F8B020A0
:10255000FEF7C6F80D20FEF7E1F80020FEF7DEF8E2
:102560000D20FEF7DBF80020FEF7D8F81120FEF76B
:10257000D5F80020FEF7D2F81920FEF7CFF800209A
:10258000FEF7CCF82120FEF7C9F80020FEF7C6F8C8
:102590002D20FEF7C3F80020FEF7C0F83D20FEF71F
:1025A000BDF80020FEF7BAF85D20FEF7B7F800206E
:1025B000FEF7B4F85D20FEF7B1F80020FEF7AEF8A4
:1025C000B120FEF78DF88020FEF7A8F80020FEF776
:1025D000A5F88B20FEF7A2F80020FEF79FF89620C2
:1025E000FEF79CF80020FEF799F8B220FEF778F885
:1025F0000020FEF793F80020FEF790F80220FEF787
:102600008DF80020FEF78AF80320FEF787F80020F7
:10261000FEF784F8B320FEF763F80020FEF77EF89B
:102620000020FEF77BF80020FEF778F80020FEF788
:1026300075F80020FEF772F80020FEF76FF8002012
:10264000FEF76CF80020FEF769F80020FEF766F848
:102650000020FEF763F80020FEF760F80020FEF788
:102660005DF80020FEF75AF80020FEF757F800202A
:10267000FEF754F80020FEF751F80020FEF74EF860
:102680000020FEF74BF80020FEF748F80020FEF788
:1026900045F80020FEF742F80020FEF73FF8002042
:1026A000FEF73CF80020FEF739F8B420FEF718F8E2
:1026B0008B20FEF733F80020FEF730F89620FEF767
:1026C0002DF80020FEF72AF8A120FEF727F80020B9
:1026D000FEF724F8B520FEF703F80220FEF71EF8F7
:1026E0000020FEF71BF80320FEF718F80020FEF785
:1026F00015F80420FEF712F80020FEF70FF8B620B8
:10270000FDF7EEFF0020FEF709F80020FEF706F8BF
:10271000B720FDF7E5FF0020FEF700F80020FDF7E9
:10272000FDFF3F20FDF7FAFF0020FDF7F7FF5E20D9
:10273000FDF7F4FF0020FDF7F1FF6420FDF7EEFF49
:102740000020FDF7EBFF8C20FDF7E8FF0020FDF7F0
:10275000E5FFAC20FDF7E2FF0020FDF7DFFFDC2006
:10276000FDF7DCFF002001E044000020FDF7D6FF6C
:102770007020FDF7D3FF0020FDF7D0FF9020FDF77C
:10278000CDFF0020FDF7CAFFEB20FDF7C7FF0020BB
:10279000FDF7C4FFDC20FDF7C1FF0020FDF7BEFF01
:1027A000B820FDF79DFF0020FDF7B8FF0020FDF7E2
:1027B000B5FF0020FDF7B2FF0020FDF7AFFF0020BE
:1027C000FDF7ACFF0020FDF7A9FF0020FDF7A6FFF5
:1027D0000020FDF7A3FFBA20FDF782FF2420FDF7BC
:1027E0009DFF0020FDF79AFF0020FDF797FF0020D6
:1027F000FDF794FFC120FDF773FF2020FDF78EFF4A
:102800000020FDF78BFF5420FDF788FF0020FDF727
:1028100085FFFF20FDF782FF0020FDF77FFFC2202C
:10282000FDF75EFF0A20FDF779FF0020FDF776FF38
:102830000420FDF773FF0020FDF770FFC320FDF7B4
:102840004FFF3C20FDF76AFF0020FDF767FF3A20AD
:10285000FDF764FF0020FDF761FF3920FDF75EFF03
:102860000020FDF75BFF3720FDF758FF0020FDF744
:1028700055FF3C20FDF752FF0020FDF74FFF3620AB
:10288000FDF74CFF0020FDF749FF3220FDF746FF22
:102890000020FDF743FF2F20FDF740FF0020FDF74C
:1028A0003DFF2C20FDF73AFF0020FDF737FF2920E0
:1028B000FDF734FF0020FDF731FF2620FDF72EFF46
:1028C0000020FDF72BFF2420FDF728FF0020FDF757
:1028D00025FF2420FDF722FF0020FDF71FFF232006
:1028E000FDF71CFF0020FDF719FF3C20FDF716FF48
:1028F0000020FDF713FF3620FDF710FF0020FDF745
:102900000DFF3220FDF70AFF0020FDF707FF2F2003
:10291000FDF704FF0020FDF701FF2C20FDF7FEFE70
:102920000020FDF7FBFE2920FDF7F8FE0020FDF753
:10293000F5FE2620FDF7F2FE0020FDF7EFFE242035
:10294000FDF7ECFE0020FDF7E9FE2420FDF7E6FE92
:102950000020FDF7E3FE2320FDF7E0FE0020FDF759
:10296000DDFEC420FDF7BCFE6220FDF7D7FE00208F
:10297000FDF7D4FE0520FDF7D1FE0020FDF7CEFEC9
:102980008420FDF7CBFE0020FDF7C8FEF020FDF708
:10299000C5FE0020FDF7C2FE1820FDF7BFFE002097
:1029A000FDF7BCFEA420FDF7B9FE0020FDF7B6FE42
:1029B0001820FDF7B3FE0020FDF7B0FE5020FDF714
:1029C000ADFE0020FDF7AAFE0C20FDF7A7FE0020BB
:1029D000FDF7A4FE1720FDF7A1FE0020FDF79EFEE7
:1029E0009520FDF79BFE0020FDF798FEF320FDF7F4
:1029F00095FE0020FDF792FEE620FDF78FFE0020F9
:102A0000FDF78CFEC520FDF76BFE3220FDF786FE3C
:102A10000020FDF783FE4420FDF780FE0020FDF737
:102A20007DFE6520FDF77AFE0020FDF777FE76201B
:102A3000FDF774FE0020FDF771FE8820FDF76EFEA5
:102A40000020FDF76BFEC620FDF74AFE2020FDF7B3
:102A500065FE0020FDF762FE1720FDF75FFE0020F7
:102A6000FDF75CFE0120FDF759FE0020FDF756FE44
:102A7000C720FDF735FE0020FDF750FE0020FDF7D2
:102A80004DFE0020FDF74AFE0020FDF747FEC8205E
:102A9000FDF726FE0020FDF741FE0020FDF73EFE7B
:102AA0000020FDF73BFE0020FDF738FEC920FDF7B2
:102AB00017FE0020FDF732FE0020FDF72FFE00205C
:102AC000FDF72CFE0020FDF729FE0020FDF726FE75
:102AD0000020FDF723FE0020FDF720FE0020FDF77B
:102AE0001DFE0020FDF71AFE0020FDF717FE002056
:102AF000FDF714FE0020FDF711FE0020FDF70EFE8D
:102B00000020FDF70BFE0020FDF708FE0020FDF77A
:102B100005FEE020FDF7E4FD1620FDF7FFFD002097
:102B2000FDF7FCFD1C20FDF7F9FD0020FDF7F6FD8B
:102B30002120FDF7F3FD0020FDF7F0FD3620FDF725
:102B4000EDFD0020FDF7EAFD4620FDF7E7FD002042
:102B5000FDF7E4FD5220FDF7E1FD0020FDF7DEFD6D
:102B60006420FDF7DBFD0020FDF7D8FD7A20FDF79E
:102B7000D5FD0020FDF7D2FD8B20FDF7CFFD002015
:102B8000FDF7CCFD9920FDF7C9FD0020FDF7C6FD3E
:102B9000A820FDF7C3FD0020FDF7C0FDB920FDF71B
:102BA000BDFD0020FDF7BAFDC420FDF7B7FD0020F4
:102BB000FDF7B4FDCA20FDF7B1FD0020FDF7AEFD25
:102BC000D220FDF7ABFD0020FDF7A8FDD920FDF7D1
:102BD000A5FD0020FDF7A2FDE020FDF79FFD0020F0
:102BE000FDF79CFDF320FDF799FD0020FDF796FD14
:102BF000E120FDF775FD1620FDF790FD0020FDF7A3
:102C00008DFD1C20FDF78AFD0020FDF787FD2220A9
:102C1000FDF784FD0020FDF781FD3620FDF77EFDE8
:102C20000020FDF77BFD4520FDF778FD0020FDF736
:102C300075FD5220FDF772FD0020FDF76FFD642049
:102C4000FDF76CFD0020FDF769FD7A20FDF766FDBC
:102C50000020FDF763FD8B20FDF760FD0020FDF7F0
:102C60005DFD9920FDF75AFD0020FDF757FDA820D6
:102C7000FDF754FD0020FDF751FDB920FDF74EFD95
:102C80000020FDF74BFDC420FDF748FD0020FDF7B7
:102C900045FDCA20FDF742FD0020FDF73FFDD22093
:102CA000FDF73CFD0020FDF739FDD820FDF736FD8E
:102CB0000020FDF733FDE020FDF730FD0020FDF79B
:102CC0002DFDF320FDF72AFD0020FDF727FDE22072
:102CD000FDF706FD0520FDF721FD0020FDF71EFD97
:102CE0000B20FDF71BFD0020FDF718FD1B20FDF755
:102CF00015FD0020FDF712FD3420FDF70FFD00202B
:102D0000FDF70CFD4420FDF709FD0020FDF706FD51
:102D10004F20FDF703FD0020FDF700FD6120FDF7CA
:102D2000FDFC0020FDF7FAFC7920FDF7F7FC002000
:102D3000FDF7F4FC8820FDF7F1FC0020FDF7EEFC28
:102D40009720FDF7EBFC0020FDF7E8FCA620FDF73F
:102D5000E5FC0020FDF7E2FCB720FDF7DFFC0020DA
:102D6000FDF7DCFCC220FDF7D9FC0020FDF7D6FC06
:102D7000C720FDF7D3FC0020FDF7D0FCD120FDF7E4
:102D8000CDFC0020FDF7CAFCD620FDF7C7FC0020D3
:102D9000FDF7C4FCDD20FDF7C1FC0020FDF7BEFC03
:102DA000F320FDF7BBFC0020FDF7B8FCE320FDF7A6
:102DB00097FC0520FDF7B2FC0020FDF7AFFC0A20D0
:102DC000FDF7ACFC0020FDF7A9FC1C20FDF7A6FCDC
:102DD0000020FDF7A3FC3320FDF7A0FC0020FDF749
:102DE0009DFC4420FDF79AFC0020FDF797FC502045
:102DF000FDF794FC0020FDF791FC6220FDF78EFCAE
:102E00000020FDF78BFC7820FDF788FC0020FDF703
:102E100085FC8820FDF782FC0020FDF77FFC9720D1
:102E2000FDF77CFC0020FDF779FCA620FDF776FC81
:102E30000020FDF773FCB720FDF770FC0020FDF7C4
:102E40006DFCC220FDF76AFC0020FDF767FCC7207F
:102E5000FDF764FC0020FDF761FCD120FDF75EFC6E
:102E60000020FDF75BFCD520FDF758FC0020FDF7A6
:102E700055FCDD20FDF752FC0020FDF74FFCF32050
:102E8000FDF74CFC0020FDF749FCE420FDF728FC91
:102E90000120FDF743FC0020FDF740FC0120FDF779
:102EA0003DFC0020FDF73AFC0220FDF737FC002036
:102EB000FDF734FC2A20FDF731FC0020FDF72EFC45
:102EC0003C20FDF72BFC0020FDF728FC4B20FDF7F4
:102ED00025FC0020FDF722FC5D20FDF71FFC0020F3
:102EE000FDF71CFC7420FDF719FC0020FDF716FC13
:102EF0008420FDF713FC0020FDF710FC9320FDF764
:102F00000DFC0020FDF70AFCA220FDF707FC0020C5
:102F1000FDF704FCB320FDF701FC0020FDF7FEFBEC
:102F2000BE20FDF7FBFB0020FDF7F8FBC420FDF7FA
:102F3000F5FB0020FDF7F2FBCD20FDF7EFFB0020B5
:102F4000FDF7ECFBD320FDF7E9FB0020FDF7E6FBE6
:102F5000DD20FDF7E3FB0020FDF7E0FBF320FDF7AC
:102F6000DDFB0020FDF7DAFBE520FDF7B9FB0020D3
:102F7000FDF7D4FB0020FDF7D1FB0020FDF7CEFBD1
:102F80000020FDF7CBFB0220FDF7C8FB0020FDF77A
:102F9000C5FB2920FDF7C2FB0020FDF7BFFB3C204D
:102FA000FDF7BCFB0020FDF7B9FB4B20FDF7B6FB9E
:102FB0000020FDF7B3FB5D20FDF7B0FB0020FDF71F
:102FC000ADFB7420FDF7AAFB0020FDF7A7FB8420D2
:102FD000FDF7A4FB0020FDF7A1FB9320FDF79EFB6E
:102FE0000020FDF79BFBA220FDF798FB0020FDF7DA
:102FF00095FBB320FDF792FB0020FDF78FFBBE2071
:10300000FDF78CFB0020FDF789FBC420FDF786FB54
:103010000020FDF783FBCD20FDF780FB0020FDF7AE
:103020007DFBD320FDF77AFB0020FDF777FBDC204A
:10303000FDF774FB0020FDF771FBF320FDF76EFB3D
:103040000020FDF76BFBE620FDF74AFB1120FDF7A2
:1030500065FB0020FDF762FB3420FDF75FFB0020DD
:10306000FDF75CFB5620FDF759FB0020FDF756FBF2
:103070007620FDF753FB0020FDF750FB7720FDF78E
:103080004DFB0020FDF74AFB6620FDF747FB0020C3
:10309000FDF744FB8820FDF741FB0020FDF73EFBD8
:1030A0009920FDF73BFB0020FDF738FBBB20FDF727
:1030B00035FB0020FDF732FB9920FDF72FFB0020A8
:1030C000FDF72CFB6620FDF729FB0020FDF726FB12
:1030D0005520FDF723FB0020FDF720FB5520FDF7D1
:1030E0001DFB0020FDF71AFB4520FDF717FB002014
:1030F000FDF714FB4320FDF711FB0020FDF70EFB4D
:103100004420FDF70BFB0020FDF708FBE720FDF74F
:10311000E7FA3220FDF702FB0020FDF7FFFA552009
:10312000FDF7FCFA0020FDF7F9FA7620FDF7F6FA34
:103130000020FDF7F3FA6620FDF7F0FA0020FDF716
:10314000EDFA6720FDF7EAFA0020FDF7E7FA6720BD
:10315000FDF7E4FA0020FDF7E1FA8720FDF7DEFA3B
:103160000020FDF7DBFA9920FDF7D8FA0020FDF7E3
:10317000D5FABB20FDF7D2FA0020FDF7CFFA99204F
:10318000FDF7CCFA0020FDF7C9FA7720FDF7C6FA63
:103190000020FDF7C3FA4420FDF7C0FA0020FDF738
:1031A000BDFA5620FDF7BAFA0020FDF7B7FA232042
:1031B000FDF7B4FA0020FDF7B1FA3320FDF7AEFABF
:1031C0000020FDF7ABFA4520FDF7A8FA0020FDF737
:1031D000A5FAE820FDF784FA0020FDF79FFA002009
:1031E000FDF79CFA9920FDF799FA0020FDF796FA71
:1031F0008720FDF793FA0020FDF790FA8820FDF76D
:103200008DFA0020FDF78AFA7720FDF787FA002073
:10321000FDF784FA6620FDF781FA0020FDF77EFABB
:103220008820FDF77BFA0020FDF778FAAA20FDF749
:1032300075FA0020FDF772FABB20FDF76FFA002047
:10324000FDF76CFA9920FDF769FA0020FDF766FAA0
:103250006620FDF763FA0020FDF760FA5520FDF7C0
:103260005DFA0020FDF75AFA5520FDF757FA0020C5
:10327000FDF754FA4420FDF751FA0020FDF74EFA0D
:103280004420FDF74BFA0020FDF748FA5520FDF7E2
:1032900045FA0020FDF742FAE920FDF721FAAA20BD
:1032A000FDF73CFA0020FDF739FA0020FDF736FA69
:1032B0000020FDF733FA0020FDF712FAAA20FDF7EF
:1032C0002DFACF20FDF70CFA0020FDF727FA002099
:1032D000FDF724FA0020FDF721FA0020FDF71EFA81
:1032E0000020FDF71BFA0020FDF718FA0020FDF77B
:1032F00015FA0020FDF712FA0020FDF70FFA002062
:10330000FDF70CFA0020FDF709FA0020FDF706FA98
:103310000020FDF703FA0020FDF700FA0020FDF77A
:10332000FDF90020FDF7FAF90020FDF7F7F9F0208C
:10333000FDF7D6F90020FDF7F1F95020FDF7EEF981
:103340000020FDF7EBF90020FDF7E8F90020FDF77C
:10335000E5F9F320FDF7C4F90020FDF7DFF9F920C6
:10336000FDF7BEF90620FDF7D9F91020FDF7D6F9D3
:103370002920FDF7D3F90020FDF7D0F93A20FDF719
:10338000AFF95520FDF7CAF91120FDF7A9F964201E
:1033900002F0D8FF2920FDF7A3F93520FDF7A0F9A9
:1033A0000020FDF7BBF95120FDF79AF9FF20FDF74A
:1033B000B5F95320FDF794F92C20FDF7AFF955200E
:1033C000FDF78EF98220FDF7A9F92C20FDF788F989
:1033D00002F0C4BAFE488088A0F5AA4110397DD118
:1033E00055214FF47040FDF7F2F9AA214FF2010088
:1033F000FDF7EDF952214FF20200FDF7E8F908213F
:103400004FF20300FDF7E3F901214FF20400FDF74D
:10341000DEF90D214FF43040FDF7D9F90D214BF2C3
:103420000100FDF7D4F90D214BF20200FDF7CFF9B1
:1034300034214FF43640FDF7CAF934214BF20160D4
:10344000FDF7C5F934214BF20260FDF7C0F90D21FB
:103450004FF43140FDF7BBF90D214BF20110FDF7A0
:10346000B6F90D214BF20210FDF7B1F934214FF4FA
:103470003740FDF7ACF934214BF20170FDF7A7F9A5
:1034800034214BF20270FDF7A2F900214FF43240D3
:10349000FDF79DF900214BF20120FDF798F900217D
:1034A0004BF20220FDF793F924214FF43840FDF749
:1034B0008EF924214BF60100FDF789F924214BF602
:1034C0000200FDF784F901214FF43F40FDF77FF939
:1034D0000F214FF43340FDF77AF900E0FDE30F21AF
:1034E0004BF20130FDF773F90F214BF20230FDF77B
:1034F0006EF934214FF43940FDF769F934214BF668
:103500000110FDF764F934214BF60210FDF75FF965
:1035100008214FF43540FDF75AF908214BF20150CC
:10352000FDF755F908214BF20250FDF750F9032140
:103530004FF44240FDF74BF924214FF43A40FDF798
:1035400046F924214BF60120FDF741F924214BF6E1
:103550000220FDF73CF900214FF43C40FDF737F91C
:1035600078214BF60140FDF732F900214BF602407D
:10357000FDF72DF900214FF43D40FDF728F97821A2
:103580004BF60150FDF723F900214BF60250FDF7F1
:103590001EF900214FF43E40FDF719F964214BF666
:1035A0000160FDF714F900214FF45140FDF70FF9C8
:1035B00033214DF20110FDF70AF900214DF20210FE
:1035C000FDF705F934214DF20310FDF700F9002154
:1035D0004DF20410FDF7FBF83A214DF20510FDF70E
:1035E000F6F800214DF20610FDF7F1F84A214DF2F0
:1035F0000710FDF7ECF800214DF20810FDF7E7F891
:103600005C214DF20910FDF7E2F800214DF20A109D
:10361000FDF7DDF881214DF20B10FDF7D8F8002100
:103620004DF20C10FDF7D3F8A6214DF20D10FDF769
:10363000CEF800214DF20E10FDF7C9F8E5214DF24C
:103640000F10FDF7C4F801214DF21010FDF7BFF87F
:1036500013214DF21110FDF7BAF801214DF21210AD
:10366000FDF7B5F854214DF21310FDF7B0F8012124
:103670004DF21410FDF7ABF882214DF21510FDF755
:10368000A6F801214DF21610FDF7A1F8CA214DF25E
:103690001710FDF79CF802214DF21810FDF797F86E
:1036A00000214DF21910FDF792F802214DF21A1087
:1036B000FDF78DF801214DF21B10FDF788F802216E
:1036C0004DF21C10FDF783F834214DF21D10FDF76B
:1036D0007EF802214DF21E10FDF779F867214DF2B8
:1036E0001F10FDF774F802214DF22010FDF76FF85E
:1036F00084214DF22110FDF76AF802214DF22210CB
:10370000FDF765F8A4214DF22310FDF760F80221C2
:103710004DF22410FDF75BF8B7214DF22510FDF7AF
:1037200056F802214DF22610FDF751F8CF214DF247
:103730002710FDF74CF802214DF22810FDF747F84D
:10374000DE214DF22910FDF742F802214DF22A1038
:10375000FDF73DF8F2214DF22B10FDF738F802216C
:103760004DF22C10FDF733F8FE214DF22D10FDF730
:103770002EF803214DF22E10FDF729F810214DF2FD
:103780002F10FDF724F803214DF23010FDF71FF83C
:1037900033214DF23110FDF71AF803214DF23210AA
:1037A000FDF715F86D214DF23310FDF710F80021EB
:1037B0004FF45240FDF70BF833214DF20120FDF795
:1037C00006F800214DF20220FDF701F8342101E056
:1037D000440000204DF20320FCF7F9FF00214DF2D8
:1037E0000420FCF7F4FF3A214DF20520FCF7EFFF2F
:1037F00000214DF20620FCF7EAFF4A214DF2072096
:10380000FCF7E5FF00214DF20820FCF7E0FF5C210A
:103810004DF20920FCF7DBFF00214DF20A20FCF7F6
:10382000D6FF81214DF20B20FCF7D1FF00214DF294
:103830000C20FCF7CCFFA6214DF20D20FCF7C7FFB2
:1038400000214DF20E20FCF7C2FFE5214DF20F20C2
:10385000FCF7BDFF01214DF21020FCF7B8FF13214A
:103860004DF21120FCF7B3FF01214DF21220FCF7BD
:10387000AEFF54214DF21320FCF7A9FF01214DF2B8
:103880001420FCF7A4FF82214DF21520FCF79FFFC6
:1038900001214DF21620FCF79AFFCA214DF21720A4
:1038A000FCF795FF02214DF21820FCF790FF002154
:1038B0004DF21920FCF78BFF02214DF21A20FCF784
:1038C00086FF01214DF21B20FCF781FF02214DF202
:1038D0001C20FCF77CFF34214DF21D20FCF777FF04
:1038E00002214DF21E20FCF772FF67214DF21F20CE
:1038F000FCF76DFF02214DF22020FCF768FF8421C8
:103900004DF22120FCF763FF02214DF22220FCF74B
:103910005EFFA4214DF22320FCF759FF02214DF256
:103920002420FCF754FFB7214DF22520FCF74FFF70
:1039300002214DF22620FCF74AFFCF214DF227202D
:10394000FCF745FF02214DF22820FCF740FFDE2165
:103950004DF22920FCF73BFF02214DF22A20FCF713
:1039600036FFF2214DF22B20FCF731FF02214DF200
:103970002C20FCF72CFFFE214DF22D20FCF727FF19
:1039800003214DF22E20FCF722FF10214DF22F20B3
:10399000FCF71DFF03214DF23020FCF718FF332107
:1039A0004DF23120FCF713FF03214DF23220FCF7DA
:1039B0000EFF6D214DF23320FCF709FF00214FF47B
:1039C0005340FCF704FF33214DF20130FCF7FFFEBA
:1039D00000214DF20230FCF7FAFE34214DF20330A3
:1039E000FCF7F5FE00214DF20430FCF7F0FE3A2121
:1039F0004DF20530FCF7EBFE00214DF20630FCF7EE
:103A0000E6FE4A214DF20730FCF7E1FE00214DF2BF
:103A10000830FCF7DCFE5C214DF20930FCF7D7FEE4
:103A200000214DF20A30FCF7D2FE81214DF20B301D
:103A3000FCF7CDFE00214DF20C30FCF7C8FEA621AC
:103A40004DF20D30FCF7C3FE00214DF20E30FCF7B5
:103A5000BEFEE5214DF20F30FCF7B9FE01214DF21B
:103A60001030FCF7B4FE13214DF21130FCF7AFFE1D
:103A700001214DF21230FCF7AAFE54214DF2133011
:103A8000FCF7A5FE01214DF21430FCF7A0FE8221C7
:103A90004DF21530FCF79BFE01214DF21630FCF77C
:103AA00096FECA214DF21730FCF791FE02214DF22D
:103AB0001830FCF78CFE00214DF21930FCF787FE20
:103AC00002214DF21A30FCF782FE01214DF21B302B
:103AD000FCF77DFE02214DF21C30FCF778FE34210C
:103AE0004DF21D30FCF773FE02214DF21E30FCF743
:103AF0006EFE67214DF21F30FCF769FE02214DF288
:103B00002030FCF764FE84214DF22130FCF75FFE8B
:103B100002214DF22230FCF75AFEA4214DF223304F
:103B2000FCF755FE02214DF22430FCF750FEB72180
:103B30004DF22530FCF74BFE02214DF22630FCF70A
:103B400046FECF214DF22730FCF741FE02214DF217
:103B50002830FCF73CFEDE214DF22930FCF737FE21
:103B600002214DF22A30FCF732FEF2214DF22B30C9
:103B7000FCF72DFE02214DF22C30FCF728FEFE2131
:103B80004DF22D30FCF723FE03214DF22E30FCF7D1
:103B90001EFE10214DF22F30FCF719FE03214DF2CD
:103BA0003030FCF714FE33214DF23130FCF70FFEBC
:103BB00003214DF23230FCF70AFE6D214DF2333015
:103BC000FCF705FE00214FF45440FCF700FE3321C2
:103BD0004DF20140FCF7FBFD00214DF20240FCF7E5
:103BE000F6FD34214DF20340FCF7F1FD00214DF2CA
:103BF0000440FCF7ECFD3A214DF20540FCF7E7FDEF
:103C000000214DF20640FCF7E2FD4A214DF207404B
:103C1000FCF7DDFD00214DF20840FCF7D8FD5C21EA
:103C20004DF20940FCF7D3FD00214DF20A40FCF7AC
:103C3000CEFD81214DF20B40FCF7C9FD00214DF274
:103C40000C40FCF7C4FDA6214DF20D40FCF7BFFD72
:103C500000214DF20E40FCF7BAFDE5214DF20F4078
:103C6000FCF7B5FD01214DF21040FCF7B0FD13212A
:103C70004DF21140FCF7ABFD01214DF21240FCF773
:103C8000A6FD54214DF21340FCF7A1FD01214DF298
:103C90001440FCF79CFD82214DF21540FCF797FD86
:103CA00001214DF21640FCF792FDCA214DF217405A
:103CB000FCF78DFD02214DF21840FCF788FD002134
:103CC0004DF21940FCF783FD02214DF21A40FCF73A
:103CD0007EFD01214DF21B4000E006E3FCF777FD7D
:103CE00002214DF21C40FCF772FD34214DF21D40C3
:103CF000FCF76DFD02214DF21E40FCF768FD6721C7
:103D00004DF21F40FCF763FD02214DF22040FCF70D
:103D10005EFD84214DF22140FCF759FD02214DF258
:103D20002240FCF754FDA4214DF22340FCF74FFD47
:103D300002214DF22440FCF74AFDB7214DF2254007
:103D4000FCF745FD02214DF22640FCF740FDCF2156
:103D50004DF22740FCF73BFD02214DF22840FCF7D5
:103D600036FDDE214DF22940FCF731FD02214DF2F6
:103D70002A40FCF72CFDF2214DF22B40FCF727FDE9
:103D800002214DF22C40FCF722FDFE214DF22D4088
:103D9000FCF71DFD03214DF22E40FCF718FD10210C
:103DA0004DF22F40FCF713FD03214DF23040FCF79C
:103DB0000EFD33214DF23140FCF709FD03214DF298
:103DC0003240FCF704FD6D214DF23340FCF7FFFC5F
:103DD00000214FF45540FCF7FAFC33214DF201501D
:103DE000FCF7F5FC00214DF20250FCF7F0FC342109
:103DF0004DF20350FCF7EBFC00214DF20450FCF7B0
:103E0000E6FC3A214DF20550FCF7E1FC00214DF2B1
:103E10000650FCF7DCFC4A214DF20750FCF7D7FCBA
:103E200000214DF20850FCF7D2FC5C214DF2095004
:103E3000FCF7CDFC00214DF20A50FCF7C8FC8121B3
:103E40004DF20B50FCF7C3FC00214DF20C50FCF777
:103E5000BEFCA6214DF20D50FCF7B9FC00214DF23D
:103E60000E50FCF7B4FCE5214DF20F50FCF7AFFC0F
:103E700001214DF21050FCF7AAFC13214DF2115014
:103E8000FCF7A5FC01214DF21250FCF7A0FC5421D7
:103E90004DF21350FCF79BFC01214DF21450FCF73E
:103EA00096FC82214DF21550FCF791FC01214DF258
:103EB0001650FCF78CFCCA214DF21750FCF787FC1A
:103EC00002214DF21850FCF782FC00214DF21950EE
:103ED000FCF77DFC02214DF21A50FCF778FC012121
:103EE0004DF21B50FCF773FC02214DF21C50FCF705
:103EF0006EFC34214DF21D50FCF769FC02214DF29D
:103F00001E50FCF764FC67214DF21F50FCF75FFC6C
:103F100002214DF22050FCF75AFC84214DF2215031
:103F2000FCF755FC02214DF22250FCF750FCA42175
:103F30004DF22350FCF74BFC02214DF22450FCF7CC
:103F400046FCB7214DF22550FCF741FC02214DF211
:103F50002650FCF73CFCCF214DF22750FCF737FCF4
:103F600002214DF22850FCF732FCDE214DF229509F
:103F7000FCF72DFC02214DF22A50FCF728FCF2211F
:103F80004DF22B50FCF723FC02214DF22C50FCF794
:103F90001EFCFE214DF22D50FCF719FC03214DF2C1
:103FA0002E50FCF714FC10214DF22F50FCF70FFCA3
:103FB00003214DF23050FCF70AFC33214DF2315011
:103FC000FCF705FC03214DF23250FCF700FC6D219B
:103FD0004DF23350FCF7FBFB00214FF45640FCF749
:103FE000F6FB33214DF20160FCF7F1FB00214DF2AD
:103FF0000260FCF7ECFB34214DF20360FCF7E7FBB9
:1040000000214DF20460FCF7E2FB3A214DF205601D
:10401000FCF7DDFB00214DF20660FCF7D8FB4A21DE
:104020004DF20760FCF7D3FB00214DF20860FCF76E
:10403000CEFB5C214DF20960FCF7C9FB00214DF27B
:104040000A60FCF7C4FB81214DF20B60FCF7BFFB5B
:1040500000214DF20C60FCF7BAFBA6214DF20D6079
:10406000FCF7B5FB00214DF20E60FCF7B0FBE5213B
:104070004DF20F60FCF7ABFB01214DF21060FCF735
:10408000A6FB13214DF21160FCF7A1FB01214DF2BB
:104090001260FCF79CFB54214DF21360FCF797FB78
:1040A00001214DF21460FCF792FB82214DF2156064
:1040B000FCF78DFB01214DF21660FCF788FBCA214D
:1040C0004DF21760FCF783FB02214DF21860FCF7FC
:1040D0007EFB00214DF21960FCF779FB02214DF2C5
:1040E0001A60FCF774FB01214DF21B60FCF76FFBBB
:1040F00002214DF21C60FCF76AFB34214DF21D6079
:10410000FCF765FB02214DF21E60FCF760FB6721A6
:104110004DF21F60FCF75BFB02214DF22060FCF7C3
:1041200056FB84214DF22160FCF751FB02214DF238
:104130002260FCF74CFBA4214DF22360FCF747FB07
:1041400002214DF22460FCF742FBB7214DF22560BD
:10415000FCF73DFB02214DF22660FCF738FBCF2136
:104160004DF22760FCF733FB02214DF22860FCF78B
:104170002EFBDE214DF22960FCF729FB02214DF2D6
:104180002A60FCF724FBF2214DF22B60FCF71FFBA9
:1041900002214DF22C60FCF71AFBFE214DF22D603E
:1041A000FCF715FB03214DF22E60FCF710FB1021EC
:1041B0004DF22F60FCF70BFB03214DF23060FCF752
:1041C00006FB33214DF23160FCF701FB03214DF278
:1041D0003260FCF7FCFA6D214DF23360FCF7F7FA20
:1041E00055214FF47040FCF7F2FAAA214FF201007A
:1041F000FCF7EDFA52214FF20200FCF7E8FA082131
:104200004FF20300FCF7E3FA00214FF20400FCF741
:10421000DEFACC214FF43140FCF7D9FA00214BF201
:104220000110FCF7D4FA05214FF43640FCF7CFFA21
:1042300070214FF43740FCF7CAFA70214BF201703D
:10424000FCF7C5FA01214FF43840FCF7C0FA03210E
:104250004BF60100FCF7BBFA03214BF60200FCF71A
:10426000B6FA03214BF60300FCF7B1FA02214FF432
:104270003C40FCF7ACFA00214BF60140FCF7A7FAF2
:1042800000214BF60240FCF7A2FAD0214FF449403E
:10429000FCF79DFA02214CF60110FCF798FA502128
:1042A0004CF60210FCF793FA50214CF60310FCF781
:1042B0008EFA50214CF60410FCF789FA00214FF4D5
:1042C0005450FCF784FA55214FF46850FCF77FFAFC
:1042D0004FF48850FCF704FA782002F010F84FF4FD
:1042E0002450FCF7FDF901F039BBFE488088A0F5A9
:1042F000134125397ED147F6F001E520FCF767FA36
:104300004FF480710120FCF762FA4FF4E061022063
:10431000FCF75DFA41F230010320FCF758FA002166
:104320000420FCF754FA40F202210820FCF74FFA6F
:1043300000210920FCF74BFA00210A20FCF747FA7C
:1043400000210C20FCF743FA00210D20FCF73FFA76
:1043500000210F20FCF73BFA00211020FCF737FA70
:1043600007211120FCF733FA00211220FCF72FFA65
:1043700000211320FCF72BFA00210720FCF727FA75
:1043800041F290611020FCF722FA40F2272111201F
:10439000FCF71DFA9D211220FCF719FA4FF4C851C1
:1043A0001320FCF714FA25212920FCF710FA0D211F
:1043B0002B20FCF70CFA07213020FCF708FA40F21A
:1043C00003313120FCF703FA03213220FCF7FFF917
:1043D00040F206213520FCF7FAF908213620FCF7D7
:1043E000F6F940F206413720FCF7F1F94FF441713C
:1043F000382000E057E0FCF7EAF907213920FCF704
:10440000E6F940F202613C20FCF7E1F908213D2089
:10441000FCF7DDF900215020FCF7D9F9EF215120FC
:10442000FCF7D5F900215220FCF7D1F940F23F11F9
:104430005320FCF7CCF94FF427416020FCF7C7F973
:1044400001216120FCF7C3F900216A20FCF7BFF9C4
:1044500000218020FCF7BBF900218120FCF7B7F98F
:1044600000218220FCF7B3F900218320FCF7AFF98B
:1044700000218420FCF7ABF900218520FCF7A7F987
:1044800010219020FCF7A3F94FF4C0619220FCF7B3
:104490009EF940F233110720FCF799F92221002000
:1044A000FCF795F91FE78F488088A0F5134128395C
:1044B0007ED141F28F01EC20FCF789F941F23421E1
:1044C000EF20FCF784F94FF480710120FCF77FF9AD
:1044D0004FF4E0610220FCF77AF941F23001032049
:1044E000FCF775F900210420FCF771F940F2022174
:1044F0000820FCF76CF900210920FCF768F900217D
:104500000A20FCF764F901210C20FCF760F9002176
:104510000D20FCF75CF900210F20FCF758F9002171
:104520001020FCF754F907211120FCF750F9002165
:104530001220FCF74CF900211320FCF748F9012167
:104540000720FCF744F9322001F0FCFE41F29041D3
:104550001020FCF73CF940F227211120FCF737F935
:10456000322001F0EFFE8A211220FCF730F93220D0
:1045700001F0E8FE4FF4D0511320FCF728F9062192
:104580002920FCF724F90D212B20FCF720F93220FB
:1045900001F0D8FE00212020FCF719F9002121208C
:1045A000FCF715F9322001F0CDFE0021302000E0AB
:1045B00074E0FCF70CF940F204613120FCF707F9D4
:1045C00040F205313220FCF702F900213520FCF7DA
:1045D000FEF840F609413620FCF7F9F84FF4017176
:1045E0003720FCF7F4F840F201313820FCF7EFF8FF
:1045F00040F207713920FCF7EAF800213C20FCF773
:10460000E6F840F60A213D20FCF7E1F8322001F0FF
:1046100099FE00215020FCF7DAF8EF215120FCF739
:10462000D6F800215220FCF7D2F840F23F11532077
:10463000FCF7CDF84FF427416020FCF7C8F80121C2
:104640006120FCF7C4F800216A20FCF7C0F80021C3
:104650008020FCF7BCF800218120FCF7B8F800218D
:104660008220FCF7B4F800218320FCF7B0F8002189
:104670008420FCF7ACF800218520FCF7A8F8102175
:104680009020FCF7A4F84FF4C0619220FCF79FF84B
:1046900040F233110720FCF79AF824E6114880888D
:1046A000A0F5134125397CD147F6F001E520FCF750
:1046B0008EF84FF480710120FCF789F84FF4E06127
:1046C0000220FCF784F841F230010320FCF77FF868
:1046D00000210420FCF77BF840F202210820FCF7BF
:1046E00076F801E04400002000210920FCF76FF873
:1046F00000210A20FCF76BF800210C20FCF767F87A
:1047000000210D20FCF763F800210F20FCF75FF873
:1047100000211020FCF75BF807211120FCF757F867
:1047200000211220FCF753F800211320FCF74FF86A
:1047300000210720FCF74BF841F290611020FCF7B4
:1047400046F840F227211120FCF741F89D21122064
:10475000FCF73DF84FF4C8511320FCF738F8252139
:104760002920FCF734F80D212B20FCF730F8072125
:104770003020FCF72CF840F203313120FCF727F809
:1047800003213220FCF723F840F206213520FCF704
:104790001EF808213620FCF71AF840F206413720AF
:1047A00000E05CE0FCF713F84FF441713820FCF7AF
:1047B0000EF807213920FCF70AF840F202613C208C
:1047C000FCF705F808213D20FCF701F800215020F6
:1047D000FBF7FDFFEF215120FBF7F9FF00215220ED
:1047E000FBF7F5FF40F23F115320FBF7F0FF4FF4CA
:1047F00027416020FBF7EBFF01216120FBF7E7FF7A
:1048000000216A20FBF7E3FF00218020FBF7DFFF98
:1048100000218120FBF7DBFF00218220FBF7D7FF7F
:1048200000218320FBF7D3FF00218420FBF7CFFF7B
:1048300000218520FBF7CBFF10219020FBF7C7FF5D
:104840004FF4C0619220FBF7C2FF40F23311072002
:10485000FBF7BDFF22210020FBF7B9FF43E5FE482F
:104860008088A0F5134128397ED141F28F01EC20D8
:10487000FBF7ADFF41F23421EF20FBF7A8FF4FF427
:1048800080710120FBF7A3FF4FF4E0610220FBF7EA
:104890009EFF41F230010320FBF799FF0021042025
:1048A000FBF795FF40F202210820FBF790FF002163
:1048B0000920FBF78CFF00210A20FBF788FF01216C
:1048C0000C20FBF784FF00210D20FBF780FF002167
:1048D0000F20FBF77CFF00211020FBF778FF07215A
:1048E0001120FBF774FF00211220FBF770FF00215D
:1048F0001320FBF76CFF01210720FBF768FF322034
:1049000001F020FD41F290411020FBF760FF40F2E2
:1049100027211120FBF75BFF322001F013FD8A21D4
:104920001220FBF754FF322001F00CFD4FF4D05160
:104930001320FBF74CFF06212920FBF748FF0D2130
:104940002B20FBF744FF322001F0FCFC002120204B
:10495000FBF73DFF00212120FBF739FF322001F05A
:10496000F1FC0021302000E074E0FBF730FF40F262
:1049700004613120FBF72BFF40F205313220FBF7B9
:1049800026FF00213520FBF722FF40F609413620A3
:10499000FBF71DFF4FF401713720FBF718FF40F2C2
:1049A00001313820FBF713FF40F207713920FBF784
:1049B0000EFF00213C20FBF70AFF40F60A213D20B4
:1049C000FBF705FF322001F0BDFC00215020FBF772
:1049D000FEFEEF215120FBF7FAFE00215220FBF7EB
:1049E000F6FE40F23F115320FBF7F1FE4FF4274152
:1049F0006020FBF7ECFE01216120FBF7E8FE0021BF
:104A00006A20FBF7E4FE00218020FBF7E0FE002196
:104A10008120FBF7DCFE00218220FBF7D8FE00217D
:104A20008320FBF7D4FE00218420FBF7D0FE002179
:104A30008520FBF7CCFE10219020FBF7C8FE4FF439
:104A4000C0619220FBF7C3FE40F233110720FBF751
:104A5000BEFE48E480488088A0F5134120397DD10E
:104A60000846FBF7B4FE4FF480710120FBF7AFFE60
:104A70004FF4E0610220FBF7AAFE41F2300103206F
:104A8000FBF7A5FE00210420FBF7A1FE40F2022166
:104A90000820FBF79CFE00210920FBF798FE00216F
:104AA0000A20FBF794FE01210C20FBF790FE002169
:104AB0000D20FBF78CFE00210F20FBF788FE322033
:104AC00001F040FC40F201110720FBF780FE32208C
:104AD00001F038FC4FF486511020FBF778FE0721D7
:104AE0001120FBF774FE4FF488711220FBF76FFE64
:104AF0004FF430611320FBF76AFE00212920FBF7F9
:104B000066FE44F210012B20FBF761FE00215020CD
:104B1000FBF75DFEEF215120FBF759FE00215220EB
:104B2000FBF755FE40F23F115320FBF750FE4FF4C8
:104B30001C516020FBF74BFE01216120FBF747FE73
:104B400000216A20FBF743FE00218020FBF73FFE97
:104B500000218120FBF73BFE002100E02DE08220B8
:104B6000FBF735FE00218320FBF731FE0021842076
:104B7000FBF72DFE00218520FBF729FE1021902058
:104B8000FBF725FE00219220FBF721FE0121932057
:104B9000FBF71DFE4FF488719520FBF718FE0021EE
:104BA0009720FBF714FE00219820FBF710FE40F23F
:104BB00073110720FBF70BFE74E427488088A0F5EB
:104BC000134131397DD141F21401E720FBF7FFFD9C
:104BD0004FF480710120FBF7FAFD4FF400710220C1
:104BE000FBF7F5FD41F238010320FBF7F0FD40F241
:104BF00002210820FBF7EBFD00210920FBF7E7FD70
:104C000000210A20FBF7E3FD00210C20FBF7DFFD6C
:104C100000210D20FBF7DBFD00210F20FBF7D7FD66
:104C200000211020FBF7D3FD07211120FBF7CFFD5A
:104C300000211220FBF7CBFD00211320FBF7C7FD5D
:104C4000C82001F07FFB41F290611020FBF7BFFD0F
:104C500040F22721112001E044000020FBF7B7FDBE
:104C6000322001F06FFB0C211220FBF7B0FD322047
:104C700001F068FB4FF400611320FBF7A8FD112140
:104C80002920FBF7A4FD0B212B20FBF7A0FD3220F0
:104C900001F058FB00212020FBF799FD40F23F1165
:104CA0002120FBF794FD00213020FBF790FD4FF40D
:104CB00083713120FBF78BFD00213220FBF787FD4C
:104CC00000E067E04FF401713520FBF780FD41F211
:104CD0000A613620FBF77BFD40F207713720FBF7B6
:104CE00076FD4FF483713820FBF771FD40F20771B8
:104CF0003920FBF76CFD40F202413C20FBF767FDD9
:104D000040F60F413D20FBF762FD00215020FBF7EC
:104D10005EFDEF215120FBF75AFD00215220FBF7E9
:104D200056FD40F23F115320FBF751FD4FF41C514B
:104D30006020FBF74CFD01216120FBF748FD0021BD
:104D40006A20FBF744FD00218020FBF740FD002195
:104D50008120FBF73CFD00218220FBF738FD00217C
:104D60008320FBF734FD00218420FBF730FD002178
:104D70008520FBF72CFD10219020FBF728FD4FF438
:104D8000C0619220FBF723FD40F233110720FBF7AF
:104D90001EFD82E4FE488088A0F5A84108397DD137
:104DA0004FF480710120FBF712FD4FF4E061022007
:104DB000FBF70DFD41F230010320FBF708FD002158
:104DC0000420FBF704FD40F207210820FBF7FFFC5D
:104DD00000210920FBF7FBFC00210A20FBF7F7FC70
:104DE00000210C20FBF7F3FC00210D20FBF7EFFC6A
:104DF00000210F20FBF7EBFC142001F0A3FA41F295
:104E0000B0611020FBF7E3FC01211120FBF7DFFC70
:104E100001211720FBF7DBFC4FF49C711220FBF7FC
:104E2000D6FC4FF400611320FBF7D1FC09212920A7
:104E3000FBF7CDFC09212A20FBF7C9FC0021A420A7
:104E4000FBF7C5FC00215020FBF7C1FCEF215120EE
:104E5000FBF7BDFC00215220FBF7B9FC40F23F11EB
:104E60005320FBF7B4FC4FF41C516020FBF7AFFC60
:104E700001216120FBF7ABFC00216A20FBF7A7FCB6
:104E800000218020FBF7A3FC00218120FBF79FFC81
:104E900000218220FBF79BFC002100E024E083201E
:104EA000FBF795FC00218420FBF791FC0021852075
:104EB000FBF78DFC13219020FBF789FC0021922049
:104EC000FBF785FC03219320FBF781FC4FF48871ED
:104ED0009520FBF77CFC40F273110720FBF777FC71
:104EE000322001F02FFAB9E4A9488088A0F5A85132
:104EF00005397DD10720FBF76AFC322001F022FA48
:104F00004FF48E711220FBF762FC0121A420FBF705
:104F10005EFC0F210820FBF75AFC08210A20FBF752
:104F200056FC08210D20FBF752FC40F2077130209F
:104F3000FBF74DFC07213120FBF749FC40F20361F0
:104F40003220FBF744FC4FF4E0613320FBF73FFCD9
:104F500040F202213420FBF73AFC02213520FBF716
:104F600036FC41F60F713620FBF731FC40F2077139
:104F70003720FBF72CFC00213820FBF728FC002110
:104F80003920FBF724FC40F207713A20FBF71FFCA5
:104F900000213B20FBF71BFC07213C20FBF717FC03
:104FA00000213D20FBF713FC322001F0CBF9012159
:104FB0000720FBF70CFC01211720FBF708FC32202F
:104FC00001F0C0F94FF4BD511020FBF700FC40F296
:104FD00017211120FBF7FBFB4FF48F711220FBF719
:104FE000F6FB4FF470611320FBF7F1FB002100E0AA
:104FF00094E02A20FBF7EBFB0A212920FBF7E7FBD3
:105000004FF49F711220FBF7E2FB00215020FBF7C9
:10501000DEFBEF215120FBF7DAFB00215220FBF7EA
:10502000D6FB40F23F115320FBF7D1FB4FF41C514C
:105030006020FBF7CCFB01216120FBF7C8FB0021BE
:105040006A20FBF7C4FB00218020FBF7C0FB002196
:105050008120FBF7BCFB00218220FBF7B8FB00217D
:105060008320FBF7B4FB00218420FBF7B0FB002179
:105070008520FBF7ACFB13219020FBF7A8FB4FF436
:1050800040719220FBF7A3FB05219320FBF79FFBC8
:1050900000219520FBF79BFB00219720FBF797FB56
:1050A00000219820FBF793FB4FF480710120FBF760
:1050B0008EFB4FF4E0610220FBF789FB41F23801DF
:1050C0000320FBF784FB00210420FBF780FB002179
:1050D0000C20FBF77CFB00210F20FBF778FB002165
:1050E0002020FBF774FB00212120FBF770FB21211E
:1050F0000720FBF76CFB142001F024F96121072045
:10510000FBF765FB142001F01DF940F27311072035
:10511000FBF75DFB142001F015F99AE41C48808828
:10512000A0F5354105397CD10846FBF750FB00213D
:105130000846FBF74CFB00210846FBF748FB002123
:105140000846FBF744FB0121A420FBF740FB142099
:1051500001F0F8F84FF41C516020FBF738FB40F2E7
:1051600002210820FBF733FB4FF405713020FBF7D9
:105170002EFB43F215713120FBF729FB40F204614D
:105180003220FBF724FB40F61661332002E00000DA
:1051900044000020FBF71BFB42F211213420FBF7F7
:1051A00016FB4FF4A8513520FBF711FB48F20751CD
:1051B0003620FBF70CFB41F207413720FBF707FBDA
:1051C00041F203413820FBF702FB20213920FBF795
:1051D000FEFA1A219020FBF7FAFA00211020FBF7C3
:1051E000F6FA07211120FBF7F2FA00211220FBF753
:1051F000EEFA00211320FBF7EAFA142001F0A2F8DE
:105200004FF4E6611020FBF7E2FA40F2371111206B
:10521000FBF7DDFA142001F095F84FF4DC71122051
:1052200000E088E0FBF7D3FA142001F08BF84FF48C
:1052300070611320FBF7CBFA80212A20FBF7C7FA15
:1052400048212920FBF7C3FA142001F07BF84FF422
:1052500080710120FBF7BBFA4FF4E0610220FBF7FD
:10526000B6FA41F238010320FBF7B1FA40F202210D
:105270000820FBF7ACFA00210A20FBF7A8FA00216E
:105280000C20FBF7A4FA00210D20FBF7A0FA302137
:105290000E20FBF79CFA00215020FBF798FAEF2133
:1052A0005120FBF794FA00215220FBF790FA40F2CC
:1052B0003F115320FBF78BFA4FF41C516020FBF792
:1052C00086FA01216120FBF782FA00216A20FBF7B0
:1052D0007EFA11219020FBF77AFA4FF4C0619220F8
:1052E000FBF775FA40F202419320FBF770FA0221B6
:1052F0009420FBF76CFA142001F024F80121072018
:10530000FBF765FA142001F01DF861210720FBF777
:105310005EFA40F273110720FBF759FA00212020B2
:10532000FBF755FA00212120FBF751FA222100203A
:10533000FBF74DFA12E3FE488088A0F54541053998
:105340007DD10846FBF743FA00210846FBF73FFAF8
:10535000142000F0F7FF00210846FBF738FA00217F
:105360000846FBF734FA00210846FBF730FA002123
:105370000846FBF72CFA0121A420FBF728FA142099
:1053800000F0E0FF4FF41C516020FBF720FA40F6DC
:1053900006010820FBF71BFA40F203713020FBF7EF
:1053A00016FA01213120FBF712FA04213220FBF713
:1053B0000EFA4FF481713320FBF709FA4FF4407174
:1053C0003420FBF704FA40F203113520FBF7FFF914
:1053D0001F213620FBF7FBF940F203713720FBF762
:1053E000F6F901213820FBF7F2F904213920FBF707
:1053F000EEF915219020FBF7EAF94FF482611020B5
:10540000FBF7E5F940F247211120FBF7E0F94FF4F3
:10541000DE711220FBF7DBF94FF460611320FBF71C
:10542000D6F9782000F08EFF4FF480710120FBF751
:10543000CEF94FF400710220FBF7C9F900E050E00B
:1054400041F230010320FBF7C2F908210A20FBF7E3
:10545000BEF900210C20FBF7BAF920210E20FBF742
:10546000B6F900210F20FBF7B2F900212020FBF74D
:10547000AEF900212120FBF7AAF93D212A20FBF7F4
:10548000A6F9142000F05EFF2D212920FBF79FF9DB
:1054900000215020FBF79BF94DF2EF015120FBF763
:1054A00096F900215220FBF792F940F23F11532068
:1054B000FBF78DF900216120FBF789F900216A20B3
:1054C000FBF785F94FF440719220FBF780F9052135
:1054D0009320FBF77CF94FF480710720FBF777F9F5
:1054E0003CE293488088A0F5094189397DD10121AA
:1054F0000020FBF76CF94AF6A4010320FBF767F9DB
:1055000000210C20FBF763F940F60C010D20FBF79E
:105510005EF94FF42C510E20FBF759F9B0211E20F3
:10552000FBF755F942F63F310120FBF750F94FF4F4
:10553000C0610220FBF74BF900211020FBF747F96F
:1055400046F278011120FBF742F900210520FBF714
:105550003EF900210620FBF73AF94EF61C711620A1
:10556000FBF735F903211720FBF731F940F233211E
:105570000720FBF72CF900210B20FBF728F900216D
:105580000F20FBF724F900214120FBF720F900212F
:105590004220FBF71CF900214820FBF718F940F2E4
:1055A0003F114920FBF713F900214A20FBF70FF9BF
:1055B00000214B20FBF70BF94FF46F414420FBF720
:1055C00006F900214520FBF702F940F23F11462081
:1055D000FBF7FDF840F207713020FBF7F8F84FF4C5
:1055E00001713120FBF7F3F800E03DE04FF4017169
:1055F0003220FBF7ECF840F202513320FBF7E7F8DA
:1056000040F207513420FBF7E2F84FF401713520E6
:10561000FBF7DDF84FF401713620FBF7D8F840F2C4
:1056200002513720FBF7D3F840F202313A20FBF762
:10563000CEF840F202313B20FBF7C9F800212320CD
:10564000FBF7C5F800212420FBF7C1F84FF4004117
:105650002520FBF7BCF800214F20FBF7B8F800210C
:105660004E20FBF7B4F879E131488088A0F58A41F3
:1056700031397CD101210020FBF7A9F80A2000F084
:1056800061FE41F228611020FBF7A1F80E211220E3
:10569000FBF79DF840F639211320FBF798F80A2014
:1056A00000F050FE40211120FBF791F85021152009
:1056B000FBF78DF80A2000F045FE1E211220FBF7B3
:1056C00086F80A2000F03EFE4FF4B1511020FBF79F
:1056D0007EF842F639211320FBF779F80A2000F012
:1056E00031FE4FF480710120FBF771F84FF44071E7
:1056F0000220FBF76CF841F238010320FBF767F852
:1057000040F202210820FBF762F808210A20FBF78B
:105710005EF800213020FBF75AF840F202413120B8
:10572000FBF755F84FF483713220FBF750F801E096
:105730004400002040F203513320FBF748F84FF4B7
:1057400082713420FBF743F840F201313520FBF73A
:105750003EF840F207713620FBF739F840F2053188
:105760003720FBF734F84FF40271382000E040E0B6
:10577000FBF72DF840F60B713920FBF728F80221D2
:105780004120FBF724F84FF41C516020FBF71FF871
:1057900001216120FBF71BF84FF404719020FBF707
:1057A00016F84FF485719220FBF711F8042193202D
:1057B000FBF70DF84FF48071A020FBF708F80121EA
:1057C0000720FBF704F821210720FBF700F823212D
:1057D0000720FAF7FCFF33210720FAF7F8FF40F221
:1057E00033110720FAF7F3FF0021A020FAF7EFFFAB
:1057F000B4E0F7488088A0F58A413539F8D13021E6
:105800001520FAF7E4FF10219A20FAF7E0FF202193
:105810001120FAF7DCFF43F228411020FAF7D7FFF6
:1058200002211220FAF7D3FF41F238011320FAF7D0
:10583000CEFF282000F086FD12210846FAF7C7FFA8
:10584000282000F07FFD43F220411020FAF7BFFF2F
:1058500043F238011320FAF7BAFF462000F072FD38
:1058600000213020FAF7B3FF40F202413120FAF76D
:10587000AEFF40F207313220FAF7A9FF4FF4417131
:105880003320FAF7A4FF04213420FAF7A0FF40F2F6
:1058900001413520FAF79BFF40F207713620FAF7F5
:1058A00096FF40F205313720FAF791FF4FF4C261BD
:1058B0003820FAF78CFF4FF4C2613920FAF787FFDE
:1058C0004FF480710120FAF782FF4FF440710220FB
:1058D000FAF77DFF41F230010320FAF778FF40F636
:1058E00008010820FAF773FF08210A20FAF76FFF72
:1058F0004FF41C516020FAF76AFF01216120FAF78A
:1059000066FF4FF49F719020FAF761FF4FF48071AA
:105910009220FAF75CFF4FF480719320FAF757FF5B
:105920004FF44051A020FAF752FF1021A320FAF7BC
:105930004EFF01210720FAF74AFF21210720FAF73D
:1059400046FF23210720FAF742FF33210720FAF709
:105950003EFF40F233110720FAF739FF0020FBF732
:105960007CFF01209B4908604FF6FF70FCF7A5FA09
:1059700008BD2DE9FC5F05460E4617469846DDF842
:1059800030900020019092488088A0F5D0410439E1
:1059900029D18F488079012825D1AB4635468C48DE
:1059A0000088C01B401E86B2474689480088A0EB8D
:1059B0000B00401E1FFA80F80020854988712A20BC
:1059C00048812B20888143463A4631462846CDF807
:1059D0000090FFF7CEFF01207D4988712B20488180
:1059E0002A20888134E0781B401C80B20190344624
:1059F0002CE021462846FAF745FFFAF712FF4FF050
:105A0000000A1EE04FF48071734800F09AFE4FF4D4
:105A10000071714800F097FE4946704800F09AFE08
:105A200080216D4800F08FFE80216B4800F089FED8
:105A30004FF40071684800F084FE0AF101001FFA7B
:105A400080FA01988245DDDB601C84B24445D0DDDC
:105A5000BDE8FC9F2DE9F84F07460D469046994654
:105A6000DDF828B0A8EB0700401C1FFA80FAA9EB6C
:105A70000500401C80B2009000242CE0281981B25F
:105A80003846FAF7FFFEFAF7CCFE00261FE04FF487
:105A90008071514800F055FE4FF400714E4800F0FF
:105AA00052FE04FB0A603BF810104C4800F052FE16
:105AB0008021494800F047FE8021474800F041FE20
:105AC0004FF40071444800F03CFE701C86B256450D
:105AD000DDDB601C84B200988442CFDBBDE8F88F28
