:020000040800F2
:1000000038B3002021020008290200084D3F0008F3
:100010002D0200082F020008310200080000000035
:100020000000000000000000000000003302000893
:100030003502000800000000AF02000821C50008DA
:100040003B0200083B0200083B02000801A900082F
:100050003B0200083B0200083B0200083B0200088C
:100060003B0200083B0200083B0200083B0200087C
:100070003B0200083B0200083B0200083B0200086C
:100080003B0200083B0200083B0200083B0200085C
:10009000C5D700083B0200083B0200083B020008ED
:1000A0003B0200083B0200083B0200083B0200083C
:1000B00079C6000801C700083B0200083B0200089F
:1000C0003B0200083B0200083B0200083B0200081C
:1000D0003B020008D5D400083B0200083B020008A0
:1000E0003B0200083B02000879D600083B020008EA
:1000F0003B0200083B0200083B0200083B020008EC
:100100003B0200083B02000835C700083B0200081C
:100110003B0200083B0200083B0200083B020008CB
:100120003B0200083B0200083B0200083B020008BB
:1001300000F002F800F065F80AA090E8000C824494
:100140008344AAF10107DA4501D100F05AF8AFF271
:10015000090EBAE80F0013F0010F18BFFB1A43F0A5
:1001600001031847A49B0300C49B03000A444FF0FB
:10017000000C10F8013B13F0070408BF10F8014B06
:100180001D1108BF10F8015B641E05D010F8016B4B
:10019000641E01F8016BF9D113F0080F1EBF10F8AF
:1001A000014BAD1C0C1B09D16D1E58BF01F801CBD2
:1001B000FAD505E014F8016B01F8016B6D1EF9D555
:1001C0009142D6D37047000000230024002500266A
:1001D000103A28BF78C1FBD8520728BF30C148BFAA
:1001E0000B607047642901F08187782901F0BA8794
:1001F000732902F0FC81002070471FB51FBD10B5A8
:1002000010BD02F049FA1146FFF7F7FF17F060FA48
:1002100002F067FA03B4FFF7F2FF03BC0DF046FFEC
:100220000948804709480047FEE7FEE7FEE7FEE78A
:10023000FEE7FEE7FEE7FEE7FEE7FEE704480549C6
:10024000054A064B7047000041C50008310100080F
:1002500038AD002038B3002038AF002038AF002080
:10026000EFF3108072B6704780F310887047204C0F
:10027000204D25604FF0000484F309881E4C4FF098
:10028000010525701D4C4FF08055256062B6FEE7D4
:1002900030B41A4C4FF08055256030BC704730B4F4
:1002A000164C4FF08055256030BC704700BF72B6C9
:1002B000EFF3098028B1203880E8F00F1049096871
:1002C000086000B50F4880475DF804EB0E480F4901
:1002D0000A7802700A480E490A680260106890E8BD
:1002E000F00F203080F309884EF0040E62B670479C
:1002F00020ED00E00000FFFFEF00002004ED00E033
:1003000008010020199D0008EC000020ED000020ED
:100310001001002010B5FF4800680DF075FFFE4881
:1003200000680DF071FFFD4800680DF06DFFFC489E
:1003300000680DF069FFFB4800680DF065FFFA48A2
:1003400000680DF061FFF94800680DF05DFF10BD19
:1003500010B500244FF400700DF058FFED4908600F
:100360000846006800B901244FF400700DF04EFFFC
:10037000E94908600846006800B901244FF400709C
:100380000DF044FFE54908600846006800B9012403
:10039000A0200DF03BFFE24908600846006800B964
:1003A000012440200DF032FFDE4908600846006855
:1003B00000B9012440200DF029FFDB490860084600
:1003C000006800B901244FF4F8700DF01FFFD74901
:1003D00008600846006800B901240CB1FFF79AFFD5
:1003E000204610BD2DE9F04704460D461646701B09
:1003F00000EBD07105EB610954F8397004EBC901C9
:10040000486820F075FE804654F8350044F83900FD
:1004100004EBC500406804EBC9014860A94605F13A
:10042000010A1DE054F83A00394620F0F3FE15D8D1
:1004300054F83A0044F8390004EBCA00406804EB71
:10044000C901486009F1010954F8390044F83A003B
:1004500004EBC900406804EBCA0148600AF1010AD4
:10046000B245DFDDA9EB0500012805DDA9F1010298
:1004700029462046FFF7B6FFA6EB0900012805DD57
:10048000324609F101012046FFF7ACFF44F839700C
:10049000404620F093FE04EBC9014860BDE8F087B8
:1004A0002DE9F84F04460D4616461F464FF000084A
:1004B00028E04FF0000920E04FF0000BDA4612E090
:1004C0000B9A0AFB029255F822100A9A08FB02A224
:1004D00054F8220020F0D2FE5946009020F09EFCF5
:1004E00083460AF1010A0A988245E9DB0B9808FB6A
:1004F000009046F820B009F101090B988145DBDB3B
:1005000008F10108B845D4DBBDE8F88F024612B9FE
:1005100009B900207047002A02DD09B90020F9E777
:10052000002903DD8A4201DD0120F3E7002A03DD13
:10053000914201D10220EDE7002A03DD8A4201DA6F
:100540000320E7E71AB9002901DD0420E2E7002AC9
:1005500008DA101E01DB034600E043428B4201DA59
:100560000520D7E7002A08DA101E01DB034600E069
:1005700043428B4201D10620CCE7002A0ADA101E42
:1005800001DB034600E043428B4203DD002901DD2D
:100590000720BFE719B9002A01DA0820BAE70029C5
:1005A00003DA914201DD0920B4E7002A03DA91421F
:1005B00001D10A20AEE7002A03DA914201DA0B20CA
:1005C000A8E71AB9002901DA0C20A3E700290ADA02
:1005D000081E01DB034600E04342934203DD002A8C
:1005E00001DD0D2096E7002908DA081E01DB03462D
:1005F00000E04342934201D10E208BE7002908DA44
:10060000081E01DB034600E04342934201DA0F205B
:1006100080E700207EE730B5034601B10AB900202B
:1006200030BD412901D0412A01D10020F8E7491EFF
:10063000521E03EBC20000EBE100047801F0070555
:100640000120A840044201D00120E9E70020E7E7AB
:100650002DE9FE4F04460D4616461F460020019028
:10066000781C8200002132480DF0D2FD781C8200F7
:10067000002130480DF0CCFD4FF0000819E04FF09C
:10068000000912E004EBC80000EBE900017809F072
:10069000070201209040014205D04FF07E510198A1
:1006A00020F0BCFB019009F10109B145EADB08F13A
:1006B0000108A845E3DB384620F080FD824601466C
:1006C000019820F01FFC01900120029049E04FF0BA
:1006D000000AD0463AE04FF0000912E004EBC900EE
:1006E00000EBE800017808F0070201209040014289
:1006F00005D04FF07E51504620F090FB824609F124
:100700000109A945EADB029820F058FD0090019903
:1007100012E0000004050020080500200C05002060
:100720001005002014050020180500201C050020DD
:10073000B0AC0020C4AC002020F0A0FD83465146A0
:1007400020F068FD00D804E008F10108701E404563
:10075000C1DC00BFFD48029940F821800298401C8E
:100760000290781C02998142B1DB0120029035E0B1
:100770004FF0000AD14626E04FF0000812E004EBEB
:10078000C90000EBE800017808F007020120904062
:10079000014205D04FF07E51504620F03FFB82468B
:1007A00008F10108B045EADB029820F007FD00904F
:1007B000019920F063FD8346514620F02BFD00D8BF
:1007C00004E009F10109681E4845D5DC00BFE04995
:1007D000029841F820900298401C0290781C0299DF
:1007E0008142C5DB0020029032E0029991FBF7F1D3
:1007F000D74A52F82120029991FBF7F1491CD44BBA
:1008000053F82110501800EBD0714910D14A1268EA
:10081000029B42F82310029991FBF7F207FB121199
:10082000CA4A52F82120029991FBF7F307FB1311F2
:10083000491CC64B53F82110501800EBD0714910D9
:10084000C54A1268029B42F823100298401C02908D
:1008500007FB07F002998842C7DCBDE8FE8F2DE94F
:10086000F34F8FB0402440200A901025AA000021A9
:10087000B94800680DF0CCFCAA000021B54800681A
:100880000DF0C6FC042321460A9A0F98FFF7E0FEFC
:10089000E2000021B14800680DF0BAFC00200B9086
:1008A00060E3AC4801680B9851F820000290AA4818
:1008B00001680B9851F820000190029808304028F8
:1008C00001DD402001E002980830089001980830CE
:1008D000402801DD402001E0019808300690029890
:1008E000083801D5002001E00298083809900198E5
:1008F000083801D5002001E00198083807900998D0
:100900000E9027E307980D901CE3DDE90D120F9878
:10091000FFF781FE8146DDE90D12491C0F98FFF7B4
:100920007AFE022101FB0099DDE90D12891C0F9866
:10093000FFF771FE81440E9A921C0D990F98FFF7F4
:100940006AFEA9EB00090E9A921C0D99491C0F989A
:10095000FFF761FE022101FB10990E9A921C0D997E
:10096000891C0F98FFF757FEA9EB000007B2DDE9DD
:100970000D12891C0F98FFF74EFE81460E9A521CED
:100980000D99891C0F98FFF746FE022101FB009983
:100990000E9A921C0D99891C0F98FFF73CFE81441A
:1009A000DDE90D120F98FFF736FEA9EB00090E9A4C
:1009B000521C0D990F98FFF72EFE022101FB109992
:1009C0000E9A921C0D990F98FFF725FEA9EB0000D7
:1009D0000FFA80F8002F02DBB8F1000F00DA00BF39
:1009E00041463846FFF792FD0390039841100B985B
:1009F00001FB05060398401C40100B9900FB0510F5
:100A0000059002990E98401A083000EB0010019AE8
:100A10000D99891A08440830514951F82000049072
:100A2000039810281CD2DFE800F0081C4A629FB32C
:100A3000F2F0EFEEEDECEBEAE9E8384620F0BEFB31
:100A40008246049920F01AFC81464448006850F818
:100A50002610484620F0E2F94049096841F826008E
:100A60006CE2A7EB080020F0A9FB8246049920F075
:100A700005FC81463948006850F82610484620F0A9
:100A8000CDF93649096841F82600404620F096FB2A
:100A90008346344920F0F2FB8246049920F0EEFBB5
:100AA00081462E480268059852F82010484620F0EA
:100AB000B5F92A490968059A41F822003EE2404604
:100AC00020F07CFB8346274920F0D8FB824604991E
:100AD00020F0D4FB81462148006850F82610484693
:100AE00020F09CF91D49096841F8260026E23846A5
:100AF00020F064FB83461B4920F0C0FB824604992A
:100B000020F0BCFB81461548006850F82610484686
:100B100020F084F91149096841F82600A8EB070084
:100B200020F04CFB8246049920F0A8FB81460B483C
:100B30000268059852F82010484620F06FF90749DE
:100B40000A68059942F82100F8E10000B0AC0020E5
:100B5000C4AC002018050020140500200805002062
:100B600008F80208F704B53F404620F027FB82460C
:100B7000049920F083FB8146FE48006850F8261057
:100B8000484620F04BF9FB49096841F82600D5E1B9
:100B900007EB080020F012FB8246049920F06EFB60
:100BA0008146F448006850F82610484620F036F98F
:100BB000F049096841F82600B7F1000901DB494610
:100BC00001E0C9F10001084620F0F8FAEA49009076
:100BD00020F054FB8346049920F050FB8246E54800
:100BE0000068059A50F82210504620F017F9E149A4
:100BF0000968059A41F82200A0E166E14DE111E1A2
:100C0000F5E0BFE09FE069E04DE018E0FFE7404617
:100C100020F0D4FA8346D84920F030FB824604996C
:100C200020F02CFB8146D348006850F82610484637
:100C300020F0F4F8CF49096841F826007EE14046EB
:100C400020F0BCFA8346CC4920F018FB8246049978
:100C500020F014FB8146C748006850F8261048462B
:100C600020F0DCF8C349096841F8260017EB0809B1
:100C700001D4494601E0C9F10001084620F09EFA7E
:100C80008346049920F0FAFA8246BA480068059A29
:100C900050F82210504620F0C1F8B6490968059A6C
:100CA00041F822004AE1B7F1000901DB494601E0C1
:100CB000C9F10001084620F081FA8346049920F02A
:100CC000DDFA8246AB48006850F82610504620F006
:100CD000A5F8A849096841F826002FE1A8EB07000C
:100CE00020F06CFA8246049920F0C8FA8146A148A7
:100CF000006850F82610484620F090F89D49096891
:100D000041F82600B8F1000901DB494601E0C9F1CC
:100D10000001084620F052FA9749009020F0AEFA00
:100D20008346049920F0AAFA824692480068059A00
:100D300050F82210504620F071F88E490A68059943
:100D400042F82100FAE0B8F1000901DB494601E070
:100D5000C9F10001084620F031FA8749009020F0DF
:100D60008DFA8346049920F089FA8246814800680A
:100D700050F82610504620F051F87E49096841F895
:100D80002600DBE0B7F1000901DB494601E0C9F1CB
:100D90000001084620F012FA7749009020F06EFA20
:100DA0008346049920F06AFA82467248006850F837
:100DB0002610504620F032F86E49096841F82600A6
:100DC000A7EB080020F0FAF98246049920F056FAC1
:100DD000814668480268059852F82010484620F07D
:100DE0001DF864490A68059942F82100A6E0B8F1A7
:100DF000000901DB494601E0C9F10001084620F085
:100E0000DDF98346049920F039FA82465948006892
:100E100050F82610504620F001F85649096841F86C
:100E200026008BE017EB080901D4494601E0C9F11F
:100E30000001084620F0C2F98346049920F01EFA0A
:100E400082464C48006850F8261050461FF0E6FFD6
:100E50004849096841F82600B7F1000901DB494615
:100E600001E0C9F10001084620F0A8F942490090CC
:100E700020F004FA8346049920F000FA82463D48A7
:100E80000068059A50F8221050461FF0C7FF3949F4
:100E90000A68059942F8210050E0384620F08EF9A2
:100EA0008346354920F0EAF98246049920F0E6F9B4
:100EB00081463048006850F8261048461FF0AEFFC3
:100EC0002C49096841F8260038E0B8F1000901DB37
:100ED000494601E0C9F10001084620F06FF92649B2
:100EE000009020F0CBF98346049920F0C7F98246A0
:100EF0002048006850F8261050461FF08FFF1D490B
:100F0000096841F8260017EB080901D4494601E0B9
:100F1000C9F10001084620F051F98346049920F0F8
:100F2000ADF982461348006850F8261050461FF06D
:100F300075FF1049096841F8260000BF00BF0D98F1
:100F4000401C0D9006990D9888427FF7DEAC0E98F4
:100F5000401C0E9008990E9888427FF7D3AC0B98EE
:100F6000401C0B900B98A8427FF49BAC00200B9088
:100F70001FE0000008050020F704B53F00200C909A
:100F800011E0DDE90B0101FB0506FF49096851F895
:100F90002600FE4918F0ECFFFD49096841F82600DB
:100FA0000C98401C0C900C980828EADB0B98401C0D
:100FB0000B900B981028E1DB11B0BDE8F08F2DE904
:100FC000FF4F8BB004460D461E46199F0020079028
:100FD00090E2079805EB80000088ADF8280007989C
:100FE00005EB80004088ADF82A000798401C05EB0F
:100FF00080000088ADF824000798401C05EB8000B5
:101000004088ADF82600BDF92800BDF924108842BB
:1010100072D1BDF92A00089067E0002E41D04FF050
:10102000FF383AE04FF0FF30069031E0089810EBBF
:1010300008002AD4089800EB08011898814224DAA5
:10104000BDF92800069940181FD4BDF9281006984C
:101050000844B84219DABDF92810069808440590EA
:101060000898404404EBC000059900EBE1000078CB
:1010700001F007020121914008430899414404EB23
:10108000C101059A01EBE20108700698401C069028
:1010900006980228CAD108F10108B8F1020FC1D19F
:1010A00016E0BDF928000590089804EBC0010598EA
:1010B00001EBE0000078059901F007020121914061
:1010C0000843089904EBC102059902EBE10108709D
:1010D000BDF92600BDF92A10884203DD0898401C9E
:1010E000089002E00898401E0890BDF92610089864
:1010F000814292D1FBE1FFE7BDF92A00BDF926103C
:10110000884275D1BDF9280008906AE0002E42D0CF
:101110004FF0FF383BE04FF0FF30069032E0069989
:10112000089840182BD406990898084418998842C2
:1011300025DABDF92A0010EB080020D4BDF92A00F9
:101140004044B8421BDA0699089808440590BDF956
:101150002A00404404EBC001059801EBE000007850
:10116000059901F00702012191400843BDF92A10B9
:10117000414404EBC102059902EBE10108700698B5
:10118000401C069006980228C9D108F10108B8F160
:10119000020FC0D118E008980590BDF92A0004EBB1
:1011A000C001059801EBE0000178059800F0070206
:1011B000012090400143C8B2BDF92A1004EBC101DF
:1011C000059A01EBE2010870BDF92400BDF9281071
:1011D000884203DD0898401C089002E00898401EF1
:1011E0000890BDF92410089881428FD17FE1FFE774
:1011F000BDF92410BDF92820881A1FF0DFFF8246B0
:10120000BDF92610BDF92A20881A1FF0D7FF8346A2
:1012100051461FF077FE81461FF0D4FDCDE9020153
:1012200021F00041CDE900015AA00CC800981FF040
:10123000B3FA13D2BDF92410BDF92820881A1FF083
:10124000BDFF8146BDF92610BDF92A20881A1FF07E
:10125000B5FF824649461FF055FE12E0BDF9261043
:10126000BDF92A20881A1FF0A9FF8146BDF9241074
:10127000BDF92820881A1FF0A1FF824649461FF0B9
:1012800041FE0490BDF92420BDF92830D01ABDF9E3
:101290002620BDF92A30D11A01D40B4600E04B427A
:1012A000002801DB024600E0424293426BDA002054
:1012B00008907EE008981FF081FF039004991FF0CA
:1012C000DDFF83461FF014FFBDF92A1000EB010972
:1012D000BDF92800089900EB010A002E3CD04FF020
:1012E000FF3835E04FF0FF3006902CE019EB080096
:1012F00026D409EB08001899884221DA06981AEBDF
:1013000000001DD406985044B84219DA0AF10100D1
:10131000059009EB080004EBC000059900EBE10023
:101320000178059800F00702012090400143C8B2FF
:1013300009EB080104EBC101059A01EBE201087019
:101340000698401C069006980228CFD108F10108A3
:10135000B8F1020FC6D113E0CDF814A004EBC90018
:10136000DDF814A000EBEA0001780AF00702012082
:1013700090400143C8B204EBC90101EBEA010870D7
:10138000BDF924000AE01EE00805002085EBD13EEF
:101390000C050020000000000000F03FBDF92810FF
:1013A000884203DD0898401C089002E00898401E1F
:1013B0000890BDF92400BDF92810401A0899884208
:1013C0007FF478AF92E0BDF92420BDF92830D01A1F
:1013D000BDF92620BDF92A30D11A01D40B4600E010
:1013E0004B42002801DB024600E0424293427DDB93
:1013F0000020089072E0BDF92A10089801EB00095E
:1014000008981FF0DBFE039004991FF037FF834616
:101410001FF06EFEBDF9281000EB010A002E3CD033
:101420004FF0FF3835E04FF0FF3006902CE019EB1D
:10143000080026D409EB08011898814221DA0698A1
:101440001AEB00001DD406985044B84219DA0698E9
:101450005044059009EB080004EBC000059900EB2F
:10146000E1000178059800F0070201209040014357
:10147000C8B209EB080104EBC101059A01EBE201D6
:1014800008700698401C069006980228CFD108F1F3
:101490000108B8F1020FC6D113E0CDF814A004EB97
:1014A000C900DDF814A000EBEA0001780AF0070299
:1014B000012090400143C8B204EBC90101EBEA01ED
:1014C0000870BDF92600BDF92A10884203DD08988E
:1014D000401C089002E00898401E0890BDF92600C4
:1014E000BDF92A10411A0898814284D100BF07989B
:1014F000401C07900D98411E079881427FF469AD0A
:101500000FB0BDE8F08F2DE9F04F099C15464FF064
:10151000FF360F46B4464FF0000935E000EB890A6C
:10152000BAF902A0BA4504DA00EB890ABAF902A0B6
:1015300000E0BA46574600EB890ABAF900A0AA456E
:1015400004DA00EB890ABAF900A000E0AA46554681
:1015500000EB890ABAF902A0E24504DD00EB890A32
:10156000BAF902A000E0E246D44600EB890ABAF9D3
:1015700000A0B24504DD00EB890ABAF900A000E042
:10158000B246564609F10109DDF828A0D145C5DB70
:10159000ACEB070A0AF1010A93FBFAFA0AF1010E11
:1015A000A6EB050A0AF1010A94FBFAFA0AF101080E
:1015B0004FF000092BE000EB890ABAF902A0AAEB70
:1015C000070A0AFB03FAACEB070B0BF1010B9AFBC2
:1015D000FBFAF2440FFA8AFA00EB890BABF802A08F
:1015E00000EB890ABAF900A0AAEB050A0AFB04FA83
:1015F000A6EB050B0BF1010B9AFBFBFAC2440FFAA9
:101600008AFA00EB890BABF800A009F10109DDF8BB
:1016100028A0D145CFDBBDE8F08F2DE9FF4784B08E
:1016200014461D46BDF91000BDF91410884223D19F
:10163000002619E0BDF81000296804EB810108803C
:10164000BDF81200304400B2296804EB81014880E3
:101650002868401C2860BDF91600BDF912108842A8
:1016600001DD761C00E0761EBDF91600BDF91210F2
:10167000401AB042DED1E9E0BDF91200BDF9161002
:10168000884223D1002619E0BDF81200296804EB36
:1016900081014880BDF81000304400B2296804EB95
:1016A000810108802868401C2860BDF91400BDF93C
:1016B0001010884201DD761C00E0761EBDF9140092
:1016C000BDF91010401AB042DED1BFE0BDF91410D0
:1016D000BDF91020881A1FF071FD8146BDF9161062
:1016E000BDF91220881A1FF069FD824649461FF095
:1016F00009FC80461FF066FBCDE9020121F00041A4
:10170000CDE90001AFF274300CC800981FF044F826
:1017100013D2BDF91410BDF91020881A1FF04EFD28
:101720008046BDF91610BDF91220881A1FF046FD3B
:10173000814641461FF0E6FB12E0BDF91610BDF9E7
:101740001220881A1FF03AFD8046BDF91410BDF929
:101750001020881A1FF032FD814641461FF0D2FB4F
:101760000746BDF91420BDF91030D01ABDF9162076
:10177000BDF91230D11A01D40B4600E04B420028CB
:1017800001DB024600E0424293422FDC002625E0C6
:10179000BDF81000304400B2296804EB81010880D4
:1017A00030461FF00BFD814639461FF067FD80462D
:1017B0001FF09EFCBDF81210084400B2296804EB2B
:1017C000810148802868401C2860BDF91400BDF9DB
:1017D0001010884201DD761C00E0761EBDF9140071
:1017E000BDF91010401AB042D2D12EE0002625E0FB
:1017F000BDF81200304400B2296804EB8101488032
:1018000030461FF0DBFC814639461FF037FD80462D
:101810001FF06EFCBDF81010084400B2296804EBFC
:10182000810108802868401C2860BDF91600BDF9B8
:101830001210884201DD761C00E0761EBDF916000C
:10184000BDF91210401AB042D2D100BF08B0BDE8B5
:10185000F0872DE9F84F04460D461646701E00EB42
:10186000D0714FEA6109A5EB09000090CA46A800B3
:101870000CF0CCFC8346AA002146584600F09BFDA4
:10188000B54205DB06EBD6714910B6EB410101D13B
:10189000BDE8F88F4F463CE0002004EB870108804C
:1018A00004EB87014880CAF100081BE004EB8700C5
:1018B000008807EB08010BEB81010988084400B29E
:1018C00004EB8701088004EB8700408807EB0801E0
:1018D0000BEB81014988084400B204EB8701488082
:1018E00008F10108D045E1DD04EB8700B0F9000004
:1018F00090FBF6F000B204EB8701088004EB870050
:10190000B0F9020090FBF6F000B204EB87014880CA
:101910007F1C00988742BFDB58460CF075FCB7E788
:101920002DE9FF4F91B004460D461E9E03278020EF
:1019300010900F9040200E900D9000200B900A9078
:101940008146802009900520049029462046049A6B
:10195000FFF77FFF4FF0010A29E004EB8A01B1F99C
:101960000010AAF1010204EB8202B2F90020881AE9
:1019700001D4014600E04142089104EB8A01B1F92B
:101980000210AAF1010204EB8202B2F90220881AC5
:1019900001D4014600E041420791DDE90710884289
:1019A00001DB089800E0079881440AF1010AAA4582
:1019B000D3DB4FEA89000CF029FC80464FEA89020C
:1019C000002140460CF024FC4FF0000A15E00AF11B
:1019D000010004EB8001042203A800F0ECFC04EBFE
:1019E0008A01042202A800F0E6FC0AAB4246DDE9C7
:1019F0000201FFF712FE0AF1010A681E5045E6D106
:101A00004FEA8900B0FBF7F003900CF0FFFB0C905D
:101A10004FEA8900B0FBF7F00246002103900C98D2
:101A20000CF0F6FB4FF0000A13E008EB8A00008888
:101A3000DDE90B2101EB8201088008EB8A00408878
:101A4000DDE90B2101EB820148800B98401C0B90D3
:101A5000BA44CA45E9DB40460CF0D6FB0B9B0E9A14
:101A6000CDE90023DDE90C03DDE90F12FFF74BFDA3
:101A70004FF400720021FD4800680CF0C9FBDDE95D
:101A80000D23CDE900230123F848DDE90B2100688F
:101A9000FFF795FA0C980CF0B7FBF4480999006829
:101AA000FEF7DDFE2823099ACDE900230123F04843
:101AB000F0490268F0480068FEF7F2FC149801282B
:101AC00006D0022809D003280CD0042814D10EE037
:101AD000002006900A20059012E00A20069024209B
:101AE00005900DE0242006903E20059008E000209F
:101AF00006903E20059003E0002015B0BDE8F08F71
:101B000000BF4FF4F8720021DC4800680CF080FB45
:101B10004FF0000A40E04FF0000B30E0069A5244CC
:101B200002EB8202D64B03EB421252F82B10D04A42
:101B3000126852F82B001FF077FC0290069A52446C
:101B400002EB8202CE4B03EB421252F82B10C84A32
:101B5000126852F82B001FF067FC019002991FF0E9
:101B60008DFB0390C548006850F83A1003981FF0A9
:101B700055F9C249096841F83A000BF1010BBBF174
:101B8000280FCBD150461FF019FBBC49096801EB67
:101B9000CA0148600AF1010ADDE90501401A504511
:101BA000B9D1DDE90501401A421E0021B3480068A1
:101BB000FEF718FC4FF0000A0EE0B049096801EB8F
:101BC000CA0148681FF094FA06990844AD49085CB8
:101BD00006F80A000AF1010A13988245EDDB00209D
:101BE00006F80A00307888E72DE9F84F04460D46DC
:101BF00016461F46DDF828804FF000094FF6FF7AA1
:101C0000D346012D02DCC846BDE8F88F4FF000092D
:101C10001CE004EB8900B0F9001009F1010004EBAD
:101C20008000B0F9000081420BD104EB8900B0F9CB
:101C3000021009F1010004EB8000B0F902008142BA
:101C400000D006E009F101001FFA80F9681E48453E
:101C5000DFDC00BF681E484500D1D5E74FF0000922
:101C600019E004EB8900B0F90000504504DA04EBF8
:101C7000890000881FFA80FA04EB8900B0F902009D
:101C8000584504DA04EB890040881FFA80FB09F10B
:101C900001001FFA80F9A945E3DB4FF0000915E0C8
:101CA00004EB89000088A0EB0A0000B204EB890174
:101CB000088004EB89004088A0EB0B0000B204EB25
:101CC0008901488009F101001FFA80F9A945E7DB85
:101CD0003B46324629462046CDF80080FFF720FEDD
:101CE00092E72DE9F84F4FF00009C3F80090012466
:101CF000EBE0A4F1010900EB8909B9F9005000EB10
:101D00008409B9F900A0CDF800A0A4F1010900EB05
:101D10008909B9F9026000EB8409B9F90270DDF8AC
:101D200000A0BAEB050901D4CA4601E0C9F1000AD6
:101D3000D446B7EB060901D4CA4601E0C9F1000A4E
:101D4000D646F44559DD4FF0000853E0DDF8009029
:101D5000A9450ADD05EB08090FFA89F9D3F800A0B7
:101D600002EB8A0AAAF8009009E0A5EB08090FFA2D
:101D700089F9D3F800A002EB8A0AAAF80090B742CA
:101D80001ADDD3F800A002EB8A0ABAF900A0BAEB78
:101D9000050901D4CA4601E0C9F1000A0AFB0EFA9E
:101DA0009AFBFCFAB2440FFA8AFAD3F800B002EBBD
:101DB0008B0BABF802A01AE0D3F800A002EB8A0A62
:101DC000BAF900A0BAEB050901D4CA4601E0C9F18D
:101DD000000A0AFB0EFA9AFBFCFAA6EB0A0A0FFAB3
:101DE0008AFAD3F800B002EB8B0BABF802A01B1DF4
:101DF00008F10108E045A9DB66E04FF0000861E06A
:101E0000B7420ADD06EB08090FFA89F9D3F800A0FA
:101E100002EB8A0AAAF8029009E0A6EB08090FFA79
:101E200089F9D3F800A002EB8A0AAAF80290DDF83B
:101E30000090A94528DDD3F800A002EB8A0ABAF980
:101E400002A0BAEB060901D4CA4601E0C9F1000AB2
:101E50000AFB0CFA9AFBFEFAAA440FFA8AFAD3F8A4
:101E600000B002EB8B0BABF800A028E004050020CB
:101E700010050020CC0103080C0500201C050020E3
:101E8000CC5103088C780308D3F800A002EB8A0A2F
:101E9000BAF902A0BAEB060901D4CA4601E0C9F1B9
:101EA000000A0AFB0CFA9AFBFEFAA5EB0A0A0FFAE3
:101EB0008AFAD3F800B002EB8B0BABF800A01B1D25
:101EC00008F10108F0459BDB641C8C42FFF611AF62
:101ED000BDE8F88F704753EA020C00F069802DE9E5
:101EE000F04B4FF00006002B1FBFB3FA83F503FA47
:101EF00005F424FA05F65E4012BF1643B2FA82F5E5
:101F000002FA05F4C5F120051EBF22FA05FC44EAD9
:101F10000C04203556EA044C4FEA144418BF641CE4
:101F20004FF000084FF00009904271EB030C39D3D9
:101F3000002919BFB1FA81F701FA07F6B0FA80F764
:101F400000FA07F6C7F120071EBF20FA07FC46EA91
:101F50000C062037B6FBF4FCA7EB0507103F07F093
:101F60001F0BCBF120060CFA0BFB2CFA06F644BF34
:101F7000B3460026202FA4BF5E464FF0000B5BEA5D
:101F8000060C08BF4FF0010B19EB0B09ABFB027CF1
:101F900048EB0608C01B06FB02CC0BFB03CC71EB25
:101FA0000C01C1E70B46024641464846BDE8F08BAE
:101FB00013B54FF000004FF00001AFF30080BDE813
:101FC0001C40704710B54C1084EA530404D54042BD
:101FD000C1F1000138BF491E1B4204D55242C3F172
:101FE000000338BF5B1EFFF776FF14F0804F04D06C
:101FF0004042C1F1000138BF491E14F0004F04D027
:102000005242C3F1000338BF5B1E10BD0FB4044938
:1020100010B503AA029800F0EFFA10BC5DF814FBAB
:10202000340000200FB41CB5074B06AA7B44694658
:102030000090059800F0B1FA0020694600F0C0FA5F
:102040001CBC5DF814FB00009105000070B504464F
:1020500085690068C10601D5302600E02026C0074A
:1020600007D070BDD4E9012130469047206A401C5A
:1020700020626D1EF6D570BD70B504468569007886
:10208000C00707D170BDD4E9012120209047206A04
:10209000401C20626D1EF6D570BD70B50C4605461D
:1020A000012A05D02878800600D5EA69002302E0DD
:1020B000012305E05B1C934202D2E05C0028F9D1C9
:1020C000A869E618C01AA861286A18442862284638
:1020D000FFF7BCFF04E0D5E9012114F8010B90479C
:1020E000B442F8D32846FFF7C7FF70BD2DE9F04191
:1020F0000646002410687529314616A510D0AFF3A6
:102100000080002802DA404213A507E031688A0700
:1021100001D512A502E0490704D511A5012401E06B
:10212000AFF3008000210A2206F1240709E0B0FB8A
:10213000F2FCB0FBF2F302FB1C003030785418467E
:10214000491C0028F3D123462A463046BDE8F04119
:1021500000F0C5B9000000002D0000002B000000B9
:102160002000000070B504460D4621461068AFF30C
:1021700000802188090502D50F4A7A4402E00E4A00
:102180007A440E32002104F1240305E000F00F062A
:102190000009965D5E54491C0028F7D12078002381
:1021A000000704D5702D02D009B102231132204658
:1021B000BDE8704000F093B94C5703002DE9F05F83
:1021C000894604464FF0000ADFF824B1FB44C0F80A
:1021D00020A02046E168884700287DD0252806D029
:1021E000D4E901219047206A401C2062F1E70025D4
:1021F0005F462046E16888472028064607DB312EE7
:1022000005D2B81910F8200C08B10543F1E7A8076A
:1022100001D525F00405C4F81CA00027C4F818A0B7
:102220002A2E09D030460BF03AFF38B304EB87086A
:10223000303EC8F8186019E059F8041B204604EB3A
:1022400087029161E1688847012F064618D1E0694D
:10225000002820DA25F020051DE0D8F8180000EB52
:10226000800006EB40003038C8F818002046E168CE
:10227000884706460BF013FF0028EED1012F0AD045
:102280002E2E08D12046E16888477F1C0646022F83
:1022900045F02005C4DBA069002803DA404245F080
:1022A0000105A061E80701D025F01005A6B1A6F14F
:1022B0004100192802D8203645F400654A463146C7
:1022C000204625604D46FDF78DFF60B1012807D0FF
:1022D000ED1D25F0070000E007E000F1080978E7B0
:1022E00005F1040975E730467AE7206ABDE8F09FFA
:1022F0002257030030B505460B462A4613F8014B1A
:1023000012F8010B08B1A042F8D01CB1002802D08D
:102310006D1CF1E7284630BD40EA0103024630B5A6
:102320009B0710D14FF0013400E008C208C91D1B03
:102330009D4315EAC41FF8D013F0FF0102F8011BFA
:102340000DD01B0AF8E711F8013B002B02F8013B06
:1023500005D011F8013B002B02F8013BF3D130BD51
:1023600010B5431C02E010F8011B71B18107FAD1CE
:102370004FF0013202C88C1A8C4314EAC211F9D012
:10238000C01A0A0603D0C01E10BDC01A10BD0A0430
:1023900001D0801E10BD0902FCD0401E10BD421E9F
:1023A00012F8013F002BFBD111F8013B002B02F882
:1023B000013BF9D17047032A40F2308010F0030C42
:1023C00000F0158011F8013BBCF1020F624498BF88
:1023D00011F801CB00F8013B38BF11F8013BA2F125
:1023E000040298BF00F801CB38BF00F8013B11F0A0
:1023F000030300F01381083AC0F0088051F8043B51
:10240000083A51F804CBA0E80810F5E7121D5CBFAC
:1024100051F8043B40F8043BAFF30080D20724BFDF
:1024200011F8013B11F801CB48BF11F8012B24BF73
:1024300000F8013B00F801CB48BF00F8012B7047C2
:102440004FF0013C50F8042B51F8043B9A4221D143
:10245000A2EB0C03934313EACC1317D150F8042BCF
:1024600051F8043B9A4215D1A2EB0C03934313EAB3
:10247000CC130BD150F8042B51F8043B9A4209D1EC
:10248000A2EB0C03934313EACC13DBD04FF0000014
:10249000704700BFD01A01BAB1FA81F101F01801FA
:1024A00022FA01F0CB40C1F12001DBB2C0B2C01A68
:1024B0002CFA01F3D11A914311EAC311E6D1704706
:1024C000704770477047704710B500F0D9F8006842
:1024D00010BD10B5044600F0D3F8046010BD2DE91E
:1024E000F0470D4699469246044600F124080168DB
:1024F000880604D5E06921F01001216000E0012088
:10250000A84201DD471B00E00027A1697A1902EB10
:102510000900081AA0612078C00602D42046FFF7FF
:1025200095FD002608E0D4E901211AF8060090473D
:10253000206A401C761C20624E45F4DB2078C006E1
:102540000AD52046FFF782FD06E0D4E901213020BC
:102550009047206A401C2062381EA7F10107F4DC76
:1025600007E0D4E9012118F805009047206A401CD3
:102570002062281EA5F10105F3DC2046FFF77CFD53
:102580002078000602D50220BDE8F0870120FBE795
:1025900001694A1C02610878704700B58FB0CDE927
:1025A00001310021059105497944CDE90310114617
:1025B0006846FFF703FE0FB000BD0000E5FFFFFF18
:1025C0000A6802F8010B0A60704710B5436913B13D
:1025D000AFF3008001E0FFF760FD012010BD12782D
:1025E00000F124010A7000224A700122EDE711680F
:1025F0004FF0FF32E9E70000074B70B50D467B4412
:10260000FFF7CBFF0446284600F03EF810B14FF02C
:10261000FF3070BD204670BDAF24010010B5203AD8
:10262000C0F00B80B1E81850203AA0E81850B1E88B
:102630001850A0E81850BFF4F5AF5FEA027C24BF41
:10264000B1E81850A0E8185044BF18C918C0BDE838
:1026500010405FEA827C24BF51F8043B40F8043B01
:1026600008BF7047D20728BF31F8023B48BF11F8B6
:10267000012B28BF20F8023B48BF00F8012B704710
:1026800000487047D8AC0020007B00F08000704705
:1026900000487047D8AC00207546FFF7F9FFAE46FA
:1026A00005006946534620F00700854618B020B55E
:1026B000FDF7C4FDBDE820404FF000064FF00007D5
:1026C0004FF000084FF0000B21F00701AC46ACE8DA
:1026D000C009ACE8C009ACE8C009ACE8C0098D4647
:1026E00070470446AFF300802046FDF793FD0029B4
:1026F000816802D041F0010101E021F00101816017
:10270000704700000D4910B5884202D101214415DF
:102710000AE00B49884202D10121041504E009496D
:1027200088420AD10121CC03204607F011FF204640
:10273000BDE81040002107F00BBF10BD0024014090
:1027400000280140003C01400146002089684907FB
:1027500000D501207047C06C80B27047024600204F
:1027600012680A4200D001207047014600208968A3
:10277000090700D50120704710B542680E4B0C794F
:102780001A400B6842EA04221343436082680B4BF1
:102790001A40D1E9024323434C7942EA44021343ED
:1027A0008360C26A097C22F47002491EC9B242EAFF
:1027B0000151C16210BD0000FFFEF0FFFDF7F1FF07
:1027C00070B5072609290AD9C568A1F10A0404EBE6
:1027D0004404A640B543A3401D43C56007E0056916
:1027E00001EB4104A640B543A3401D4305611F23EF
:1027F000072A09D2446B521E02EB820293409C438B
:1028000091400C43446370BD0D2A09D2046BD21F62
:1028100002EB820293409C4391400C43046370BDE1
:10282000C46A0D3A02EB820293409C4391400C43F0
:10283000C46270BD816841F0080181607047002961
:10284000816802D041F4A00101E021F4A00181607F
:102850007047816841F004018160704710B5FF2026
:1028600000F037F855280AD05521FF2000F077F8FE
:10287000FF2000F02EF8552801D0012010BD0020C7
:1028800010BD01F0D9BB70B515460E46044608E0F0
:102890002046641CA4B200F01CF86D1E06F8010B63
:1028A000ADB2002DF4D170BD2DE9F0410D460146C9
:1028B000002004464E1908E00702301B401E80B27B
:1028C00000F007F8641C3844E4B2AC42F4D3BDE82D
:1028D000F08110B5044601F053FC200AA02101EB61
:1028E0004000C0B201F01CFC01F08CFCE0B201F031
:1028F00017FC01F087FC01F043FCA12001F010FC63
:1029000001F080FC002001F0D5FB044601F058FCEA
:10291000204610BD70B514460D46064606E02978DF
:10292000304600F01CF8761CB6B26D1C641EA4B2D2
:10293000F5D270BD2DE9F04116460D46074600243C
:1029400009E0E00025FA00F0C1B2381980B200F0C9
:1029500006F8641CE4B2B442F3D3BDE8F08170B56C
:102960000D46044601F00CFC200AA02101EB4000BA
:10297000C0B201F0D5FB01F045FCE0B201F0D0FBA4
:1029800001F040FC284601F0CBFB01F03BFC01F0DC
:1029900017FCBDE8704042F210700EF0C3BD00009D
:1029A00030B587B001214FF4017007F0C5FD4FF439
:1029B000004007F0ABFD0220ADF8140000248DF8B4
:1029C000174005A9164800F08BFF164D2846FFF763
:1029D00099FE4FF46020CDE9020401208DF80440F7
:1029E0008DF8100000948DF8054069462846FFF7E1
:1029F000C3FE01212846FFF77AFE2846FFF71AFF9B
:102A00002846FFF7B2FE0028FAD12846FFF721FF3B
:102A10002846FFF799FE0028FAD107B030BD000024
:102A2000000801400024014010B5012007F09CFD82
:102A3000BDE81040002007F097BD000008B502492E
:102A400008440090008808BD006C004008B5024AA8
:102A500010440090016008BD006C004010B578B1D2
:102A60004FF48054012805D002280FD110210120F5
:102A700009F01CFA2146BDE81040022009F0CEB949
:102A80001021BDE81040012009F010BA10BDC1B2FC
:102A9000000A40EA0120704710B5604B0020604CEE
:102AA000598803E05A68125C2254401C8842F9D3CA
:102AB0005B48626820301F294260A268826007D0AC
:102AC0000220FFF7CBFF00202060607B1A2221E06C
:102AD000E17B282901D02A290AD1D4F81100227DCE
:102AE00000BA20F0FF0010439860E08A40BAD86036
:102AF0004C4A2068904252D14B4A607B1268904207
:102B000003D8A27B0AB1102A0DD90220FFF7A6FF35
:102B1000607B2422052109F063FA0021BDE8104002
:102B2000012009F03DBA252958D01ADC152971D0A9
:102B30000DDC08296ED005DCB9B3032936D0042991
:102B40002DD163E00A2965D0122928D132E01A3943
:102B50000A2924D2DFE801F03632235E3223232310
:102B6000233E8A2956D00EDC552953D006DC28296D
:102B70003CD02A2940D02F2911D143E05A2925D011
:102B800088290CD146E0A82944D004DC8F2941D003
:102B90009E2904D13EE0AA293CD0AF293AD0022098
:102BA000FFF75CFF607B2022B4E71BE0BDE810402C
:102BB00008F0E4BBBDE8104008F0FEBABDE81040E4
:102BC00008F0E8BBBDE8104008F030BBBDE810409D
:102BD00008F026BBBDE8104008F09ABBBDE81040E5
:102BE00008F05EBBBDE8104008F0D8BBD3E9021284
:102BF000BDE8104008F020BBD3E90212BDE8104048
:102C000008F002BCBDE8104008F0E4BBBDE810408D
:102C100008F0BABABDE8104008F0E8BAF80300209E
:102C200080AC002055534243600400202DE9F84F4A
:102C30000020ADF800004BF6BF7648F280084A4D00
:102C40004A4C40F68F7ADFF8289148F60F7B494FBF
:102C50002FE0088810F00F0089F8000032D007EB51
:102C60008001D1F8002CADF80020BDF8002012043E
:102C70000BD5D1F8002C02EA0A02C1F8002C3E491B
:102C800001EB800050F8040C8047BDF800000006FE
:102C90000FD599F8000007EB8001D1F8002C02EA6B
:102CA0000B02C1F8002C354901EB800050F8040CF0
:102CB00080472D4844300068314908800004C8D45A
:102CC000BDE8F88F28682080208800F03000608000
:102CD000208800F4405020802868304080F4005064
:102CE00080F0200040EA080028600888C00617D459
:102CF000296801EA0B01296001F0B0FA28E0218877
:102D0000890401D580F400506188C90628D46188FF
:102D1000890601D580F0200040EA08002860CFE74E
:102D20002868ADF80000BDF80000000506D5296848
:102D300001EA0A01296009F065F909E0BDF800001F
:102D40000004B6D5286800EA0A00286007F070FB86
:102D5000286821883040C904D1D580F48050CEE75E
:102D600080F01000D3E70000005C00402A03002040
:102D700018030020005000404404002028040020D4
:102D80002404002070B50D4C0025C4F880510C4877
:102D9000016821F470410160016841F44051016013
:102DA000C4F88C510A2004F5C0740EF0BBFB01205E
:102DB00020600A200EF0B6FB256070BD00002242A4
:102DC000001001400C48816941F0100181610B48FD
:102DD00001684FF20F0291430160016843F2030260
:102DE00011430160C16841F00201C160C16841F056
:102DF0000801C1607047000000100240001001404F
:102E000070B50D4C0026C4F880610C48016821F4AF
:102E100070410160016841F4405101600125C4F82E
:102E20008C510A2004F5C0740EF07CFB25600A204A
:102E30000EF078FB266070BD0000224200100140B9
:102E40002DE9F047814616480024016821F47041BD
:102E50000160016841F400410160124E2546274699
:102E60004FF00108C6F880711E200EF05BFBC6F81B
:102E700080816006040ED6F80C0108B1641CE4B22F
:102E80006D1CEDB2082DEDD3B9F1000F04D0FFF7A2
:102E900079FF2046BDE8F087FFF7B2FFF9E70000B1
:102EA00000100140000022422DE9F0410546124881
:102EB000016821F470410160016841F440510160F2
:102EC0000E4E0027C6F880713C464FF00108E80915
:102ED000C6F88C016806050EC6F880810A200EF03F
:102EE00021FBC6F880710A200EF01CFB641CE4B2C2
:102EF000082CECD3BDE8F081001001400000224214
:102F000070B50D48016821F470410160016841F419
:102F100040510160094C0120C4F88C01C4F88001C3
:102F20000A2004F5C0740EF0FDFA0025E5600A20C1
:102F30000EF0F8FA256070BD00100140000022423A
:102F400070B50D48016821F470410160016841F4D9
:102F500040510160094C0020C4F88001C4F88C0184
:102F60000A2004F5C0740EF0DDFA012525600A2060
:102F70000EF0D8FAE56070BD00100140000022425A
:102F800070B513480024016821F4704101600168A4
:102F900041F4004101600F4D0126C5F88C613046B7
:102FA0000EF0C0FAC5F8806101200EF0BBFA07E010
:102FB000641CE4B2FA2C03D9FFF7C2FF012070BDF4
:102FC000D5F80C010028F3D1C5F8800170BD0000D0
:102FD0000010014000002242810008480844D0F857
:102FE000001C490409D5D0F8001C48F68F72114026
:102FF0004CF280021143C0F8001C704700500040A2
:10300000810008480844D0F8001C490609D5D0F8CA
:10301000001C48F68F72114048F2C0021143C0F8FC
:10302000001C704700500040810006480844D0F85A
:10303000001C48F68F62114048F280021143C0F82C
:10304000001C70470050004070B51648002401680D
:1030500021F00F010160016841F008010160124D8B
:1030600004E0641CE4B201200EF05CFAD5F8000123
:1030700010B1C82CF5D30DE0C82C0BD2002404E00D
:10308000641CE4B201200EF04DFAD5F8000118B12D
:10309000F02C04D3012070BDF02CF1D3FAE700200E
:1030A00070BD0000000801400000214270B500F032
:1030B000A9F800F087F8FFF7C7FFCC2000F0B0F8C0
:1030C000BE2000F0ADF800F06DF8044600F06AF89C
:1030D000072805D9C043E143C0B2CCB2002500E0C7
:1030E000012504EB002000B21DF02BFB0022054B54
:1030F0001DF08EFB1DF0C8FA00B2002D01D1404238
:1031000000B270BD0000E43F38B50121042007F093
:1031100013FA0120ADF8000010208DF80300032001
:10312000074C8DF802006946204600F0D9FB0121CA
:10313000204600F051FC00F045F8FFF785FF38BD50
:103140000008014070B5154C206820F00F00206089
:10315000206840F003002060114D0020C5F8800178
:10316000022005F5C0750EF0DDF901202860206809
:1031700020F00F002060206840F0080020600C2044
:103180000EF0D0F955F8800C08B1012400E00024BD
:1031900032200EF0C7F9204670BD00000008014043
:1031A0000000214270B500250124FFF7CBFFC001CC
:1031B000641C40EA5500E4B2C5B2082CF5D9284693
:1031C00070BD00000D4810B5016821F00F010160CD
:1031D000016841F003010160094C0020C4F880013E
:1031E00040F2EE2004F5C0740EF09CF9012020603E
:1031F000BDE810400F200EF095B900000008014016
:103200000000214210B5FFF7DDFFFFF71DFFCC20C6
:1032100000F006F8BDE81040442000F001B80000BE
:103220002DE9F04105461448016821F00F010160C5
:10323000016841F0030101600124104E0027A046FF
:1032400015F0010F4FEA5505C6F8807106D002202F
:103250000EF068F9C6F880813C2005E03C200EF0B5
:1032600061F9C6F8808102200EF05CF9641CE4B2BA
:10327000082CE5D9BDE8F08100080140000021429A
:103280002DE9F047DFF89490254F4FF03008D9F83A
:10329000001001F11005088A0E7A08B9042E04D036
:1032A000AC88A04215D8042614E01E4801780129F4
:1032B00003D00726102038802BE01B4A002112681B
:1032C0001A4B120403EBD2325160A7F80080017050
:1032D0001FE00226844200D90446A9682046884798
:1032E0008246002000F04EFD0146224650460AF07C
:1032F000D7FA2146002008F0CBFD2888001B288043
:10330000688820446880A7F8008009494FF440503D
:103310000880D9F800000672BDE8F0871C03002081
:103320002C03002014030020505C0040006000408B
:103330002A0300202DE9F047224EDFF88C80302749
:10334000346834F8100FA168A9B100B3A58885428C
:1033500000D905462846884781462088401B2080A2
:10336000608828446080002000F0E0FC01462A4686
:10337000484607F081F8208848B114494FF440507E
:1033800008800021084608F083FDA8F80070208816
:10339000A188884201D3032001E020B105203168D3
:1033A0000872BDE8F08731680620087208490020DD
:1033B0000968084A090402EBD1314860A8F8007096
:1033C000EFE700001C0300202C0300202A0300204C
:1033D000505C004000600040F8B55D4C5D4D092632
:1033E0002068002729684278062A05D0AAB1082A51
:1033F0004DD00A2A50D06BE00278520668D180780E
:10340000012804D0022804D0032804D060E0C96950
:1034100056E0096A54E0496A52E04288B2BBC28869
:10342000022A55D102798ABB0278530601D18388DA
:1034300033B102F07F02012A04D0022A0CD047E007
:1034400045493DE08A69407900219047F0B92068FC
:10345000807A0028F4D13BE0417901F00F0001F0BF
:1034600070020B063D4901EB8001D1F8001C03D529
:10347000C1F30111090102E0C1F301310903384B25
:103480001B78834224D90AB90029D9D120E00078D9
:1034900040061DD1334913E0027802F07F02012A71
:1034A00016D1827AA2B1428892B9027982B9C288D1
:1034B000012A0DD18A6940790021904740B92A49F3
:1034C00031B120684782816100208847002006E0F2
:1034D00029682068096940788847032813D0216843
:1034E0000A8AA2F57F43FF3B0BD002280ED06AB1B7
:1034F0000878000626D5C888009082420AD908823A
:1035000018E00E72F8BD20680672F8BD4FF0080092
:103510000872F8BD0ED22868144B90F82C00824235
:1035200001D21F7006E0B2FBF0F400FB142008B9D2
:1035300001201870286890F82C008882BDE8F840B7
:10354000FFF79EBE03200872094900030880F8BDFA
:103550001C0300202003002029C300080050004065
:10356000CC040020BDC2000801C3000814030020E1
:103570002A03002005F00ABE05F046BE0149086096
:10358000704700001404014030B51A4A837901687D
:1035900053B313688B431360111D0B680468A34376
:1035A0000B60017911440B68046823430B60114BD5
:1035B000083319680468A14319601C1D2168056857
:1035C000A94321604179102905D011440A68006897
:1035D00002430A6030BD196802681143196021680E
:1035E00000680143216030BD0079104402688A43BD
:1035F000026030BD0004014010B503A0FEF706FDD7
:1036000008490320086010BD75736220656E7465FB
:1036100072206C6F7720706F776572206D6F6465B4
:103620000D0A0000F40400207CB50121102006F0F2
:1036300083FF4FF40054ADF8044010208DF80700CC
:1036400003202D4D8DF8060001A9284600F048F909
:103650002146284600F0C0F90221ADF804104821A7
:103660008DF8071001A9284600F03AF902212846F2
:1036700000F0B2F9FFF7A6FB204D0024C5F8B441D5
:10368000142005F5DA750DF02BFF0120286032209B
:103690000DF026FF8DF8004001226946002000F061
:1036A000FBF801226946A42000F0F6F816208DF8F8
:1036B000000001226946802000F0EEF80C208DF811
:1036C000000001226946882000F0E6F802226946DF
:1036D000A12000F01BF89DF80000302803D19DF8D0
:1036E0000100032801D001207CBD43F2030104A0A6
:1036F000FEF78CFC00207CBD00100140000022423F
:103700004354502049443A25780D0A002DE9F041F0
:1037100015460F460446FFF7F3FB7020FFF7C4FB86
:10372000FFF72EFCE0B2FFF7BFFBFFF729FCFFF726
:10373000E7FB7120FFF7B8FBFFF722FC00246E1EA9
:1037400009E0B44201D0012000E00020FFF778FB3F
:103750003855641CE4B2AC42F3D3BDE8F041FFF746
:10376000EFBB00002DE9F143484F00244FF00A0958
:10377000387882B0401CC0B2B0FBF9F209FB1201EC
:10378000434DA046387009B10A2863D2012202A92C
:103790000220FFF7BBFF9DF8080001075AD000F098
:1037A0000F00062856D2FF218140C84340F0C000D8
:1037B00085F820004FF00108002695F8201008FA3F
:1037C00004F0014239D033480422694630F814002D
:1037D000FFF79CFF95F830009DF80010C0079DF89A
:1037E000010001F00F010ED000EB012105EB4400B8
:1037F000C1829DF802209DF8031002F00F0201EB38
:10380000022181810FE000EB0120C0F5F07105EB92
:10381000440081819DF802209DF8031002F00F0200
:1038200001EB0221C1829DF800000821B1EB101FBD
:1038300003D005EB4400C6828681641CE4B2052CEB
:10384000BBD3A9894FF0010819B9E88A08B98DF8E6
:1038500008603E709DF80800C0060ED195F8200063
:10386000010602D520F0800005E04FF6FF71A98126
:10387000E98200F0E00085F820003878F02801D9CE
:1038800087F800904046BDE8FE83000092000020CB
:1038900050000020082F02082DE9F04115460E4681
:1038A00004460027FFF72CFB7020FFF7FDFAFFF717
:1038B00067FBE0B2FFF7F8FAFFF762FB002408E0CD
:1038C000305DFFF7F1FAFFF75BFB070003D1641CE3
:1038D000E4B2AC42F4D3FFF733FB3846BDE8F081E5
:1038E000F0B5CC78002204F00F03E40601D58C7803
:1038F00023430C784FF00F0C14F0FF0F4FF0010E24
:103900001BD005680E880EFA02F42640A64210D19C
:1039100096000CFA06F725EA070703FA06F5CE78B3
:103920003D43282E02D0482E02D002E0446100E040
:103930000461521C082AE5D305600A88FF2A1CD9B5
:103940004468002202F108060EFA06F50E882E40A1
:10395000AE420ED196000CFA06F7BC4303FA06F706
:10396000CE783C43282E00D14561CE78482E00D138
:103970000561521C082AE5D34460F0BDF0B5144C33
:10398000002801DAE36900E06368450D2E0185B285
:10399000C0F30157B540C0F30342032F05D0C60260
:1039A0000AD503269640B34307E023F070626368AC
:1039B00023F07063636002E0AB4343F0706201B1D7
:1039C0002A43002801DAE261F0BD6260F0BD000028
:1039D000000001404161704701617047FEB501215F
:1039E000102006F0A9FD42F20200ADF808001020F8
:1039F0008DF80B000320334E8DF80A0002A93046E3
:103A0000FFF76EFF02213046FFF7E6FF71143046E4
:103A1000FFF7E2FFFFF7D6F92B4D0024C5F8B441BC
:103A20000A2005F5DA750DF05BFD012028600A20FB
:103A30000DF056FD0225ADF8085028208DF80B003A
:103A400002A93046FFF74CFF02213046FFF7C2FFC4
:103A500064200DF045FD0422694648F2401000F054
:103A600049F88DF80440694618A0FEF7CFFA1AA16C
:103A70006846FEF7E5FC08B10120FEBD8DF8005058
:103A800048F2400501226946284600F025F9012246
:103A90006946E81D00F02EF89DF80010602905D257
:103AA0000FA0FEF7B3FA012000F0F0F80A200DF0A5
:103AB00017FD8DF8004001226946284600F00CF9F8
:103AC0000020FEBD0010014000002242435450205F
:103AD00049443A25730D0A0039313437000000009B
:103AE00044656661756C74205665723A25640D0AEA
:103AF000000000002DE9F04115460F460446FFF78F
:103B0000FFF92820FFF7D0F9FFF73AFA200AFFF76C
:103B1000CBF9FFF735FAE0B2FFF7C6F9FFF730FA55
:103B2000FFF7EEF92920FFF7BFF9FFF729FA002484
:103B30006E1E09E0B44201D0012000E00020FFF732
:103B40007FF93855641CE4B2AC42F3D3BDE8F041D0
:103B5000FFF7F6B92DE9F147494E00244FF00A0965
:103B6000307883B0401CC0B2B0FBF9F209FB1201FF
:103B7000444DA046307009B10A2863D248F24E1A6B
:103B8000012203A95046FFF7B5FF9DF80C004FF046
:103B90000007010747D000F00F01062943D2FF209C
:103BA00088408DF80400C04340F0C00085F8200034
:103BB0004FF0010895F8201008FA04F0014225D0D2
:103BC00031480422694630F81400FFF793FF95F856
:103BD00030009DF80110C0079DF8000000EB0121A6
:103BE00005EB44000AD0C1829DF802109DF8032025
:103BF00001EB0221C1F54871818107E081819DF8C7
:103C000002109DF8032001EB0221C182641CE4B282
:103C1000052CCFD3A9894FF0010819B9E88A08B952
:103C20008DF80C7037709DF80C0001060AD500F075
:103C30000F00062806D28DF80470012201A9504613
:103C400000F04AF89DF80C0000F08F0080280ED19B
:103C500095F82000010602D520F0800005E04FF61F
:103C6000FF71A981E98200F0E00085F8200030783A
:103C7000F02801D986F8009004B04046BDE8F087EE
:103C80009100002050000020FE2E020808B50021FF
:103C90008DF800108DF801000E489DF80020435C5F
:103CA000491C1A44C9B28DF80020B829F5D3D0B206
:103CB000C043401C8DF80000B822064948F2470076
:103CC00000F00AF80222694648F2FF0000F004F80A
:103CD000002008BD462E02082DE9F04115460E468B
:103CE00004460027FFF70CF92820FFF7DDF8FFF75F
:103CF00047F9200AFFF7D8F8FFF742F9E0B2FFF7DB
:103D0000D3F8FFF73DF9002408E0305DFFF7CCF869
:103D1000FFF736F9070003D1641CE4B2AC42F4D3D8
:103D2000FFF70EF93846BDE8F08100000549096843
:103D300089B201EBC000044901EB4000008980B268
:103D400070470000505C0040006000400549096871
:103D500089B201EBC000044901EB40008089C0F347
:103D600009007047505C004000600040044901EBCE
:103D70008000D0F8000CC0F3013000037047000051
:103D8000005000400449096889B201EBC0000349B2
:103D900031F8100080B27047505C00400060004075
:103DA00010B50B4C0146072301222046FEF708FD03
:103DB00001212046FEF743FD02212046FEF7CEFCFE
:103DC0000028F9D02046BDE81040FEF7C4BC000032
:103DD000002401402DE9F041154602460C466807D3
:103DE00000D0012000EBD5006843C1B210785378B1
:103DF000812809D3402B07D3FF2B05D0FF2803D000
:103E00007F2B0CD2403B0BE00022104603E0521CFB
:103E100004F8010BD2B28A42F9D3BDE8F081413BEC
:103E20008138DAB2C0B2C0EB401303EB801002EB72
:103E300040064E43FCF714FA07460F480C2D04D0F9
:103E4000102D07D0182D0CD110E0D0F809008119E1
:103E5000182203E0D0F8110081192022204607F033
:103E600057FE3846BDE8F041FCF7FEB9D0F819001E
:103E700081194822F2E70000C8A2002008B10448D6
:103E8000704704490120096808820020704700003B
:103E9000600400201C0300200A4810B50168001DC2
:103EA0000468001D006808180BD00822064900F0BD
:103EB00003FA054920460422BDE81040103100F005
:103EC000FBB910BDE8F7FF1F0A04002070B50025FC
:103ED0002C461020FFF764FF284485B201200DF026
:103EE000FFFA641CE4B2142CF3D31420B5FBF0F0F9
:103EF0001CF03EFC4FF066320D4B1CF089FC1CF0B0
:103F00007DF91CF05FFF0B4A0B4B1CF07FFD0B4A49
:103F10000B4B1CF061FA00220A4B1CF0A1F91CF0BB
:103F20006DF909491DF0AAF9BDE870401DF0E0B82F
:103F300066664A3FE17A14AE47E1F63F22FDF67528
:103F4000E09C713F000039400000204110B51A4844
:103F50000024016819A0FEF759F81748001D0168F0
:103F600019A0FEF753F814480830016819A0FEF7AD
:103F70004DF811481430016819A0FEF747F81B49A5
:103F8000D1F8880198B10020C1F88801184A194970
:103F9000641CD2F8A001E4B258B10020C2F8A0011C
:103FA0000020401C8842FCD3052CF1D310BD012019
:103FB000EAE70120F2E7000028ED00E04346535213
:103FC0003A2538580D0A0000484653523A253858C9
:103FD0000D0A0000444653523A2538580D0A000095
:103FE000414653523A2538580D0A000000802242BB
:103FF00000002142FFFF1F0070B50D4C0025C4F8E2
:10400000B0510C48416821F470414160416841F46D
:1040100040514160C4F8AC51022004F5D6740DF053
:1040200081FA0120606002200DF07CFA656070BDAD
:10403000000022420010014008B50121102006F0C6
:104040007BFA4FF4C050ADF8000010208DF803004B
:1040500003208DF8020069460448FFF741FC04483C
:104060000121C0F8B011C0F8AC1108BD001001402A
:104070000000224270B50D4C0026C4F8B0610C4817
:10408000416821F470414160416841F44051416010
:104090000125C4F8AC51022004F5D6740DF042FAA3
:1040A000656002200DF03EFA666070BD000022429D
:1040B000001001402DE9F04781461748002441686F
:1040C00021F470414160416841F400414160134E68
:1040D000254627464FF00108C6F8B07102200DF0C2
:1040E00021FAC6F8B0816006040ED6F82C0108B19A
:1040F000641CE4B201200DF015FA6D1CEDB2082D20
:10410000EAD3B9F1000F04D0FFF776FF2046BDE8EF
:10411000F087FFF7AFFFF9E70010014000002242EF
:104120002DE9F04105461448416821F47041416091
:10413000416841F440514160104E0027C6F8B0710B
:104140003C464FF00108E809C6F8AC016806050EC8
:1041500002200DF0E7F9C6F8B08102200DF0E2F977
:10416000C6F8B07102200DF0DDF9641CE4B2082C31
:10417000E9D3BDE8F08100000010014000002242B8
:1041800070B50D48416821F470414160416841F4C7
:1041900040514160094C0120C4F8AC01C4F8B001A1
:1041A000042004F5D6740DF0BDF900252560042027
:1041B0000DF0B8F9656070BD0010014000002242AA
:1041C0000E4810B5416821F470414160416841F4E6
:1041D000405141600A4C0020C4F8B001C4F8AC0161
:1041E000042004F5D6740DF09DF901206060206074
:1041F000BDE8104004200DF095B90000001001400A
:104200000000224270B513480024416821F4704137
:104210004160416841F4004141600F4D0126C5F8FD
:10422000AC6130460DF07EF9C5F8B06101200DF0AB
:1042300079F907E0641CE4B2FA2C03D9FFF7C0FF58
:10424000012070BDD5F82C010028F3D1C5F8B001CC
:1042500070BD0000001001400000224210B5134C58
:104260002068017A022904D0042902D0062905D049
:1042700015E0FFF705F82068007A11E0417805297C
:1042800009D10178490606D1C07807F073FD0848C6
:104290000068006A804707480068806880470820F7
:1042A00021680872BDE8104006F0FCB81C0300202D
:1042B0002403002020030020F0B500230A24302529
:1042C00037261F4610E0B4EB107F02D905EB107CB7
:1042D00001E006EB107C01F813C001EB430C000178
:1042E0005B1C8CF80170DBB29342ECD3F0BD81070C
:1042F0000CD16421B0FBF1F201FB120141B94FF482
:10430000C871B0FBF1F201FB120008B10020704748
:104310000120704770B50D4C0D4D607810B1D5F887
:10432000140120B1D5F8140101280AD00BE00A20AD
:104330000DF0D6F800206070D5F8140118B90120EE
:1043400070BD01206070002070BD000038000020AA
:104350000000224238B50121142006F0EDF80121B9
:104360001148FFF70BFB4FF40040ADF800000F4D74
:1043700048248DF8034069462846FFF7B1FA20210A
:10438000ADF800108DF8034069460948FFF7A8FA18
:104390000120ADF8000028208DF80300694628466A
:1043A000FFF79EFA38BD000000023000000801400F
:1043B0000010014070B51C4C1C4E1D4D012108B170
:1043C000217001E0207848B1D6F8140158B1D5F831
:1043D0003C0140B1D5F80001012804D0D6F8140101
:1043E000012816D01DE00A200DF07AF80020207078
:1043F000D6F8140138B1D5F83C0130B1D5F8000138
:10440000012804D00DE0012070BD022070BD032002
:1044100070BDD5F83C01012803D1D5F8000100B9E1
:104420002170002070BD00003800002000002242F2
:1044300000002142C0F34511C20AC00200EB411046
:10444000104480B2704700002DE9F0431C4F06462F
:10445000002438887D884543B888A0F5D0410439C8
:1044600002D1B87901280CD00021084604F006FAE0
:1044700004F0E0FC13494FF480774B15124A80207A
:104480001AE00020B8714FF02A08A7F80A804FF010
:104490002B09A7F80C90014604F0F0F90120B8713F
:1044A000A7F80A90A7F80C80E2E70F614B6116604D
:1044B000486108610B61641CAC42F6D3BDE8F0832F
:1044C000E80D0020001001400C0C01402DE9F04FD8
:1044D0008346A2EB0B00401C894685B2A3EB090082
:1044E000401C1FFA80FA0024099E21E009EB040019
:1044F00081B2584604F0C2F904F09CFC0E49002039
:104500004B154FF480780D4A80270DE0C1F81080DC
:104510004B6104FB050C36F81CC0C2F800C04F61AB
:104520000F610B61401C80B2A842EFD3641CA4B29F
:104530005445DBD3BDE8F08F001001400C0C014066
:104540002DE9F04F4A492A232B24898845F2105A35
:104550004FF4305B4FF4285E4FF448754FF0F00C89
:1045600049F241394FF4A07745F210364FF4F0721A
:1045700080B13F484FF00108494580F80680078028
:10458000A0F802C001D0B1423ED12C250581438163
:10459000848157E036484FF00008494580F806808E
:1045A000A0F800C0478006D0A1F5D04CBCF1040CA7
:1045B00001D0B1420CD12C2505814381A1F5D04316
:1045C0008481043B01D0B14244D10780428041E064
:1045D000514507D1A0F808B0A0F80AE04FF42C51DB
:1045E00081810EE0A1F5C856633E06D022210181EB
:1045F00020214181212181812CE02C2101814481D4
:1046000083810280458025E0A1F5D04CBCF1040CEB
:1046100009D051450BD1A0F808B0A0F80AE04FF43A
:104620002C53838121E02C250581448109E0A1F5EB
:10463000C85CBCF1630C12D0222303812123438187
:1046400020238381A1F5D043043B01D0B14201D1A5
:1046500002804780BDE8F04F002003F095BF4FF087
:104660002C0CA0F808C04381848105804280E9E7D2
:10467000E80D00202DE9FE4F0026A2EB000882463F
:104680005F1A701E35468946B8F1000F02DD4FF003
:10469000010102E003D14FF00001019102E0C8F1F5
:1046A00000080190002F02DD4FF0010002E003D16D
:1046B0004FF00000009002E0C7F100070090404674
:1046C000B84501DD044600E03C46601C4FF0000B9D
:1046D000029015E01FFA89F11FFA8AF000F016F82F
:1046E00046443D44A64202DD0199361B8A44A54258
:1046F00002DD00992D1B89440BF101001FFA80FB9C
:1047000002998B45E6DDBDE8FE8F000000B504F0A0
:10471000B5F804F08FFB07484FF480710161411533
:104720004161054A054B12881A608022426102618C
:10473000016100BD001001403E0000200C0C014052
:104740002DE9FC4F80460024154603200F46A0EBC0
:10475000450649E0781B81B208EB040A01901FFA74
:104760008AF0FFF7D3FF381B81B208EB05090090F0
:104770001FFA89F0FFF7CAFF07EB040B1FFA8BF152
:104780001FFA89F0FFF7C2FF07EB05091FFA89F14D
:104790001FFA8AF0FFF7BAFFA8EB040A1FFA89F1A3
:1047A0001FFA8AF0FFF7B2FFA8EB05091FFA8BF199
:1047B0001FFA89F0FFF7AAFF019881B21FFA8AF069
:1047C000FFF7A4FF009881B21FFA89F0FFF79EFF60
:1047D000641C002E03DA06EB8406B61D04E0601BA1
:1047E00006EB80066D1E0A36AC42B3DDBDE8FC8FD9
:1047F0002DE9F74F05468F4881B0DFF83CA281884C
:1048000002982F0A00F0FF094FEA1028E8B2009042
:104810008848A1F513424FF4807B40894FF400761D
:10482000413A17D0834CA1F5A642103A12D0B2F506
:10483000007236D02246A1F5C85793791288521BD0
:10484000521E633F63D0A1F5D047043F7ED0012BB9
:104850007DD0D1E004F0DCFA784CC4F810B0666189
:10486000CAF800708025656125612661C4F810B022
:1048700066610098CAF800006561256126616D488F
:10488000808904F0C5FAC4F810B066615146CAF8D0
:104890000080656125612661C4F810B066614846F4
:1048A00031E004F0B5FA654CC4F810B06661CAF89E
:1048B000007080256561256126615E484089401C45
:1048C00080B204F0A5FAC4F810B066610098CAF886
:1048D00000006561256126615648808904F098FAD8
:1048E000C4F810B06661CAF8008065612561266170
:1048F00050488089401C80B204F08AFAC4F810B095
:1049000066614846514608606561256171E003B9FA
:1049100095B204F07DFA494CC4F810B06661280ADB
:10492000CAF800008027676127612661C4F810B0CB
:104930006661E9B2CAF80010676127612661C4F8B0
:1049400010B06661CAF80000676101E024E052E03F
:1049500027612661C4F810B06661CAF8001067616B
:10496000276126613348808904F052FAC4F810B0F8
:1049700066615146CAF80080676127612661C4F804
:1049800010B06661CAF80090676127612661C4F8BB
:1049900010B06661404621E0012B00D195B204F0D1
:1049A00037FA264CC4F810B06661290ACAF800101C
:1049B0008027676127612661C4F810B06661E9B29B
:1049C000CAF800106761276126611A48808904F0DF
:1049D0001FFAC4F810B0666140465146086067612E
:1049E00027612661C4F810B06661C1F80090676164
:1049F0002761266107E095B2294604F021FAA089D3
:104A0000029904F01DFA0D48C0F814B04661094936
:104A10000989CAF800108021416101610661C0F86E
:104A200010B04661039BCAF8003041610161066124
:104A3000BDE8FF8FE80D00200C0C01400010014084
:104A40002DE9F84F264D81469846A8880A9EA0F584
:104A5000D043043B02D1A87901280AD0A2EB090077
:104A6000401C85B20C461F4F4FF4007A4FF0800B6C
:104A700032E02B880846991A0024AC712A24A3EB53
:104A800009036C812B27491E5B1EAF8189B2424608
:104A90009BB20096FFF7D4FF0120A8716F81AC8113
:104AA000BDE8F88F2146484603F0E8FE04F0C2F95D
:104AB00000204FF4807C53460B4A594608E0C7F863
:104AC00010C07B611660796139613B61401C80B226
:104AD000A842F4D3641CA4B24445E3D9E0E7000043
:104AE000E80D0020001001400C0C01402DE9F84FAA
:104AF0000121192005F020FD0121FE48FEF73EFFAF
:104B00004FF4F864ADF8004010208DF80300DFF892
:104B1000E88303208DF80200694645464046FEF7CB
:104B2000DFFE21462846FEF757FFF44D4FF6FF748F
:104B3000ADF8004069462846FEF7D2FE21462846D9
:104B4000FEF74AFF32200CF0CBFC0121002004F0DC
:104B500077F932200CF0C4FC002003F0BFFCE84CD5
:104B600049F2413746F60409A08045F2103A45F271
:104B70001055FF2806D3A0F57F41FF3902D0B0F5CC
:104B8000134F70D1D32004F043F903F0A7FB03F0D7
:104B9000A5FB03F0A3FB4FF6FF7606EA0020A080FA
:104BA00003F09CFBA1880843A080B8425BD0BF20E3
:104BB00004F02EF903F092FB03F090FB03F08EFB60
:104BC00003F08CFB06EA0020A08003F087FBA1889D
:104BD0000843A080484546D0D42004F019F903F0DA
:104BE0007DFB03F07BFB03F079FB06EA0020A0804D
:104BF00003F074FBA1880843A080504533D04FF4E4
:104C00005A4004F005F903F069FB4FF45B4004F0EF
:104C1000FFF803F063FB06EA0020A0804FF45C403D
:104C200004F0F6F803F05AFBA1880843A080B0F521
:104C3000004F7DD0A84216D0A12004F0E9F803F07F
:104C40004DFBA08003F04AFB06EA0020A08003F0A1
:104C500045FBA1880843A0F5AE41A080613902D18F
:104C600041F66310A080A188A6A0FDF7CFF9A08827
:104C7000B8427DD1CF2004F0CBF8002004F0B6F884
:104C8000C12004F0B3F8302004F0B0F8ED2004F0B7
:104C9000BFF8642004F0AAF8032004F0A7F812205B
:104CA00004F0A4F8812004F0A1F8E82004F0B0F8A2
:104CB000852004F09BF8102004F098F87A2004F086
:104CC00095F8CB2004F0A4F8392004F08FF82C20BC
:104CD00004F08CF8002004F089F8342004F086F801
:104CE000022004F083F8F72004F092F8202004F06A
:104CF0007DF8EA2004F08CF8002004F077F800201A
:104D000004F074F8C02004F083F81B2004F06EF85F
:104D1000C12004F07DF8012004F068F8C52004F0FB
:104D200077F8302004F062F8302004F05FF800E0FB
:104D3000B3E0C72004F06CF8B72004F057F8362031
:104D400004F066F8482004F051F83A2004F060F8C6
:104D5000552004F04BF8B12004F05AF8002004F07C
:104D600045F81A2004F042F8B62004F051F800E0AB
:104D700095E00A2004F03AF8A22004F037F8F22077
:104D800004F046F8002004F031F8262004F040F842
:104D9000012004F02BF8E02004F03AF80F2004F092
:104DA00025F82A2004F022F8282004F01FF8082013
:104DB00004F01CF80E2004F019F8082004F016F88E
:104DC000542004F013F8A92004F010F8432004F054
:104DD0000DF80A2004F00AF80F2004F007F800206C
:104DE00004F004F8002004F001F8002003F0FEFFB6
:104DF000002003F0FBFFE12004F00AF8002003F09C
:104E0000F5FF152003F0F2FF172003F0EFFF072056
:104E100003F0ECFF112003F0E9FF062003F0E6FFAA
:104E20002B2003F0E3FF562003F0E0FF3C2003F0CB
:104E3000DDFF052003F0DAFF102003F0D7FF0F207D
:104E400003F0D4FF3F2003F0D1FF3F2003F0CEFF5B
:104E50000F2003F0CBFF2B2003F0DAFF002003F03C
:104E6000C5FF002003F0C2FF012003F0BFFF3F2079
:104E700003F0BCFF2A2003F0CBFF002003F0B6FFB5
:104E8000002003F0B3FF002003F0B0FFEF2003F099
:104E9000ADFF112003F0BCFFB8E0A580E3E6484574
:104EA0007ED1112003F0B4FF14200CF019FBD020A8
:104EB00003F0AEFF072003F099FF422003F096FFB6
:104EC0001D2003F093FFD12003F0A2FF002003F088
:104ED0008DFF1A2003F08AFF092003F087FFD220FC
:104EE00003F096FF012003F081FF222003F07EFFF4
:104EF000C0200FE00002300000100140000C014013
:104F0000E80D0020204C43442049443A25780D0AFE
:104F10000000000003F07CFF102003F067FF3B203F
:104F200003F064FF002003F061FF022003F05EFF46
:104F3000112003F05BFFC52003F06AFF032003F09C
:104F400055FFC82003F064FF002003F04FFF252029
:104F500003F04CFF212003F049FF052003F046FF3A
:104F6000002003F043FF0A2003F040FF652003F018
:104F70003DFF252003F03AFF772003F037FF502054
:104F800003F034FF0F2003F031FF002003F02EFF69
:104F9000F82003F03DFF012003F028FFFE2000E091
:104FA0003AE003F035FF002003F020FF022003F079
:104FB0001DFF202003F02CFF362003F029FF0820DE
:104FC00003F014FF3A2003F023FF552003F00EFFF7
:104FD0002B2003F01DFF002003F008FF002003F04A
:104FE00005FF012003F002FF3F2003F0FFFE2A200F
:104FF00003F00EFF002003F0F9FE002003F0F6FEA0
:10500000012003F0F3FEDF2003F0F0FE78200CF027
:1050100067FA292001F0FBBE50457CD1ED2003F05A
:10502000F7FE012003F0E2FEFE2003F0DFFEEE209B
:1050300003F0EEFEDE2003F0D9FE212003F0D6FEC1
:10504000F12003F0E5FE012003F0D0FEDF2003F0A5
:10505000DFFE102003F0CAFEC42003F0D9FE8F202B
:1050600003F0C4FEC62003F0D3FE002003F0BEFE12
:10507000E22003F0BBFEE22003F0B8FEE22003F0E2
:10508000B5FEBF2003F0C4FEAA2003F0AFFEB0209F
:1050900003F0BEFE0D2003F0A9FE002003F0A6FEE3
:1050A0000D2003F0A3FE002003F0A0FE112003F06A
:1050B0009DFE002003F09AFE192003F097FE0020C9
:1050C00003F094FE212003F091FE002003F08EFEF9
:1050D0002D2003F08BFE002003F088FE3D2003F01E
:1050E00085FE002003F082FE5D2003F07FFE00209D
:1050F00003F07CFE5D2003F079FE002003F076FED5
:10510000B12003F085FE802003F070FE002003F044
:105110006DFE8B2000E0FCE303F068FE002003F04E
:1051200065FE962003F062FE002003F05FFEB220D1
:1051300003F06EFE002003F059FE002003F056FE3F
:10514000022003F053FE002003F050FE032003F082
:105150004DFE002003F04AFEB32003F059FE00206C
:1051600003F044FE002003F041FE002003F03EFE69
:10517000002003F03BFE002003F038FE002003F087
:1051800035FE002003F032FE002003F02FFE002049
:1051900003F02CFE002003F029FE002003F026FE81
:1051A000002003F023FE002003F020FE002003F087
:1051B0001DFE002003F01AFE002003F017FE002061
:1051C00003F014FE002003F011FE002003F00EFE99
:1051D000002003F00BFE002003F008FE002003F087
:1051E00005FE002003F002FE002003F0FFFDB420C6
:1051F00003F00EFE8B2003F0F9FD002003F0F6FD16
:10520000962003F0F3FD002003F0F0FDA12003F051
:10521000EDFD002003F0EAFDB52003F0F9FD0220CA
:1052200003F0E4FD002003F0E1FD032003F0DEFDC8
:10523000002003F0DBFD042003F0D8FD002003F084
:10524000D5FDB62003F0E4FD002003F0CFFD0020E3
:1052500003F0CCFDB72003F0DBFD002003F0C6FD1A
:10526000002003F0C3FD3F2003F0C0FD002003F049
:10527000BDFD5E2003F0BAFD002003F0B7FD642001
:1052800003F0B4FD002003F0B1FD8C2003F0AEFD6F
:10529000002003F0ABFDAC2003F0A8FD002003F0DC
:1052A000A5FDDC2003F0A2FD002003F09FFD70208F
:1052B00003F09CFD002003F099FD902003F096FD83
:1052C000002003F093FDEB2003F090FD002003F09D
:1052D0008DFDDC2003F08AFD002003F087FDB8205F
:1052E00003F096FD002003F081FD002003F07EFD19
:1052F000002003F07BFD002003F078FD002003F088
:1053000075FD002003F072FD002003F06FFD00200A
:1053100003F06CFDBA2003F07BFD242003F066FD52
:10532000002003F063FD002003F060FD002003F087
:105330005DFDC12003F06CFD202003F057FD00202F
:1053400003F054FD542003F051FD002003F04EFD06
:10535000FF2003F04BFD002003F048FDC22003F0C6
:1053600057FD0A2003F042FD002003F03FFD04201A
:1053700003F03CFD002003F039FDC32003F048FD9D
:105380003C2003F033FD002003F030FD3A2003F011
:105390002DFD002003F02AFD392003F027FD002019
:1053A00003F024FD372003F021FD002003F01EFD53
:1053B0003C2003F01BFD002003F018FD362003F015
:1053C00015FD002003F012FD322003F00FFD002038
:1053D00003F00CFD2F2003F009FD002003F006FD73
:1053E0002C2003F003FD002003F000FD292003F032
:1053F000FDFC002003F0FAFC262003F0F7FC00205F
:1054000003F0F4FC242003F0F1FC002003F0EEFC98
:10541000242003F0EBFC002003F0E8FC232003F041
:10542000E5FC002003F0E2FC3C2003F0DFFC002060
:1054300003F0DCFC362003F0D9FC002003F0D6FC9E
:10544000322003F0D3FC002003F0D0FC2F2003F027
:10545000CDFC002003F0CAFC2C2003F0C7FC002088
:1054600003F0C4FC292003F0C1FC002003F0BEFCC3
:10547000262003F0BBFC002003F0B8FC242003F03E
:10548000B5FC002003F0B2FC242003F0AFFC0020A8
:1054900003F0ACFC232003F0A9FC002003F0A6FCE1
:1054A000C42003F0B5FC622003F0A0FC002003F050
:1054B0009DFC052003F09AFC002003F097FC84205B
:1054C00003F094FC002003F091FCF02003F08EFC2C
:1054D000002003F08BFC182003F088FC002003F070
:1054E00085FCA42003F082FC002003F07FFC182040
:1054F00003F07CFC002003F079FC502003F076FCE4
:10550000002003F073FC0C2003F070FC002003F07B
:105510006DFC172003F06AFC002003F067FC952067
:1055200003F064FC002003F061FCF32003F05EFC58
:10553000002003F05BFCE62003F058FC002003F0A1
:1055400055FCC52003F064FC322003F04FFC002022
:1055500003F04CFC442003F049FC002003F046FC1F
:10556000652003F043FC002003F040FC762003F0AC
:105570003DFC002003F03AFC882003F037FC0020BB
:1055800003F034FCC62003F043FC202003F02EFC83
:10559000002003F02BFC172003F028FC002003F070
:1055A00025FC012003F022FC002003F01FFCC72093
:1055B00003F02EFC002003F019FC002003F016FC81
:1055C000002003F013FC002003F010FCC82003F0BF
:1055D0001FFC002003F00AFC002003F007FC002061
:1055E00003F004FC002003F001FCC92003F010FCD0
:1055F000002003F0FBFB002003F0F8FB002003F089
:10560000F5FB002003F0F2FB002003F0EFFB00208D
:1056100003F0ECFB002003F0E9FB002003F0E6FBC5
:10562000002003F0E3FB002003F0E0FB002003F088
:10563000DDFB002003F0DAFB002003F0D7FB0020A5
:1056400003F0D4FB002003F0D1FB002003F0CEFBDD
:10565000E02003F0DDFB162003F0C8FB002003F080
:10566000C5FB1C2003F0C2FB002003F0BFFB212080
:1056700003F0BCFB002003F0B9FB362003F0B6FBBF
:10568000002003F0B3FB462003F0B0FB002003F042
:10569000ADFB522003F0AAFB002003F0A7FB64201F
:1056A00003F0A4FB002003F0A1FB7A2003F09EFB93
:1056B000002003F09BFB8B2003F098FB002003F0FD
:1056C00095FB992003F092FB002003F08FFBA820AC
:1056D00003F08CFB002003F089FBB92003F086FB6C
:1056E000002003F083FBC42003F080FB002003F0C4
:1056F0007DFBCA2003F07AFB002003F077FBD22069
:1057000003F074FB002003F071FBD92003F06EFB63
:10571000002003F06BFBE02003F068FB002003F0A7
:1057200065FBF32003F062FB002003F05FFBE12048
:1057300003F06EFB162003F059FB002003F056FB2C
:105740001C2003F053FB002003F050FB222003F049
:105750004DFB002003F04AFB362003F047FB0020FE
:1057600003F044FB452003F041FB002003F03EFB27
:10577000522003F03BFB002003F038FB642003F0D1
:1057800035FB002003F032FB7A2003F02FFB0020D2
:1057900003F02CFB8B2003F029FB002003F026FBF9
:1057A000992003F023FB002003F020FBA82003F046
:1057B0001DFB002003F01AFBB92003F017FB0020AB
:1057C00003F014FBC42003F011FB002003F00EFBD8
:1057D000CA2003F00BFB002003F008FBD22003F0EB
:1057E00005FB002003F002FBD82003F0FFFA0020A5
:1057F00003F0FCFAE02003F0F9FA002003F0F6FAD7
:10580000F32003F0F3FA002003F0F0FAE22003F0B3
:10581000FFFA052003F0EAFA002003F0E7FA0B2074
:1058200003F0E4FA002003F0E1FA1B2003F0DEFAB3
:10583000002003F0DBFA342003F0D8FA002003F054
:10584000D5FA442003F0D2FA002003F0CFFA4F201B
:1058500003F0CCFA002003F0C9FA612003F0C6FA85
:10586000002003F0C3FA792003F0C0FA002003F00F
:10587000BDFA882003F0BAFA002003F0B7FA9720A7
:1058800003F0B4FA002003F0B1FAA62003F0AEFA58
:10589000002003F0ABFAB72003F0A8FA002003F0D1
:1058A000A5FAC22003F0A2FA002003F09FFAC72055
:1058B00003F09CFA002003F099FAD12003F096FA45
:1058C000002003F093FAD62003F090FA002003F0B2
:1058D0008DFADD2003F08AFA002003F087FAF32026
:1058E00003F084FA002003F081FAE32003F090FA39
:1058F000052003F07BFA002003F078FA0A2003F079
:1059000075FA002003F072FA1C2003F06FFA0020F1
:1059100000E0FDE203F06AFA332003F067FA0020AA
:1059200003F064FA442003F061FA002003F05EFA09
:10593000502003F05BFA002003F058FA622003F0D5
:1059400055FA002003F052FA782003F04FFA0020B5
:1059500003F04CFA882003F049FA002003F046FADD
:10596000972003F043FA002003F040FAA62003F04A
:105970003DFA002003F03AFAB72003F037FA00208E
:1059800003F034FAC22003F031FA002003F02EFABB
:10599000C72003F02BFA002003F028FAD12003F0EF
:1059A00025FA002003F022FAD52003F01FFA002088
:1059B00003F01CFADD2003F019FA002003F016FAB8
:1059C000F32003F013FA002003F010FAE42003F0B0
:1059D0001FFA012003F00AFA002003F007FA012061
:1059E00003F004FA002003F001FA022003F0FEF9AC
:1059F000002003F0FBF92A2003F0F8F9002003F05F
:105A0000F5F93C2003F0F2F9002003F0EFF94B2008
:105A100003F0ECF9002003F0E9F95D2003F0E6F96A
:105A2000002003F0E3F9742003F0E0F9002003F014
:105A3000DDF9842003F0DAF9002003F0D7F9932090
:105A400003F0D4F9002003F0D1F9A22003F0CEF93D
:105A5000002003F0CBF9B32003F0C8F9002003F0D5
:105A6000C5F9BE2003F0C2F9002003F0BFF9C4203D
:105A700003F0BCF9002003F0B9F9CD2003F0B6F92A
:105A8000002003F0B3F9D32003F0B0F9002003F0B5
:105A9000ADF9DD2003F0AAF9002003F0A7F9F32007
:105AA00003F0A4F9002003F0A1F9E52003F0B0F918
:105AB000002003F09BF9002003F098F9002003F088
:105AC00095F9002003F092F9022003F08FF90020ED
:105AD00003F08CF9292003F089F9002003F086F9FE
