:020000040800F2
:10000000C011002071130008650300086703000891
:100010006B0300086F030008730300080000000072
:10002000000000000000000000000000770300084E
:1000300079030008000000007B0300087D0300082E
:100040008B1300088B1300088B1300088B13000818
:100050008B1300088B1300088B1300088B13000808
:100060008B1300088B1300088B1300088B130008F8
:100070008B1300088B1300088B1300088B130008E8
:100080008B1300088B1300087D0F00088B130008EA
:100090008B1300088B1300088B1300088B130008C8
:1000A0008B130008A50600088B1300088B130008AB
:1000B0008B1300088B1300088B1300088B130008A8
:1000C0008B1300088B1300088B1300088B13000898
:1000D0008B130008E71200088B1300088B1300082D
:1000E0008B1300088B1300088B1300088B13000878
:1000F0008B1300088B1300088B1300088B13000868
:100100008B1300088B1300088B1300088B13000857
:100110008B1300088B1300088B1300088B13000847
:100120008B1300088B1300088B1300088B13000837
:1001300000F002F800F05EF80AA090E8000C82449B
:100140008344AAF10107DA4501D100F053F8AFF278
:10015000090EBAE80F0013F0010F18BFFB1A43F0A5
:1001600001031847185600003856000010F8013BEC
:100170000A4413F0030408BF10F8014B1D1108BF17
:1001800010F8015B641E05D010F8016B641E01F8C5
:10019000016BF9D1002D15D010F8014B03F00C03C1
:1001A0000C2BA1EB04040ABF10F8013BA4EB831451
:1001B000A4EB032405F1010314F8016B5B1E01F8A5
:1001C000016BF9D5914238BF10F8013BD1D370478C
:1001D0000023002400250026103A28BF78C1FBD850
:1001E000520728BF30C148BF0B6070471FB51FBD05
:1001F00010B510BD03F008F81146FFF7F7FF00F047
:1002000009F803F026F803B4FFF7F2FF03BC01F08E
:100210000FF8000008B54FF4A06001F04DFE00F0AB
:100220009DFF00F09DFA00F06CFD00F009FE00213A
:1002300040F29F5000F04AFF4FF4165001F007F8CB
:10024000102341A20021084600F0DEFC0822002114
:10025000202000F008FD09220021302000F003FDDD
:100260000A220021402000F0FEFC0B220021502039
:1002700000F0F9FC0C220021602000F0F4FC0D22BB
:100280001021002000F0EFFC0E221021084600F0A3
:10029000EAFC0F221021202000F0E5FC102211467C
:1002A000302000F0E0FC11221021402000F0DBFCA7
:1002B00003222021002000F0D6FC0422202110205F
:1002C00000F0D1FC102322A22021382000F09CFC59
:1002D00005223021002000F0C6FC0622302110202B
:1002E00000F0C1FC07223021202000F0BCFC1023CC
:1002F00018A23021382000F087FC00F00EFB21E02E
:10030000002000F053FA10200423009012480288C5
:100310001021602000F02EFC10491148006803F005
:10032000EBFB054603F0B4FB0446102002232246F3
:1003300030210090482000F01DFC00F0EEFA64200F
:1003400000F049FFDCE700003230313800000000E7
:10035000487A0000302E0000040000200000C8424F
:1003600000000020704700BFFEE700BFFEE700BFAF
:10037000FEE700BFFEE77047704770477047000018
:100380000CB50020019000906C48006840F480306B
:100390006A49086000BF6948006800F400300090B6
:1003A0000198401C0190009818B90198B0F5A06F11
:1003B000F1D16248006800F4003010B101200090D3
:1003C00001E0002000900098012843D15C480068BB
:1003D00040F010005A4908600846006820F0030009
:1003E00008600846006840F0020008605348406812
:1003F000524948600846406848600846406840F4F2
:10040000806048600846406820F47C1048600846D8
:10041000406840F4E81048600846006840F080708A
:10042000086000BF4548006800F000700028F9D05F
:100430004248406820F00300404948600846406850
:1004400040F00200486000BF3C48406800F00C00EB
:100450000828F9D10CBD10B5FFF792FF10BD10B5FB
:100460003648006840F0010034490860084640689A
:10047000344908403149486008460068324908401C
:100480002E4908600846006820F48020086008466D
:10049000406820F4FE0048604FF41F008860FFF7BA
:1004A000DAFF4FF000602949086010BD10B5002147
:1004B00000200022214B5B6803F00C0121B10429CC
:1004C00006D0082928D107E0214B224C236027E0E1
:1004D0001F4B204C236023E0184B5B6803F4701023
:1004E000164B5B6803F48032022303EB904022B981
:1004F000194B4343174C23600DE0104B5B6803F42A
:10050000003323B1144B4343124C236003E0104BE0
:100510004343104C236003E00D4B0E4C236000BF9F
:1005200000BF064B5B68C3F303130C4CE15C094B43
:100530001B68CB40074C236010BD00000010024038
:10054000002002400000FFF8FFFFF6FE08ED00E08B
:1005500000127A000800002000093D000C00002075
:1005600070B58EB00446012140F60D0001F03CFA52
:100570004FF48070ADF8340018208DF83700032058
:100580008DF836000DA96C4800F072FF4FF4005052
:10059000ADF8340018208DF8370003208DF83600B0
:1005A0000DA9664800F064FF21466548006803F025
:1005B000ADF906464FF0804103F0A8F9054603F077
:1005C00067FA401E5F49088008460088ADF82C0095
:1005D0005D480088ADF828000020ADF82E008DF8A9
:1005E00030002020ADF82A000AA9584801F0A6FDE5
:1005F0000121564802F0FEF97020ADF818000020E5
:10060000ADF81E000120ADF81A000220ADF8200060
:10061000C001ADF824000420ADF81C000820ADF89E
:1006200022000020ADF8260006A9484801F0C3FDCD
:100630000821464802F00EFA4FF40060ADF80800B9
:100640004010ADF80A000020ADF80C001F20ADF8F6
:100650000E000020ADF810004FF48040ADF81400FB
:1006600002A93A4802F086F801221146374802F002
:10067000DCF819208DF8040001208DF80500002019
:100680008DF8060001208DF8070001A801F019FC83
:1006900001212E4802F0AEF801212C4802F0B6F8F4
:1006A0000EB070BD2DE9FE4F0121284802F06BFB12
:1006B00000283FD02348008803F00AFA019021481F
:1006C000008803F005FA0090214802880088401C49
:1006D0001F4B18801F4850F82210009803F00CFAA6
:1006E00083461D480168584603F006FA8246019980
:1006F00003F0AAF84FF08041029003F007F9814619
:1007000003F076F807460022144B02F0DFFD0546A1
:1007100002F090FE84B20E480088B0F5C87F02D186
:1007200000200B4908800948343004800121074823
:1007300002F03AFBBDE8FE8F00080140000C0140CA
:10074000200000201C0000201E000020002C014082
:100750002400002028000020000000200000E03FCE
:1007600008B50121142001F03FF901214F4800F0A4
:1007700050FF48208DF803004FF40040ADF8000012
:1007800069464B4800F074FE2020ADF80000694631
:10079000484800F06DFE0120ADF8000028208DF8DB
:1007A00003006946424800F063FE08BD2DE9F041B0
:1007B000044614B10120404908703F4800780028E1
:1007C0005DD020213B4800F0E6FE58B14FF40041D7
:1007D000374800F0E0FE28B10121354800F0DBFE8B
:1007E00001284CD10A2000F0F6FC002032490870A4
:1007F0002021304800F0CFFEC0B93048006802F038
:10080000F7FF05462E4A2F4B02F042FE4BD22B48F3
:10081000006802F0EDFF05462B4A2C4B02F056FD16
:10082000074602F021FD254908603CE04FF40041F5
:100830001F4800F0B0FEC8B92048006802F0D8FF99
:1008400005464FF06632224B02F0B2FE2BD21B4817
:10085000006802F0CDFF05461B4A1C4B02F0DEFE8D
:10086000074602F001FD154908601CE0012110480F
:1008700000F091FE012816D11649087013E02021DE
:100880000C4800F088FE01280DD1C103084800F093
:1008900082FE012807D10121054800F07CFE10B935
:1008A000012005490870BDE8F08100000004300017
:1008B00000080140001001406806002000000020F0
:1008C000B81E85EB51B8EE3F7B14AE47E17A943FFA
:1008D0006666E63F0600002070B504460D46F948FE
:1008E00000F06FFE00F47F40E1B240EA01063146BD
:1008F000F44800F073FEF44805600020F349C1F8A5
:10090000A401F149091F086001200860EE49091D92
:100910000860EE49C1F8A00170BD70B500241CE06C
:1009200004F1B001C8B20021FFF7D6FF002108464C
:10093000FFF7D2FF00211020FFF7CEFF002508E0CF
:10094000E34901EBC501085D0121FFF7C5FF681C04
:10095000C5B2802DF4DB601CC4B2082CE0DB70BD96
:1009600010B500218D20FFF7B7FF00211420FFF7FD
:10097000B3FF0021AF20FFF7AFFF10BD10B500217E
:100980008D20FFF7A9FF00211020FFF7A5FF002110
:10099000AE20FFF7A1FF10BD70B500240CE00025CC
:1009A00006E00020CA4901EBC5010855681CC5B224
:1009B000802DF6DB601CC4B2082CF0DBFFF7ADFF26
:1009C00070BDF0B5144600267F2801DC3F2900DD0C
:1009D000F0BD0B46CF1701EB5777FF10C7F10707A4
:1009E000FAB2CF1701EB5777FF10A1EBC707FDB2A3
:1009F000C5F107070123BB40DEB24CB1B44B03EB9A
:100A0000C0039B5C3343B24F07EBC007BB5408E005
:100A1000AF4B03EBC0039B5CB343AD4F07EBC00789
:100A2000BB5400BFD4E72DE9F04706460F46904679
:100A30009946DDF820A034460CE03D4606E05246DB
:100A400029462046FFF7BDFF681CC5B24D45F6DDBF
:100A5000601CC4B24445F0DDFFF75FFFBDE8F087DE
:100A60002DE9F84F80460F4616461C46BA462046EA
:100A7000E31704EB5373DB1021464FEAE47C04EBED
:100A80005C7C4FEAEC0CA4EBCC0CBCF1000F02D068
:100A90004FF0010C01E04FF0000C6344224604EBE0
:100AA000D27C4FEA6C0C03FB0CF303F0FF0BA6F1B6
:100AB0002000C6B200254EE00C2C07D106EB460004
:100AC000844901EB8000405D009013E0102C05D1BB
:100AD000814800EB0610405D00900BE0182C07D118
:100AE00006EBC6007D4901EB8000405D009001E00F
:100AF000BDE8F88F4FF0000927E0009800F0800073
:100B000028B1394640460A9AFFF75BFF09E00A9888
:100B100008B9012000E00020024639464046FFF7B0
:100B200050FF00984006000E0090781CC7B2A7EB5B
:100B30000A00A04205D1574608F1010000F0FF0865
:100B400006E009F1010000F0FF09B9F1080FD4DB5C
:100B500000BF681CC5B25D45AEDB00BFC8E710B57D
:100B60000246012000E050430B00A1F10104E1B274
:100B7000F9D110BD2DE9FF4F81B0074691461E46C1
:100B80000E9D4FF0000A002439E0301B401EC1B218
:100B90000A20FFF7E4FFB9FBF0F00A21B0FBF1F205
:100BA00001FB1208BAF1000F16D1701EA04213DD2E
:100BB000B8F1000F0ED10120AB4605EBDB714910F7
:100BC00001FB04710090C8B22B4620220299FFF766
:100BD00047FF12E04FF0010A0120AB4605EBDB7145
:100BE000491001FB04710090C8B208F13001CAB28B
:100BF0002B460299FFF734FF00BF601CC4B2B44219
:100C0000C3DB05B0BDE8F08FF8B506460F461546C4
:100C10001C4621E004EBD4714910C1F18001B142BE
:100C200002DA00263819C7B2C4F14000B84204DA2B
:100C3000002006460746FFF7AFFE012000902A7805
:100C4000234639463046FFF70BFF204604EBD071B0
:100C500006EB6101CEB26D1C28787E2802DC287874
:100C60002028D7DAF8BD2DE9F84F05460C4617467F
:100C7000A246202000901A4800EB471B00263BE0CC
:100C80001BF806804FF0000930E008F0800028B122
:100C9000E1B2E8B20122FFF794FE04E0E1B2E8B26B
:100CA0000022FFF78EFE4FEA48604FEA1068601C92
:100CB00084B2A4EB0A00102814D15446681C85B2F3
:100CC00017E00000000C0140A00122420000224277
:100CD00098060020BA3F00082E4400081E4A00086B
:100CE0007A3D000809F1010000F0FF09B9F1080F91
:100CF000CBDB00BF701CC6B200988642C0DBBDE8EB
:100D0000F88F08B50121182000F06EFE0121084679
:100D100000F06AFE0121474800F07BFCFF20ADF89F
:100D2000000010208DF8030003208DF802006946B2
:100D3000414800F09DFB4FF6FF713F4800F04EFC2C
:100D40004FF47070ADF8000010208DF80300032000
:100D50008DF802006946394800F08AFB4FF4707143
:100D6000364800F032FC0021AE20FFF7B5FD00212F
:100D7000D520FFF7B1FD00215020FFF7ADFD002188
:100D8000A820FFF7A9FD00213F20FFF7A5FD0021C6
:100D9000D320FFF7A1FD00210846FFF79DFD0021AC
:100DA0004020FFF799FD00218D20FFF795FD0021E0
:100DB0001420FFF791FD00212020FFF78DFD002179
:100DC0000220FFF789FD0021A120FFF785FD00210A
:100DD000C020FFF781FD0021DA20FFF77DFD002113
:100DE0001220FFF779FD00218120FFF775FD00211A
:100DF000EF20FFF771FD0021D920FFF76DFD0021E5
:100E0000F120FFF769FD0021DB20FFF765FD0021E0
:100E10003020FFF761FD0021A420FFF75DFD0021D8
:100E2000A620FFF759FD0021AF20FFF755FDFFF782
:100E3000B3FD08BD00023000000C0140001001406D
:100E400000B587B001214FF4017000F0CDFD4FF4E3
:100E5000004000F02DFD0420ADF8040000208DF8C6
:100E6000070001A9934800F003FB934801F0A0FF9D
:100E7000002002908DF80C008DF80D004FF4C0207A
:100E800004900020059001208DF8180002A98A48DE
:100E900001F0B5FF12208DF8000002208DF801004E
:100EA00001208DF802008DF80300684601F009F872
:100EB000002301220221804802F039F801217E48F6
:100EC00001F0C9FF7C4801F0E8FF00BF7A4801F05B
:100ED000E9FF0028FAD1784801F0EEFF00BF76481C
:100EE00001F0EFFF0028FAD101224FF40871724897
:100EF00001F0C7FF0121704802F075F807B000BD8E
:100F000070B56D4802F07AF804464FF47A7094FB9D
:100F1000F0F03030694908704FF47A7094FBF0F1CA
:100F200000FB1140642190FBF1F0303063494870C0
:100F3000642094FBF0F100FB11400A2190FBF1F0DA
:100F400030305E4988700A2094FBF0F100FB1140BC
:100F500030305A49C87000250DE05848405D584966
:100F6000088000BF5648001F008800F0400000289D
:100F7000F8D0681CC5B2062DEFDB70BD10B54FF47C
:100F800008714D4802F024F908B34E480078012852
:100F900018D14D48008840F6C411884212DCFFF792
:100FA000AFFF49480088401C474908800846008830
:100FB00040F6C511884205D1002042490870012041
:100FC000414908804FF408713B4802F013F910BD05
:100FD00010B50446062301222146374801F0A7FF39
:100FE0000121354801F077FF00BF0221324802F0AD
:100FF000E3F80028F9D0304802F000F810BD2DE9E0
:10100000F04786B082464FF00008002709E05046BE
:10101000FFF7DEFF2DF81700052000F0DCF8781C44
:10102000C7B20C2FF3DB00251AE0002412E03DF8D4
:101030001410601C3DF81000814209DD3DF8149049
:10104000601C3DF810002DF81400601C2DF8109065
:10105000601CC4B2C5F10C00A042E8DC681CC5B23B
:101060000B2DE2DB012604E03DF816008044701CE5
:10107000C6B20B2EF8DB0A20B8FBF0F080B206B047
:10108000BDE8F0872DE9F04107460C460025002613
:1010900008E03846FFF79CFF0544012000F09BF86C
:1010A000701CC6B2A642F4DBB5FBF4F080B2BDE81A
:1010B000F08100000008014000240140700600207B
:1010C00004380140060000206E06002030B589B0CB
:1010D00004460D460121084600F093FC012104203E
:1010E00000F082FCADF81C40ADF818500020ADF8BF
:1010F0001E00ADF81A0006A94FF0804001F01EF85E
:101100000220ADF8140018208DF8170003208DF888
:10111000160005A9104800F0ABF96020ADF80400F6
:101120002046E11704EB9171C1F38F01ADF80A106D
:101130000120ADF806000220ADF80C0001A940071F
:1011400001F07BF80821C80601F08DFC0121880719
:1011500001F050FB09B030BD0008014010B56FF040
:10116000040000F0F8FE2E4800682E49B0FBF1F0B4
:101170002D4908700846007800EB4001C1EBC01013
:101180004FF6FF7101EAC0002849088010BD0146F2
:10119000254A12784A434FF0E0235A6100229A61AF
:1011A0001A46126942F001021A6100BF4FF0E022B4
:1011B000106900F001021AB100F48032002AF5D063
:1011C0004FF0E022126922F001024FF0E0231A6191
:1011D00000229A6170470146144A12884A434FF030
:1011E000E0235A6100229A611A46126942F0010214
:1011F0001A6100BF4FF0E022106900F001021AB13D
:1012000000F48032002AF5D04FF0E022126922F07B
:1012100001024FF0E0231A6100229A61704700003A
:101220000800002000127A007606002078060020D0
:10123000014600BF704700BF494A128802F04002D1
:10124000002AF9D0C2B2464B1B1D1A80704710B558
:1012500086B00446012144F2040000F0C5FB4FF4BF
:101260000070ADF8140003208DF8160018208DF8DA
:10127000170005A93B4800F0FBF84FF48060ADF87B
:10128000140004208DF8170005A9364800F0F0F886
:1012900025208DF8000003208DF801008DF8020054
:1012A00001208DF80300684600F00BFE0194002039
:1012B000ADF80800ADF80A00ADF80C00ADF810006C
:1012C0000C20ADF80E0001A9254800F034FC0122E5
:1012D00040F22551224800F0C6FC0121204800F0D0
:1012E000B6FC06B010BD10B540F225511C4800F008
:1012F0009FFD10B31A4800F01BFDC4B21A480088C5
:1013000000F40040C8B91848008800F4804060B17B
:101310000A2C03D000201449088020E012480088DD
:1013200040F400401049088019E00D2C06D10E4809
:10133000008840F480400C49088010E00A4800888A
:10134000C0F30D0009490C5407480088401C0649A9
:10135000088008460088C72801DD0020088010BDED
:10136000003801400008014080060020980A002053
:101370000948804709480047FEE7FEE7FEE7FEE729
:10138000FEE7FEE7FEE7FEE7FEE7FEE70448054965
:10139000054A064B704700005F0400083101000851
:1013A000C00B0020C0110020C00D0020C00D002087
:1013B00010B50446CC48844208D10121042000F035
:1013C0002DFB0021042000F029FB46E0C7488442A1
:1013D00008D10121082000F021FB0021082000F0A5
:1013E0001DFB3AE0C248844208D10121102000F0E0
:1013F00015FB0021102000F011FB2EE0BD488442B7
:1014000008D10121202000F009FB0021202000F05C
:1014100005FB22E0B848844208D10121402000F0B9
:10142000FDFA0021402000F0F9FA16E0B3488442AA
:1014300008D10121802000F0F1FA0021802000F085
:10144000EDFA0AE0AE48844207D10121801500F090
:10145000E5FA0021A01500F0E1FA10BD10B5012158
:10146000084600F0DBFA0021012000F0D7FA10BD99
:101470002DE9F0410246002500260020002300242B
:10148000002791F803C00CF00F0591F803C00CF091
:10149000100CBCF1000F03D091F802C04CEA050516
:1014A00091F800C0BCF1000F31D0146800202BE08F
:1014B0004FF0010C0CFA00F3B1F800C00CEA03067F
:1014C0009E4220D183004FF00F0C0CFA03F7BC436F
:1014D00005FA03FC4CEA040491F803C0BCF1280FA0
:1014E00006D14FF0010C0CFA00FCC2F814C00AE05F
:1014F00091F803C0BCF1480F05D14FF0010C0CFA74
:1015000000FCC2F810C0401C0828D1D31460B1F808
:1015100000C0BCF1FF0F34DD546800202EE000F164
:10152000080C4FF0010808FA0CF3B1F800C00CEAFF
:1015300003069E4221D183004FF00F0C0CFA03F7F3
:10154000BC4305FA03FC4CEA040491F803C0BCF167
:10155000280F05D100F1080C08FA0CF8C2F8148025
:1015600091F803C0BCF1480F07D100F1080C4FF00F
:10157000010808FA0CF8C2F81080401C0828CED3E5
:101580005460BDE8F0814FF6FF7101800221817047
:101590000421C17070470246002093680B400BB1D4
:1015A000012000E0002070470146886880B2704743
:1015B00002460020D3680B400BB1012000E0002060
:1015C00070470146C86880B2704701617047416149
:1015D00070470AB1016100E041617047C160704726
:1015E0004FF480320A43826181618261826982693B
:1015F000704702460020434B18684FF6807318402E
:1016000040EA021008433F4B186070473E49C861EA
:101610007047F0B50A46002300240021002500F0A1
:101620000046B6F1004F02D1364EF16901E0354E69
:101630007168C0F3034583B200F44016B6F5401F4D
:1016400008D121F070612F4E766826F070662D4F1C
:101650007E6012E000F48016B6F5801F06D10326E6
:1016600006FA05F4A14341F0706106E0460D36012B
:1016700003FA06F6B14341F0706122B1460D36011E
:1016800003FA06F6314300F00046B6F1004F02D1EE
:101690001C4EF16101E01B4E7160F0BD30B50022BF
:1016A0008B071C0F0F2303FA04F2164B08338C1020
:1016B00053F824309343134C08348D1044F82530EC
:1016C00023468C1053F824308C07240F00FA04F4BE
:1016D00023430C4C08348D1044F8253030BD0A49A2
:1016E000DC3108607047000000080140000C014038
:1016F000001001400014014000180140001C01408E
:10170000002001400000014000002042DF48006846
:1017100040F00100DD49086008464068DC490840A7
:10172000DA49486008460068DA490840D749086045
:101730000846006820F4802008600846406820F4CD
:10174000FE0048604FF41F0088607047CF49096869
:1017500021F48031CD4A11601146096821F48021BD
:101760001160B0F5803F03D0B0F5802F0ED106E0B8
:10177000C649096841F48031C44A116007E0C34991
:10178000096841F4A021C14A116000E000BF00BF18
:10179000704710B501460022002300204A11012A9B
:1017A00002D1BA4C236806E0022A02D1B74C236A60
:1017B00001E0B64C636A01F01F02012494401C4012
:1017C0000CB1012000E0002010BD38B500200090D1
:1017D0000024002500BF3120FFF7DBFF05460098FD
:1017E000401C00900098B0F5A06F01D0002DF2D001
:1017F0003120FFF7CEFF08B1012400E0002420468D
:1018000038BD01460020A14A106820F0F80040EAE7
:10181000C10010607047A049086070470246002070
:101820009A4B586820F47C1042EA01031843974B06
:101830005860704798490866704701460020934AEF
:10184000506820F003000843506070478F4840689C
:1018500000F00C007047014600208C4A506820F0D0
:10186000F00008435060704701460020874A5068E6
:1018700020F4E06008435060704701460020834A2E
:10188000506820F4605040EAC1005060704729B1B0
:101890007E4A527A02437D4B5A7204E07B4A527A66
:1018A00082437A4B5A7270477B49D831086070473F
:1018B00001460020754A506820F4404008435060BB
:1018C00070470021714A20321170704A82F820104E
:1018D000012802D004280AD104E001216B4A2032F9
:1018E000117005E00521694A2032117000E000BF47
:1018F00000BF70476949086070476449096A01433D
:10190000624A11627047654944390860704730B5D2
:1019100000210022002400235C4D6D6805F00C01BD
:1019200021B1042905D0082923D105E05C4D0560CB
:1019300022E05B4D05601FE0544D6D6805F47012A8
:10194000524D6D6805F48034022505EB92421CB9B6
:10195000544D554305600BE04C4D6D6805F4003562
:101960001DB1504D5543056002E04D4D5543056096
:1019700002E04B4D056000BF00BF444D6D6805F0AF
:10198000F0010909484D6B5C0568DD4045603F4D3D
:101990006D6805F4E061090A434D6B5C4568DD4004
:1019A00085603A4D6D6805F46051C90A3E4D6B5C27
:1019B0004568DD40C560354D6D6805F44041890BD3
:1019C0003A4D6B5CC568B5FBF3F5056130BD29B1D7
:1019D0002E4A526902432D4B5A6104E02B4A526948
:1019E00082432A4B5A61704729B1284A92690243BF
:1019F000264B9A6104E0254A92698243234B9A61FF
:101A0000704729B1214AD2690243204BDA6104E0D0
:101A10001E4AD26982431D4BDA61704729B11B4AC5
:101A2000D2680243194BDA6004E0184AD268824354
:101A3000164BDA60704729B1144A12690243134BFE
:101A40001A6104E0114A12698243104B1A6170470F
:101A500012494039086070470F49C86470470B4904
:101A6000C87170470948406A40F080700749486271
:101A7000704701460020054A92680A400AB10120D9
:101A800000E0002070470149887270470010024052
:101A90000000FFF8FFFFF6FE0000424280044242D1
:101AA00000127A0000093D00820600209206002004
:101AB00010B50446FB48844209D101218803FFF791
:101AC000ADFF00214FF48040FFF7A8FF32E0F64859
:101AD000844209D101214804FFF7ADFF00214FF4F2
:101AE0000030FFF7A8FF25E0F048844209D101212A
:101AF0008804FFF7A0FF00214FF48020FFF79BFF31
:101B000018E0EB48844209D10121C804FFF793FF94
:101B100000214FF40020FFF78EFF0BE0E5488442E0
:101B200008D101210805FFF786FF00214FF480103E
:101B3000FFF781FF10BD2DE9F04786B005460E4640
:101B40000024A24600BFA1460027B08900B100BF13
:101B50002F462C8A4CF6FF700440F08804432C82F8
:101B6000AC894EF6F3100440B0883189084371897E
:101B700008430443AC81AC8A4FF6FF400440B0896F
:101B80000443AC8201A8FFF7C2FEC648874202D1D7
:101B9000DDF810A001E0DDF80CA0A88900F40040F9
:101BA00040B10AEBCA0000EB0A1031684900B0FBF3
:101BB000F1F807E00AEBCA0000EB0A10316889006F
:101BC000B0FBF1F86420B8FBF0F0040120096421B7
:101BD00001FB1089A88900F4004040B1322000EBDD
:101BE000C900B0FBF1F000F00700044308E0322028
:101BF00000EB09106421B0FBF1F000F00F0004438A
:101C00002C8106B0BDE8F0874FF416510160002129
:101C10008180C18001810C21418100218181704737
:101C200010B502460020108A4FF2FF0318400B88BF
:101C30004C8823438C882343CC8823431843108249
:101C400010BD0021018041808180C180704721B199
:101C5000828942F40052828104E082894DF6FF734A
:101C60001A4082817047F0B5034600240026002503
:101C7000002040F66A17B94200D100BF1846C1F3F0
:101C8000421401F01F06012707FA06F5012C01D1C5
:101C90000C3004E0022C01D1103000E014301AB1F5
:101CA00007682F43076002E00768AF430760F0BD95
:101CB0001AB1838A0B43838202E0838A8B43838237
:101CC0007047028A4FF6F0731A400282028A0A4372
:101CD0000282704782894FF2FF731A4082818289A3
:101CE0000A438281704721B1828942F002028281D7
:101CF00004E082894FF6FD731A4082817047028AA0
:101D00004FF6DF731A400282028A0A43028270474A
:101D100021B1028A42F48042028204E0028A4BF638
:101D2000FF731A4002827047C1F308028280704735
:101D300001468888C0F308007047818941F001019D
:101D400081817047028BD2B20283028B42EA012268
:101D500002837047028B02F47F420283028B0A43A4
:101D60000283704721B1828A42F02002828204E01D
:101D7000828A4FF6DF731A408282704721B1828ACD
:101D800042F01002828204E0828A4FF6EF731A401A
:101D90008282704721B1828A42F00802828204E086
:101DA000828A4FF6F7731A408282704721B1828986
:101DB00042F40042828103E08289C2F30E028281F2
:101DC000704721B1828A42F40062828204E0828AF2
:101DD0004FF2FF731A4082827047828A4FF6FB737C
:101DE0001A408282828A0A438282704721B1828AA3
:101DF00042F00202828204E0828A4FF6FD731A40AA
:101E00008282704702460020B1F5007F00D100BFFA
:101E100013880B400BB1012000E00020704701F453
:101E20000072B2F5007F00D100BFCA430280704744
:101E300070B50246002400230025002040F66A16F3
:101E4000B14200D100BFC1F3421501F01F030126CA
:101E500006FA03F3012D02D19689334006E0022DE4
:101E600002D1168A334001E0968A33400C120126D3
:101E700006FA04F41688344013B10CB1012000E0D6
:101E8000002070BD10B50022002340F66A14A14264
:101E900000D100BF0A1201249440A3B2DC430480A5
:101EA00010BD0000003801400044004000480040E0
:101EB000004C00400050004031490143314A11605C
:101EC000704770B5002100230F22C47804B32D4C55
:101ED000246804F4E064C4F5E064210AC1F1040359
:101EE000CA40447804FA03F184781440214309017C
:101EF000254C0678A155047804F01F050124AC4058
:101F000005786D11AD0005F1E025C5F8004109E047
:101F1000047804F01F050124AC401C4D06787611AE
:101F200045F8264070BD1A4A0A400243154B1B1F54
:101F30001A60704739B1134A121D12680243114BDF
:101F40001B1D1A6006E00F4A121D126882430D4BDA
:101F50001B1D1A607047042808D14FF0E021096961
:101F600041F004014FF0E022116107E04FF0E02161
:101F7000096921F004014FF0E0221161704700006F
:101F80000000FA050CED00E000E400E080E100E074
:101F900080FFFF1F10B50446FE48844208D101218E
:101FA000C014FFF73BFD0021E014FFF737FDC4E04C
:101FB000B4F1804F08D101210846FFF73CFD002114
:101FC0000120FFF738FDB8E0F348844208D1012131
:101FD0000220FFF730FD00210220FFF72CFDACE0CE
:101FE000EE48844208D101210420FFF724FD00219E
:101FF0000420FFF720FDA0E0E948844208D1012138
:102000000820FFF718FD00210820FFF714FD94E0D9
:10201000E448844208D101211020FFF70CFD002183
:102020001020FFF708FD88E0DF48844208D1012135
:102030002020FFF700FD00212020FFF7FCFC7CE0C2
:10204000DA48844208D101214014FFF7E7FC00215F
:102050006014FFF7E3FC70E0D548844209D1012108
:10206000C804FFF7DBFC00214FF40020FFF7D6FC8B
:1020700063E0D048844209D101210805FFF7CEFC76
:1020800000214FF48010FFF7C9FC56E0CA48844293
:1020900009D101214805FFF7C1FC00214FF40010D0
:1020A000FFF7BCFC49E0C548844208D1012140202B
:1020B000FFF7C1FC00214020FFF7BDFC3DE0C04818
:1020C000844208D101218020FFF7B5FC0021802047
:1020D000FFF7B1FC31E0BB48844208D101218015F3
:1020E000FFF7A9FC0021A015FFF7A5FC25E0B648E5
:1020F000844209D101210804FFF790FC00214FF42C
:102100008030FFF78BFC18E0B048844209D10121F0
:102110004804FFF783FC00214FF40030FFF77EFCFA
:102120000BE0AB48844208D101218804FFF776FC1C
:1021300000214FF48020FFF771FC10BD00220288BF
:10214000944B98420ED0994B98420BD0B0F1804FEF
:1021500008D0914B984205D0904B984202D0904BBA
:10216000984204D14FF68F731A404B881A438D4B17
:10217000984207D08C4B984204D04FF6FF431A4048
:10218000CB881A4302808B8883850B880385814B1B
:1021900098420BD0854B984208D08B4B984205D083
:1021A0008A4B984202D08A4B984201D10B7A03861F
:1021B00001238382704770B5002400220023058C20
:1021C0004FF6FE7635400584028C8388048B4FF6EB
:1021D0008F752C40B51E2C400D882C43751E2A404F
:1021E0000D892A434D882A436A4DA8420BD06F4D72
:1021F000A84208D0744DA84205D0744DA84202D020
:10220000734DA84213D14FF6F7752A404D892A43E2
:102210004FF6FB752A408D882A434FF6FF652B4009
:102220004FF6FF552B408D892B43CD892B4383805F
:102230000483CD888586028470BD70B50024002299
:102240000023058C4FF6EF7635400584028C838899
:10225000048B48F6FF752C404FF6FF452C400D8847
:102260004FF6FF7606EA05252C434FF6DF752A4028
:102270000D8906EA05152A434D8806EA05152A4305
:10228000444DA84202D0494DA8421DD14FF67F755A
:102290002A404D894FF6FF7606EA05152A434FF688
:1022A000BF752A408D8806EA05152A434FF6FF358B
:1022B0002B404FF2FF752B408D8906EA85052B4395
:1022C000CD8906EA85052B4383800483CD88058765
:1022D000028470BD70B5002400220023058C4FF6E7
:1022E000FF6635400584028C8388848B4FF68F759A
:1022F0002C404FF6FC752C400D882C434FF6FF55B3
:102300002A400D894FF6FF7606EA05252A434D88B7
:1023100006EA05252A431F4DA84202D0234DA842B4
:102320001DD14FF2FF752A404D894FF6FF7606EA20
:1023300005252A434FF6FF352A408D8806EA0525F4
:102340002A434EF6FF752B404DF6FF752B408D89C5
:1023500006EA05152B43CD8906EA05152B43838034
:102360008483CD888587028470BD70B500220023E8
:102370000024058C4EF6FF7635400584038C848856
:10238000828B48F6FF752A404FF6FF452A400D889C
:1023900020E00000002C0140000400400008004044
:1023A000000C0040001000400014004000340140C8
:1023B000004C014000500140005401400018004012
:1023C000001C00400020004000400140004401404B
:1023D000004801404FF6FF7606EA05252A434DF6F0
:1023E000FF752B400D8906EA05352B434D8806EA1B
:1023F00005352B43FA4DA84202D0FA4DA84208D128
:102400004BF6FF752C408D894FF6FF7606EA851551
:102410002C4384808283CD88A0F84050038470BD13
:10242000828B4FF2FF331A408283828B4FF6FF7309
:1024300003EA01231A4382837047F0B50C46154620
:10244000002200210026078C4EF6FF7C07EA0C07CD
:102450000784828B018C4FF6FF7707EA043640F63B
:10246000FF473A404FF6FF7707EA05273A434FF612
:10247000FF7707EA03373A43D94FB8420ED0D94F16
:10248000B8420BD0B0F1804F08D0D74FB84205D03A
:10249000D64FB84202D0D64FB84206D14DF6FF779C
:1024A000394046F48057394305E047F6FF57394035
:1024B00044F48057394382830184F0BD828B4FF608
:1024C000F3731A408283828B0A4382837047F0B58C
:1024D0000C461546002200210026078C4FF6FF6CA3
:1024E00007EA0C070784828B018C4FF6FF7707EA17
:1024F00004264FF60C773A404FF6FF7707EA0317AA
:102500002F433A43B64FB8420ED0B64FB8420BD025
:10251000B0F1804F08D0B44FB84205D0B34FB842A5
:1025200002D0B34FB84206D14FF6FF57394046F4B8
:102530008077394305E04FF2FF57394044F4807704
:10254000394382830184F0BD028B4FF2FF331A407E
:102550000283028B4FF6FF7303EA01231A430283BF
:102560007047F0B50C461546002200210026078C66
:102570004FF6EF7C07EA0C070784028B018C4FF6BD
:10258000FF7707EA041640F6FF473A404FF6FF7719
:1025900007EA03373A434FF6FF7707EA05273A433E
:1025A0008F4FB8420ED08F4FB8420BD0B0F1804F52
:1025B00008D08D4FB84205D08C4FB84202D08C4F16
:1025C000B84206D14FF6DF77394046F0100739435D
:1025D00005E04FF65F77394044F010073943028336
:1025E0000184F0BD028B4FF6F3731A400283028B15
:1025F0000A4302837047F0B50C46154600220021BD
:10260000068C4FF6FE773E400684028B018C4FF617
:102610000C7632407E1C06EA03162E433243704E7F
:10262000B0420ED06F4EB0420BD0B0F1804F08D008
:102630006D4EB04205D06D4EB04202D06C4EB042ED
:1026400006D14FF6FD76314044F00106314305E0F6
:102650004FF6F576314044F00106314302830184A0
:10266000F0BD70B505460C465D4885420ED05D480C
:1026700085420BD0B5F1804F08D05B48854205D02C
:102680005A48854202D05A48854200D100E000BF36
:10269000208850B92389A28861882846FFF7ABFFBC
:1026A000E1882846FFF79EFF25E0208804280AD10C
:1026B0002389A28861882846FFF753FFE1882846CE
:1026C000FFF742FF17E0208808280AD12389A28853
:1026D00061882846FFF7FBFEE1882846FFF7EEFEFB
:1026E00009E02389A28861882846FFF7A6FEE188D1
:1026F0002846FFF795FE70BD2DE9F04105460C46D2
:1027000000260127608808B9022600E00026A0887C
:10271000012801D1022700E001272088A0B92389E0
:10272000A28861882846FFF766FFE1882846FFF700
:1027300059FF23893A4631462846FFF712FFE188C0
:102740002846FFF701FF13E02389A2886188284605
:10275000FFF707FFE1882846FFF7F6FE23893A4690
:1027600031462846FFF747FFE1882846FFF73AFF42
:10277000BDE8F0810A884B881A438B881A43CB88BE
:102780001A430B891A434B891A438B891A43A0F8C1
:10279000442070474FF6FF71818000210180C18085
:1027A0004180017270470021018041808180C18099
:1027B000018141818181C181704700210180418077
:1027C000012181800021C1800181704700210180A9
:1027D00041808180C18001814181818170470000F9
:1027E000002C01400034014000040040000800407B
:1027F000000C004021B1028842F00102028004E096
:1028000002884FF6FE731A400280704731B1B0F86B
:10281000442042F40042A0F8442005E0B0F84420EF
:10282000C2F30E02A0F8442070471AB183890B430B
:10283000838102E083898B43838170478182704763
:1028400041EA0203A0F8483070471AB183890B436C
:10285000838102E083898B438381704701894FF62E
:10286000F8721140018170470A46002101894FF634
:102870008F73194011430181704730B504460D46EE
:1028800029462046FFF7F0FF208940F0070020810D
:1028900030BD2DE9F04104460D4616461F46602D19
:1028A00006D13B46012231462046FFF75AFE05E09D
:1028B0003B46012231462046FFF79DFE2946204631
:1028C000FFF7D2FF208940F007002081BDE8F081AA
:1028D00030B50C4600210189C9B24FF6FF7505EAF3
:1028E0000325154325432943018130BD2DE9F041DE
:1028F00005460E4617469846002443463A4631465A
:102900002846FFF7E5FF2C894FF6F870044044F0A5
:1029100007044FF68F70044044F070042C81BDE82A
:10292000F081F0B504460D4616461F463B4632463A
:1029300029462046FFF7CCFF208940F480402081C3
:10294000F0BD0185828270470A46002101884FF65A
:102950008F731940114301807047F0B50C4615463E
:102960001E460021002200230189028B038C4FF6B2
:10297000F877394021434FF6FC473A4040F20117BF
:102980003A434FF6DD773B404FF6FF7707EA0617ED
:102990002F433B43018102830384F0BD0A4600219B
:1029A000018B4FF68F7319401143018370470A461C
:1029B0000021018B48F6FF7319404FF6FF7303EABD
:1029C00002231943018370470A460021818B4FF689
:1029D0008F7319401143818370470A460021818B10
:1029E00048F6FF7319404FF6FF7303EA02231943B9
:1029F0008183704721B1028842F08002028004E0A6
:102A000002884FF67F731A400280704721B1828896
:102A100042F00402828004E082884FF6FB731A4081
:102A20008280704721B1828842F00802828004E0EF
:102A300082884FF6F7731A408280704721B18288EE
:102A400042F00102828004E082884FF6FE731A4051
:102A5000828070470A460021018B4FF6F7731940B8
:102A60001143018370470A460021018B4FF2FF7327
:102A700019404FF6FF7303EA02231943018370479D
:102A80000A460021818B4FF6F77319401143818369
:102A900070470A460021818B4FF2FF7319404FF6B1
:102AA000FF7303EA02231943818370470A4600211A
:102AB000018B4FF6FB7319401143018370470A469F
:102AC0000021018B4FF6FF3319404FF6FF7303EAE5
:102AD00002231943018370470A460021818B4FF678
:102AE000FB7319401143818370470A460021818B93
:102AF0004FF6FF3319404FF6FF7303EA02231943E1
:102B0000818370470A460021018B4FF67F7319407D
:102B10001143018370470A460021018BC1F30E0166
:102B20004FF6FF7303EA02231943018370470A46F5
:102B30000021818B4FF67F731940114381837047C9
:102B40000A460021818BC1F30E014FF6FF7303EAA1
:102B500002231943818370470A460021018C4FF6F6
:102B6000FD7319401143018470470A460021018C0E
:102B70004FF6F77319401143018470470A4600214C
:102B8000018C4FF6DF7319404FF6FF7303EA02130F
:102B90001943018470470A460021018C4FF67F7368
:102BA00019404FF6FF7303EA02131943018470477B
:102BB0000A460021018C4FF6FF5319404FF6FF7370
:102BC00003EA02231943018470470A460021018C5D
:102BD0004FF2FF7319404FF6FF7303EA02231943C4
:102BE000018470470A460021018C4DF6FF7319409D
:102BF0004FF6FF7303EA023319430184704730B57F
:102C0000002301248C40A3B2048C9C430484048CD4
:102C100002FA01F5ADB22C43048430BD30B5002377
:102C200004248C40A3B2048C9C430484048C02FAD8
:102C300001F5ADB22C43048430BD70B503460020CD
:102C400000241846183001258D40ACB21D8CA543D8
:102C50001D8409B1082909D100EB6100056825F040
:102C6000700505600568154305600EE00D1FC5F38E
:102C70004E052844056825F4E045056005684FF6D3
:102C8000FF7606EA02263543056070BD21B1028851
:102C900042F00202028004E002884FF6FD731A40FF
:102CA0000280704721B1028842F00402028004E0F1
:102CB00002884FF6FB731A400280704721B1828868
:102CC00042F08002828004E082884FF67F731A40CF
:102CD0008280704702884FF6F7731A40028002889C
:102CE0000A430280704782884FF68F731A408280B1
:102CF00082880A438280704702894FF6F8731A402F
:102D0000028102890A430281704702894FF67F736C
:102D10001A40028102890A43028170478184704708
:102D2000818570478186704701877047818770472A
:102D3000A0F84010704702884FF6FF431A40028007
:102D400002880A43028070470146888E7047014618
:102D5000088F70470146888F70470146B1F84000E0
:102D600070470146888C70470146088D70470246BF
:102D70000020138A0B400BB1012000E000207047B7
:102D8000CA430282704730B5024600200023002467
:102D9000158A05EA0103958905EA010413B10CB10E
:102DA000012000E0002030BDCA43028270470000CD
:102DB00010B50446FA48844208D101214015FEF7B7
:102DC0002DFE00216015FEF729FE17E0F54884422C
:102DD00008D101210015FEF721FE00212015FEF784
:102DE0001DFE0BE0F048844208D10121C803FEF724
:102DF00015FE00214FF40040FEF710FE10BD30B567
:102E00000246002000235068E84C20400D790C68F1
:102E100044EA0524204350609068E54C2040D1E905
:102E200002542C434D7944EA450420439060D06A13
:102E300020F470000C7C641EE4B2234340EA03508B
:102E4000D06230BD00210160017141718160C160BB
:102E500001210174704721B1826842F00102826051
:102E600003E0826822F001028260704721B182682B
:102E700042F48072826003E0826822F48072826091
:102E8000704710B50023CBB21AB144681C434460AC
:102E900002E044689C43446010BD816841F0080131
:102EA00081607047014600208A6802F008020AB17A
:102EB000012000E000207047816841F0040181603A
:102EC0007047014600208A6802F004020AB101201E
:102ED00000E00020704721B1826842F4A0028260C5
:102EE00003E0826822F4A00282607047014600205D
:102EF0008A6802F480020AB1012000E000207047D5
:102F000010B50A4600210023416821F46041531E98
:102F100041EA4331416010BD21B1426842F4006290
:102F2000426003E0426822F4006242607047F0B5FC
:102F300004460D4600200021092D11DDE068A5F1B1
:102F40000A0606EB4607072606FA07F18843A5F1AD
:102F50000A0606EB460603FA06F10843E0600CE0B9
:102F6000206905EB4507072606FA07F1884305EBBC
:102F7000450603FA06F108432061072A0FDA606B61
:102F8000561E06EB86071F2606FA07F18843561ED3
:102F900006EB860605FA06F10843606322E00D2A77
:102FA0000FDA206BD61F06EB86071F2606FA07F1FD
:102FB0008843D61F06EB860605FA06F10843206310
:102FC00010E0E06AA2F10D0606EB86071F2606FA5E
:102FD00007F18843A2F10D0606EB860605FA06F115
:102FE0000843E062F0BD21B1826842F48012826041
:102FF00003E0826822F48012826070470146C86C48
:1030000080B2704766484C300068704721B1426812
:1030100042F48062426003E0426822F480624260CF
:10302000704721B1426842F48052426003E0426836
:1030300022F48052426070470A460021816821F4E0
:10304000E04111438160704721B1826842F400423F
:10305000826003E0826822F400428260704721B1FE
:10306000826842F40212826003E0826822F4021253
:1030700082607047014600208A6802F400120AB19B
:10308000012000E000207047F0B5044615460020FE
:1030900000220026092911DDE068A1F10A0707EBEB
:1030A000470C072707FA0CF29043A1F10A0707EB38
:1030B000470703FA07F21043E0600CE0206901EBD8
:1030C000410C072707FA0CF2904301EB410703FA82
:1030D00007F210432061A06BC0F30156EF1C06F10C
:1030E000010CA7EB0C0707EB870C1F2707FA0CF264
:1030F0009043EF1C06F1010CA7EB0C0707EB8707C9
:1031000001FA07F21043A063F0BD10B50A46002192
:103110000023816B21F44011531E41EA0351816366
:1031200010BD08B5002300930090009B0B44009352
:10313000009B1A6008BD08B502460020009000926E
:1031400001F12800009B184400900098006880B2AC
:1031500008BD0A4600214168164B194011434160E1
:1031600070474162826270470A460021416821F03F
:103170001F0111434160704740B109490831096896
:1031800041F40001064A0832116007E004490831A1
:10319000096821F40001024A0832116070470000FA
:1031A0000024014000280140003C0140FFFEF0FFE8
:1031B000FDF7F1FFFFFD3FFF0246002013680B40C3
:1031C0000BB1012000E000207047CA430260704745
:1031D00070B502460020002300240B125568CEB2C1
:1031E00005EA060415681D4015B10CB1012000E088
:1031F000002070BD00220A12D3430360704770475D
:103200007047704770477047754600F029F8AE4622
:1032100005006946534620F00700854618B020B5E2
:10322000FEF7B4F8BDE820404FF000064FF000076D
:103230004FF000084FF0000B21F00701AC46ACE85E
:10324000C009ACE8C009ACE8C009ACE8C0098D46CB
:1032500070470446AFF300802046FCF7D4FF00001F
:1032600000487047600B002021F00042A2F160523C
:10327000B2F5801F01F0004328BFD2F17F6C0BD95B
:103280005FEA001C43EAC20242EB507018BF70476D
:1032900028BF20F001007047B2F5801FBCBF184660
:1032A00070474FEA410C1CF5001F02D2084600F09F
:1032B000EABC70B500F028F900000089FFF7F6BFFE
:1032C0004FF00040A0F580007047000010B591EA73
:1032D000030F48BF83F0004300F1A881841A71EB0B
:1032E000030C05D2121943EB0C03001B61EB0C011C
:1032F000DFF824E14FEA1154A4EB135C1EEA430FFC
:1033000018BF9EEA445F73D023EA0E03DCF1200E5F
:1033100021EA045143F4801332D322FA0CFE10EB5D
:103320000E0023FA0CFE41EB0E01CCF1200E03FA45
:103330000EFE10EB0E0051F10001B1F5801FCCF133
:10334000200E32D201EB045112FA0EF2BDE8104009
:1033500058BF7047401C38BF5FEA420218BF704731
:10336000002814BF20F0010041F100014FEA4103A1
:1033700013F5001F38BF7047A1F1C04100F012B92A
:10338000012A43EB0302ACF1200CDCF11F0E32BF2B
:103390004FF0000E23FA0CF310EB030041EB045145
:1033A000B4EB115FD0D0A1EB045101F580114908B5
:1033B0005FEA300001EB04510ED350F1000038BF3A
:1033C00012FA0EFE08D1BDE81040C9E7401C38BF14
:1033D0005FEA4202CAD1C3E7BDE810404FEA4103A9
:1033E00013F5001F38BF7047A1F1C04100F0DAB8F3
:1033F0009EEA445F08D011EA5E0FBDE8104004BFAA
:1034000001F0004100207047BDE8104070B500F0A9
:103410007BF800BF64FBBE3E0000E0FF491058BFD0
:10342000C1F140415B1058BFC3F140438B42EFF301
:10343000008070474FEA1153A3F58063D3F11E0358
:10344000A8BFD3F1200C08DB4FF0004242EAC122B2
:1034500052EA505232FA03F0704709420BD4102B53
:10346000C4BF0020704703F5787CBCF1FF3F05D056
:103470004FF0FF3070474FF00000704770B500F01C
:1034800043F800BF4992248000207047F0E7000015
:1034900051EA030C17D41CF5801F58BFBCF5801FE0
:1034A00000F10680994218BF704708BF90427047EC
:1034B00007D711F5801F58BF13F5801F19D4994203
:1034C0007047894270471CF5801F08D5BCF5801FE6
:1034D000F7D58B4218BF704708BF824270474FF440
:1034E000001C1CEB410F38BF1CEB430F01D28B4279
:1034F000704770B500F008F8922449004FF0005171
:103500004FF08053FFF78ABF0EF1020E2EF0030E2C
:103510005EF8046B364205D4012A43EB030515F52A
:10352000001F12D8012841EB010C1CF5001F0CD81C
:103530000ED14FEAD17C15F5001F0CEB4C0C0CF1B1
:10354000020C08BF4CEBD37C04E04FF0080C01E008
:103550004FEAD37C0CEB4C0526FA05F606F007067D
:10356000B6F1040C06D20EEB860CBDE870404CF0B0
:10357000010C6047DFE80CF0090B02024FF000413C
:103580004FF00000A1F5002170BD1946104601283A
:1035900051EB010418BFD4F5001484BF002001F0E2
:1035A000004170BD0808A0F500114FEA31017047D5
:1035B00053EA010C17D41CF5801F58BFBCF5801FBF
:1035C00000F106808B4218BF704708BF82427047E7
:1035D00007D713F5801F58BF11F5801F19D48B42F0
:1035E00070479B4270471CF5801F08D5BCF5801FB3
:1035F000F7D5994218BF704708BF904270474FF403
:10360000001C1CEB430F38BF1CEB410F01D2994249
:1036100070470FB40CBC03BCFFF76BBF10B591EA49
:10362000030F48BF83F000433FF558AE841A71EB97
:10363000030C07D212198CF0004C43EB0C03001B57
:1036400061EB0C01DFF8A4E14FEA1154A4EB135C29
:103650001EEA430F18BF9EEA445F00F0B08023EAE1
:103660006E03524221EA0451C3EB6E0338BF5B1E66
:10367000DCF1200E25D322FA0CFE10EB0E0043FAEB
:103680000CFE41EB0E01CCF1200E03FA0EFE10EB06
:103690000E0051F10001CCF1200E29D412FA0EF2E5
:1036A00001EB0451BDE8104058BF7047401C1CBFDF
:1036B000B2F1004F704700280CBF491C20F00100F8
:1036C000704712EB020E43EB030218BF4FF0010EDE
:1036D0004EEA4202ACF1200CDCF11E0E54D943FA42
:1036E0000CFE10EB0E0051F1FF31CCF11E0ED5D5C2
:1036F0000EF1010E12FA0EFE404141EB010101EB09
:10370000445C5FEA5C5C10D910EBDE7001EB0451A5
:1037100038BFBEF1004FBDE8104018BF7047002809
:103720000CBF491C20F00100704730D24FEAD42C66
:1037300011F5001124F400641BD0B1FA81F20B3AA8
:10374000A41AA41ED2F12003914030FA03F31943C6
:10375000904001EBCC71002C01EB0451BDE810400E
:10376000A8BF704701F1C0414FF0000001F00041D7
:103770007047B0FA80F310FA03F100D110BDE41ADB
:10378000173C4805C90AE4E701EB045110BD491094
:1037900001EB0451BDE810404FEA300002E04FF069
:1037A000000170474A0008BF0042F8D0B2F5001F80
:1037B00028BF704701F000414FF0000070479EEABB
:1037C000445F07D011EA5E0FBDE8104004BF00213E
:1037D00000207047BDE8104070B5FFF795FE00BFB0
:1037E00040DFF63E83F00041104670470000E0FFE6
:1037F00043004FEAD30C4FEA3C0C43401FBF400745
:103800000CF1605113F0FE4F70471CF0006F03D1B4
:1038100000200CF0004170470CF0004343EA507068
:1038200010B540EACC0000F0E8F900BF00000092BB
:103830004FEA0001FFF7B6BE4FF000414FF0000025
:10384000A1F500217047000090EA010F48BF81F008
:10385000004100F12482421A3CBF801A89184FEAC5
:10386000D0524FF07F4C1CEA410FA2EBD15318BF4E
:103870009CEA026F00F03B804FF0004C4CEA0020C5
:103880004CEA012121FA03FC10EB0C0C1ED202F1D0
:10389000FF325FEA1C2040EBC25038BF70471CF07B
:1038A0007F0F4FEA400C18BFBCF17F4F38BF704705
:1038B000C3F12003994008BF20F00100BCF17F4F05
:1038C00038BF7047A0F1C04000F0DDB94FEA3C00BE
:1038D000000A40EBC25028BF1CF0FF0F4FEA400C1B
:1038E000E6D018BFBCF17F4F38BF7047EAE79CEACB
:1038F000026F05D010EA5C0F08BF00F0004070476F
:1039000010B500F07AF900BF64FBBE3E4FF47F0CA7
:103910001CEAD0121EBF1CEAD11392EA0C0F93EAE4
:103920000C0F00F0858090EA010F48BF42F48072CE
:1039300040F4000C41F400002CF07F4120F07F4067
:1039400000B58142A2EB03020FF2081CACEB504E13
:10395000C0F100009EF800E04FEA4E0E00FB0EFCA6
:1039600038BF49004FEA2C1C02F5FA020CFB0EF39B
:103970004FEACE1E4FEA112C4FEAC1210EEB635ED7
:1039800042EB22420EFB0CFC4FEA1C5300FB0311DE
:103990004FEA112C4FEA01310EFB0CFC4FEADC4CD4
:1039A00000FB0C11C14228BF09184CEB03335DF832
:1039B00004EB10EB410143EBC250B2F57C0F38BF72
:1039C000704729D512F0F00F1CBF00F1C04000F085
:1039D00000407047008182838485868788898B8C2C
:1039E0008D8E8F919293959697999A9C9D9FA0A268
:1039F000A3A5A7A8AAACAEB0B2B3B5B7B9BCBEC0B8
:103A0000C2C5C7C9CCCED1D4D7D9DCDFE2E6E9EC58
:103A1000F0F3F7FAFE0000004FEA400C0CF1807C56
:103A2000BCF17E4F28BF7047B0F1C04000F02BB909
:103A300090EA010F0CEAD11348BF42F4807262454C
:103A400038BF634507D213F47F0F16D080EA010018
:103A500000F00040704710B500F0CFF8097EFC3E42
:103A600000F005B880EA010000F00040704780EAED
:103A7000010000F0004000F006B912F47F0F04BF0F
:103A80000248704780EA010000F0FDB80000C07FE6
:103A9000C10DD1F19E0206DB4FEA002343F0004343
:103AA00023FA02F07047004207D54FEA4001B1F116
:103AB000FE4F02D24FF00000704710B500F09DF8A5
:103AC00049922480002070476FEA20007047000070
:103AD000B0FA80F310FA03F2C3F19D030AD0D905BE
:103AE00001EB1220530638BF704700F1010008BFF8
:103AF00020F00100704700004FF47F0C1CEAD01248
:103B00001EBF1CEAD11392EA0C0F93EA0C0F00F0CF
:103B1000478090EA010F48BF42F480724FF0004C9A
:103B20004CEA00204CEA012102EB0302A0FB011346
:103B3000A2F50002002918BF43F001035B0028BF73
:103B40004FEA330342EB22425FEA132C4CEBC250A4
:103B50002EBFBCEB436FB2F57C0F70474FEA036C8E
:103B6000BCF1004F08BF20F00100B2F57C0F38BF58
:103B700070470BD582F0FF0212F5803FC8BF704737
:103B800000F1C040D8BF00F00040704700F5000CC5
:103B90005FEA4C0C48BF7047B0F1C04000F073B80A
:103BA00090EA010F0CEAD11348BF42F480726245DB
:103BB00038BF634504D280EA010000F0004070473E
:103BC00010B500F01AF800BF8900013E00F007B8F8
:103BD00000F009B85FEA410C5FEA1C6C08D080EA8B
:103BE000010000F050B85FEA400C5FEA1C6CF6D1AF
:103BF0004FF00040A0F5800070470EF1020E2EF04D
:103C0000030E5EF8044B244204D44FEA4102B2F1A1
:103C10007F4F11D84FEA4003B3F17F4F0CD80ED13C
:103C20004FEAD07CB2F17F4F0CEB4C0C0CF1020C44
:103C300008BF4CEBD17C04E04FF0080C01E04FEAE8
:103C4000D17C0CEB4C0324FA03F404F00704B4F128
:103C5000040C06D20EEB840CBDE810404CF0010CB5
:103C60006047DFE80CF0070802024FF00040A0F5C3
:103C7000800010BD0846420018BFD2F1807288BF94
:103C800000F0004010BDFF2141EAD050C005704750
:103C900090EA010F48BF81F000413FF5DCAD421AC8
:103CA00004D882F00042A0EB020011444FEAD05247
:103CB0004FF07F4C1CEA410FA2EBD15318BF9CEA96
:103CC000026F4AD04FF0004C4CEA00204CEA012130
:103CD00021FA03FCB0EB0C0C0FD412F0FE0F36D01F
:103CE0005FEA4C001DD5001240EBC25038BF704750
:103CF0001CF03F0F18BF70470BE0A2F101025FEA12
:103D00001C2040EBC25038BF70471CF07F0F18BF1B
:103D10007047C3F12003994014BF401E20F00100FA
:103D2000704780084FEA122308BF7047B0FA80FC42
:103D3000A2EB0C02CCF1280C60FA0CF093EA122FE3
:103D400004BF00EBC25070474FEAC3707047130ABC
:103D50005FEADC1008BF7047F6E79CEA026F04D008
:103D600010EA5C0F08BF0020704710B5FFF745FF51
:103D700040DFF63E81F00040704700001FE0124037
:103D8000124012401240FFFC1242124212421242F2
:103D90003FE21002000E000000000002000C7FF065
:103DA000400241024102410241027FFE4102414282
:103DB0004122C33241060002000010106110412070
:103DC000554155F97F425542D55C55427F4255F9E0
:103DD0005541412051306020000002103EE10202B6
:103DE000FFF4120836F052014FF1480258046BF804
:103DF00048044802DFF34800000000102890251016
:103E0000221020902490AD9076FF2490299020D00D
:103E10002210651028B0001000000400840067FC28
:103E2000000900127FFC4100497C49487F4849480D
:103E30004B7A4101FFFE40000000020006007AFCC0
:103E400012801280FFFF1288328416F802001FE0F1
:103E500000020001FFFE00000000000200043FF924
:103E60002401244224423F64A554654825543F64FC
:103E700024422C02640320020000010002000FFC17
:103E80003202C242222213C2080E0C0000001FE0C0
:103E900000020001FFFE00000000020422882A92B6
:103EA000A68163FE26806BA0229402183FE02200C8
:103EB0004200C3FF4600020000000840304120419C
:103EC0002242314229C4AC4860702FC020502048A3
:103ED0002044204228C33040000040085F8C4088C6
:103EE0004092FF9142FE04420A3A3202C2F2320686
:103EF0000A1A04E206060402000008003002240246
:103F0000249225922692A49264FE249224922592D1
:103F10002CD2240628023000000000802084208457
:103F20002888249020A020C02BFF24C040A04490CB
:103F30004890D888418C00880000082008C00B00F9
:103F4000FFFF0A2019209220522032201FFF32202A
:103F500056209220106000200000084049412A723B
:103F60000CCCFF440A4A29714C021BC4E8280810F3
:103F700008680F861803080200000040084030401F
:103F8000244024402442A44164FE2540264024408D
:103F90002040284030C0004000000400040104011B
:103FA0007DF555555555555555FF5555555555554F
:103FB000FDF544010C0104000000000000000000B9
:103FC000000000000000000000003F400000000072
:103FD00000000000300040003000400000000900F8
:103FE0000BC03D000BC03D00090018C024407FE01D
:103FF000224031800000180024C01B000D80324098
:10400000018003801C4027401C80074000401000B6
:104010006000000000000000000000000000000040
:104020001F80204040200000402020401F800000D2
:104030000000090006001F800600090000000400BF
:1040400004003F8004000400000000100060000035
:10405000000000000000040004000400040004004C
:1040600000000000004000000000000000000020F0
:1040700001C006003800400000001F8020402040A2
:1040800020401F800000000010403FC000400000A2
:10409000000018C021402240244018400000108039
:1040A0002040244024401B80000002000D0011002D
:1040B0003FC0014000003C80244024402440238035
:1040C00000001F8024402440344003800000300062
:1040D000200027C03800200000001B80244024401E
:1040E00024401B8000001C0022C0224022401F8070
:1040F0000000000000000840000000000000000078
:1041000000000460000000000000000004000A003D
:104110001100208040400900090009000900090041
:10412000000000004040208011000A000400180038
:10413000200023402400180000001F80204027405A
:1041400029401F400000004007C039000F0001C097
:10415000004020403FC0244024401B8000001F80BE
:104160002040204020403080000020403FC02040C0
:1041700020401F80000020403FC024402E4030C01F
:10418000000020403FC024402E00300000000F00FF
:104190001080204022403380020020403FC00400B5
:1041A00004003FC02040204020403FC0204020402D
:1041B00000000060202020203FC020002000204080
:1041C0003FC024400B0030C0204020403FC0204072
:1041D0000040004000C03FC03C0003C03C003FC066
:1041E000000020403FC00C4023003FC020001F8043
:1041F0002040204020401F80000020403FC024403D
:104200002400180000001F802140214020E01FA052
:10421000000020403FC02440260019C0004018C0C4
:1042200024402440224031800000300020403FC024
:1042300020403000000020003F80004000403F80D0
:10424000200020003E0001C0070038002000380098
:1042500007C03C0007C038000000204039C00600FD
:1042600039C0204000002000384007C038402000FE
:104270000000304021C02640384020C0000000002F
:1042800000007FE0402040200000000070000C0093
:104290000380004000000000402040207FE000003C
:1042A000000000002000400020000000000000107E
:1042B000001000100010001000100000000040006E
:1042C000000000000000000002800540054003C01F
:1042D000004020003FC00440044003800000000074
:1042E00003800440044006400000000003800440B6
:1042F00024403FC0004000000380054005400340CB
:104300000000000004401FC02440244020000000A2
:1043100002E0055005500650042020403FC00440F4
:10432000040003C000400000044027C0004000001B
:10433000000000100010041027E0000000002040E2
:104340003FC00140070004C00440204020403FC05F
:1043500000400040000007C0040007C0040003C084
:104360000000044007C00440040003C000400000F7
:1043700003800440044003800000041007F0045050
:10438000044003800000000003800440045007F054
:104390000010044007C002400400040000000000B8
:1043A00006400540054004C00000000004001F80D6
:1043B000044000400000040007800040044007C0A3
:1043C00000400400070004C001800600040006004D
:1043D00001C0070001C006000000044006C0010043
:1043E00006C0044000000410071004E0018006002D
:1043F00004000000044005C0064004400000000026
:10440000000004007BE040200000000000000000ED
:10441000FFF000000000000040207BE004000000EE
:10442000000040008000400020002000400000000C
:10443000000000000000000000000000000000007C
:10444000000000001FCC000C000000000000000075
:10445000080030006000080030006000000002200A
:1044600003FC1E20022003FC1E200220000000008E
:104470000E1811043FFF10840C78000000000F009C
:1044800010840F3800C00778188400780000007886
:104490000F8410C411240E9800E400840008080062
:1044A0006800700000000000000000000000000034
:1044B0000000000007E0181820044002000000007F
:1044C00040022004181807E000000000000002402D
:1044D000024001800FF00180024002400000008095
:1044E000008000800FF80080008000800000000144
:1044F000000D000E000000000000000000000000A1
:10450000008000800080008000800080008000002B
:10451000000C000C00000000000000000000000083
:10452000000600180060018006001800200000004E
:1045300007F0080810041004080807F00000000045
:10454000080408041FFC0004000400000000000030
:104550000E0C10141024104411840E0C00000000E6
:104560000C1810041104110412880C7000000000D3
:1045700000E00320042408241FFC002400000000A5
:104580001F9810841104110410881070000000009E
:1045900007F008881104110418880070000000005A
:1045A0001C00100010FC13001C0010000000000094
:1045B0000E3811441084108411440E38000000009D
:1045C0000700088C10441044088807F00000000021
:1045D00000000000030C030C0000000000000000BD
:1045E00000000001010600000000000000000000C3
:1045F000008001400220041008081004000002207E
:1046000002200220022002200220022000000000DE
:10461000100408080410022001400080000000007F
:104620000E001200100C106C10800F00000003E050
:104630000C1813E4142417C4082807D00000000441
:10464000003C03C41C40074000E4001C00041004AC
:104650001FFC1104110411040E880070000003E017
:104660000C1810041004100410081C100000100492
:104670001FFC100410041004080807F000001004C8
:104680001FFC1104110417C41004081800001004C2
:104690001FFC1104110017C010000800000003E007
:1046A0000C181004100410441C7800400000100482
:1046B0001FFC10840080008010841FFC1004000088
:1046C000100410041FFC100410040000000000037C
:1046D0000001100110011FFE100010000000100466
:1046E0001FFC110403801464181C10040000100443
:1046F0001FFC1004000400040004000C000010045F
:104700001FFC1F0000FC1F001FFC10040000100411
:104710001FFC0C04030000E010181FFC100007F041
:104720000808100410041004080807F00000100422
:104730001FFC10841080108010800F00000007F014
:10474000081810241024101C080A07F20000100496
:104750001FFC1104110011C011300E0C00040000E8
:104760000E1C11041084108410441C380000180022
:10477000100010041FFC10041000180000001000AE
:104780001FF810040004000410041FF810001000AB
:104790001E0011E0001C007013801C0010001FC0E0
:1047A000103C00E01F0000E0103C1FC0000010049F
:1047B000180C163401C001C01634180C1004100077
:1047C0001C00130400FC13041C001000000008046B
:1047D000101C1064108413041C0410180000000046
:1047E000000000007FFE4002400240020000000086
:1047F00030000C0003800060001C0003000000007B
:104800004002400240027FFE000000000000000065
:104810000000200040004000400020000000000197
:104820000001000100010001000100010001000081
:1048300040004000200000000000000000000000D8
:104840000098012401440144014400FC00041000CC
:104850001FFC0088010401040088007000000000B3
:1048600000700088010401040104008800000000B9
:10487000007000880104010411081FFC00040000FE
:1048800000F8014401440144014400C80000000054
:10489000010401040FFC11041104110018000000B0
:1048A00000D601290129012901C9010600001004CF
:1048B0001FFC008401000100010400FC0004000052
:1048C0000104190419FC00040004000000000000A9
:1048D000000300010101190119FE0000000010048D
:1048E0001FFC0024004001B4010C01040000000082
:1048F000100410041FFC0004000400000000010468
:1049000001FC0104010001FC0104010000FC0104A0
:1049100001FC008401000100010400FC000400000F
:1049200000F8010401040104010400F80000010181
:1049300001FF0085010401040088007000000000F0
:104940000070008801040104010501FF0001010459
:10495000010401FC0084010401000180000000004A
:1049600000CC01240124012401240198000000004E
:104970000100010007F8010401040000000001002B
:1049800001F8000400040004010801FC0004010017
:1049900001800170000C001001600180010001F035
:1049A000010C003001C00030010C01F001000000DA
:1049B0000104018C00740170018C010400000101EC
:1049C00001810171000E00180160018001000000EA
:1049D0000184010C013401440184010C0000000039
:1049E00000000000000001003EFC40024002000008
:1049F000000000000000FFFF0000000000000000B9
:104A0000400240023EFC01000000000000000000E7
:104A10006000800080004000400020002000000076
:104A20000000000000000000000000000000000086
:104A30000000000000000000000000000000000076
:104A40000000000000000000000000000000000066
:104A5000000F80380FFE380F803800000000000083
:104A6000000000000000000000000000010000063F
:104A700000000C00003800003100000600000C00AF
:104A800000380000300000000000000000006180DD
:104A90000067F807F9800061800061800061800094
:104AA00061800067F807F980006180000000000065
:104AB0000000000001C0E003E0F006300804180820
:104AC0001FFFFE040E080787F00381E000000000CE
:104AD000000001F000060C00040408060C7001F947
:104AE000C0000E00003BE000EC18070808040C189A
:104AF0000003E00000000001E00007F003F81804E4
:104B00001C0804170807E1D003C0E00023B0003CF4
:104B10000800200800001000000000000001000054
:104B20003100003200001C00000000000000000006
:104B30000000000000000000000000000000000075
:104B400000000000000000000000000000007F00E6
:104B500001FFC00780F00C001810000420000200C4
:104B600000000000002000021000040C0018078064
:104B7000F001FFC0007F0000000000000000000006
:104B8000000000000000000000004200006600007D
:104B90006600003C0000180003FFC0001800003C45
:104BA00000006600006600004200000000000800EF
:104BB00000080000080000080000080001FFC00015
:104BC00008000008000008000008000008000000BD
:104BD0000000000100003100003200001C00000055
:104BE00000000000000000000000000000000000C5
:104BF0000000000000000800000800000800000895
:104C0000000008000008000008000008000008007C
:104C10000008000000000000000000000000380054
:104C20000038000038000000000000000000000014
:104C3000000000000000000000000000000000066E
:104C400000001C000070000180000E000038000011
:104C5000C0000700001C0000300000000000000041
:104C600000007F8001FFE003807006001804000848
:104C700004000806001803807001FFE0007F800038
:104C80000000000000000000010008010008010011
:104C90000803FFF807FFF8000008000008000008FC
:104CA00000000000000000000001C03802C05804ED
:104CB0000098040118040218040418061C1803F8CC
:104CC0001801E0F800000000000000000001C0E052
:104CD00003C0F004000804080804080806180803C4
:104CE000F41801E7F00001E00000000000000000FF
:104CF00000000300000D00001100006100008108A9
:104D000003010807FFF80FFFF80001080001080081
:104D100000000000000000E007FCD00608080610B4
:104D200008061008061008061838060FF00607C017
:104D3000000000000000000000003F8001FFE003D1
:104D4000843002081804100804100804100807181A
:104D500010030FF00007C00000000000000000007A
:104D600003C0000700000600000600F80607F8066A
:104D7000180006E000070000060000000000000028
:104D80000001E1E003F7F0063410041808041808E5
:104D9000040C08040C0806161803F3F001C1E00027
:104DA000000000000000F80003FC30030638040295
:104DB000080402080402080404100308F001FFC0FC
:104DC000007F000000000000000000000000000064
:104DD00000000000000070380070380070380000DB
:104DE00000000000000000000000000000000000C3
:104DF00000000000000000000000301A00301C001D
:104E000000000000000000000000000000000000A2
:104E10000000000000080000140000220000410013
:104E200000808001004002002004001008000800FB
:104E300000000000000021000021000021000021EE
:104E400000002100002100002100002100002100BD
:104E5000002100000000000000000000080008041D
:104E6000001002002001004000808000410000226C
:104E70000000140000080000000000000003C00053
:104E800004C000040000080038080F38080838087B
:104E900010000C300007E00003C00000000000001C
:104EA00000003F8000FFE0038070020F1006708852
:104EB00004C088048308047F8802C0900301200096
:104EC000FE400000080000180001F8003E0801C282
:104ED0000007020007E20000FE00001FC80001F802
:104EE00000003800000804000807FFF807FFF80476
:104EF000080804080804080804080806180803F449
:104F00001801E7F00001E0000000000000003F8011
:104F100001FFE00380700200180400080400080488
:104F200000080400100600200780C00000000400F4
:104F30000807FFF807FFF804000804000804000849
:104F400004001802001003807001FFE0007F800061
:104F5000000004000807FFF807FFF8040808040829
:104F600008040808040808043E080400080600189D
:104F700001006000000004000807FFF807FFF804C4
:104F80000808040800040800040800043E000600A5
:104F900000060000018000000000000000003F80CB
:104FA00001FFE003807006001804000804020804F2
:104FB00002080203F00783F0000200000200040070
:104FC0000807FFF807FFF8040808000800000800B9
:104FD00000080000080004080807FFF807FFF804AD
:104FE000000800000000000004000804000804009D
:104FF0000807FFF807FFF804000804000804000889
:105000000000000000000000000000060000070093
:10501000000104000104000104000307FFFE07FF74
:10502000FC04000004000004000004000807FFF86E
:1050300007FFF8040C08001800003E0004C78005B4
:1050400003C80600F8040038040018000008040033
:105050000807FFF807FFF804000800000800000830
:1050600000000800000800000800001800006000B0
:10507000000004000807FFF807800807FC00007F15
:10508000C00003F80007C000780007800807FFF899
:1050900007FFF804000804000807FFF807000803EA
:1050A000C00000E000003800001E00000700000102
:1050B000C00400F007FFF8040000000000007F803B
:1050C00001FFE003807006001804000804000806D1
:1050D000001803003001FFE0007F800000000400A2
:1050E0000807FFF807FFF80404080404000404009C
:1050F000040400040400060C0003F80001F00000A2
:105100000000000000007F8001FFE00380700600C7
:10511000880400880400C806003C03003E01FFE646
:10512000007F8400000004000807FFF807FFF80470
:105130000808040800040C00040F00040BC006104B
:10514000F003F03801E00800000800000001E0F87A
:1051500003F030063010041808041808040C080482
:105160000C080206180207F00781E0000000018029
:105170000006000004000004000004000807FFF817
:1051800007FFF80400080400000400000600000106
:10519000800004000007FFE007FFF0040018000093
:1051A00008000008000008000008000008040010C3
:1051B00007FFE004000004000006000007E000070D
:1051C000FE00041FE00001F80000380001E0043E8A
:1051D0000007C00006000004000004000007E00013
:1051E00007FFC0041FF80007C007F80007FF80048E
:1051F0003FF80007C004F8000700000400000000AA
:105200000004000806001807C07805F1C8003E0039
:10521000001F800463E80780F806001804000800F7
:10522000000004000006000007800007E008047C7E
:1052300008001FF80007F800180804E0080700003D
:105240000600000400000000000100080600380409
:1052500000F80403E8040F08047C0805F00807C000
:1052600008070018040060000000000000000000B3
:105270000000000000000000003FFFFE20000220B0
:1052800000022000022000022000020000000000B6
:105290000000000008000007000000C00000380007
:1052A0000006000001C000003000000E00000100F8
:1052B000000000000000000020000220000220008A
:1052C000022000022000023FFFFE0000000000005C
:1052D00000000000000000000000000000000008C6
:1052E000000010000030000020000030000010001E
:1052F00000080000000000000000000001000001A4
:105300000000010000010000010000010000010098
:105310000001000001000001000001000001000088
:10532000000000000000002000002000001000002D
:10533000100000000000000000000000000000005D
:1053400000000000000000F00019F8001B18002207
:1053500008002608002408002410003FF8001FF869
:1053600000000800001800000004000007FFF80F0C
:10537000FFF0001818001008002008002008003076
:1053800018001FF0000FC00000000000000007C060
:10539000001FF0001830002008002008002008003E
:1053A0003C08001C1000006000000000000000002D
:1053B000000007C0001FF000381800200800200877
:1053C00000200804101007FFF80FFFF00000100085
:1053D00000000000000000000007C0001FF00012E5
:1053E00030002218002208002208003208001E1097
:1053F000000E200000000000000020000020080037
:10540000200801FFF803FFF8062008042008042004
:105410000807200003000000000000000000000E4C
:10542000000E6E001FF30031B10020B10020B1006A
:105430003191001F13002E1E00200E0030000000CE
:105440000004000807FFF80FFFF800100800200014
:10545000002000002008003FF8001FF800000800AE
:1054600000000000000000000020080020080020CC
:1054700008063FF8063FF800000800000800000892
:105480000000000000000000000000000000030019
:105490000003002001002001002003063FFE063F1C
:1054A000FC000000000000000000000000040008F4
:1054B00007FFF80FFFF8000188000300002FC0006D
:1054C00038F8002038002008000008000000000024
:1054D0000000000004000804000804000807FFF8AA
:1054E0000FFFF8000008000008000008000000009E
:1054F0000000002008003FF8003FF80010080020DE
:1055000000003FF8003FF8001008002000003FF8BE
:10551000003FF8000008000000002008003FF800ED
:105520003FF8001008001000002000002008003F95
:10553000F8001FF80000080000000000000007C08D
:10554000000FF0001830003008002008002008008C
:105550003008001830000FF00007C0000000000005
:1055600000002001003FFF003FFF00101100200954
:10557000002008002008003038001FF0000FC00095
:1055800000000000000007C0001FF00038180020D5
:1055900008002008002009001011001FFF003FFF35
:1055A0000000010000000020080020080020080082
:1055B0003FF8003FF800080800100800200800200D
:1055C000000030000030000000000000000000007B
:1055D000000C78001E180033080023080021080082
:1055E00021880021980030F00038600000000000A1
:1055F0000000200000200000200000FFF003FFF862
:1056000000200800200800200800003000000000F2
:105610000000000000002000003FF0007FF80000C4
:1056200018000008000008002010003FF8007FF07C
:10563000000010000000000000002000003000000A
:105640003C00003F800023F0000078000070002341
:1056500080003C00003000002000002000003C00E2
:10566000003FE00023F80000E0002700003E0000BB
:105670003FE00021F80001E0003E000020000000B3
:1056800000002008002008003838003E680027800D
:105690000003C8002CF8003838002018002008004B
:1056A0000000000000002000003003003C01003F2B
:1056B000830023EC000070002380003C00002000E9
:1056C000002000000000000000000000003808007A
:1056D00020380020F80023E8002F88003E0800381A
:1056E000080020180000700000000000000000000A
:1056F0000000000000000000000008000014001F6F
:10570000F7FC30000620000200000000000000004E
:105710000000000000000000000000000000000089
:10572000FFFFFF000000000000000000000000007C
:1057300000000000000000002000023000061FF7FB
:10574000FC00140000080000000000000000000041
:105750000000000000000000001800006000004091
:1057600000004000002000001000000800000400BD
:10577000000400000C000010000000009C5700080E
:1057800000000020980600006C010008605C000822
:1057900098060020280B0000D00100082006CDCC80
:1057A0004C3F00015005A24A0400013009010203E8
:1057B0000406070809186004A08C4718100D499DBD
:1057C000803C499D003DEEEB403D0C00FF003D9CC0
:1057D000C4A03D80B7C03D65AAE03DA54E003E1780
:1057E00048103E5227203E8E06303EC9E53F3ECE51
:1057F000AA4F3E9B555F3E69006F3E36AB7E3EE74B
:105800001D873E17D98E3E2B87963E3F359E3E39EB
:10581000D6A53E166AAD3EF4FDB43E9A77BC3E4135
:10582000F1C33EB150CB3E21B0D23E7502DA3E9379
:105830003AE13EB072E83E9790EF3E7DAEF63E2DE7
:10584000B2FD3ED34D023F8FC2053F302A093F448F
:105850008B0C3FC9E50F3F3333133F107A163FD00F
:10586000B3193F04E71C3F1B0D203FA52C233F1419
:105870003F263FF54A293FBA492C3F643B2F3F81E1
:1058800026323F8104353F67D5373FBE9F3A3F6D93
:10589000563D3F8E06403F93A9423F7D3F453F4BDB
:1058A000C8473F8C4A4A3F24B94C3FA01A4F3F009B
:1058B0006F513FD3BC533FFDF6553F0B24583FFE7D
:1058C000435A3FD6565C3F925C5E3F32147F556030
:1058D0003FB840623F9318643F54E3653FF9A067C7
:1058E0003F8351693FF1F46A3FB6846C3F5F076EB6
:1058F0003F60766F3FD3DE703F9C33723F4A7B73CD
:105900003F4FAF743F39D6753F07F0763F2BF677A0
:105910003F35EF783F95D4793FDAAC7A3F03787B17
:105920003F832F7C3FE8D97C3FA4707D3F44FA7DC4
:105930003FC9767E3FA4DF7E3FD7347F3FEE7C7F3A
:105940003FE9B77F3F3BDF7F3F72F97FB43280088A
:1059500021102118212021282130213821402148DF
:1059600021502158216021682170217821802188CF
:105970002190219821A021A821B021B821C021C8BF
:1059800021D021D821E021E821F021F825002508A7
:10599000251025182520252825302538254025487F
:1059A000255025582560256825702578258025886F
:1059B0002590259825A025A825B025B825C025C85F
:1059C00025D025D825E025E825F025F82900290847
:1059D000291029182920292829302938294029481F
:1059E000295029582960296829702978298029880F
:1059F0002990299829A029A829B029B829C029C8FF
:105A000029D029D829E029E829F029F82D00034DCB
:105A100008032E000C035E3C20031EBC20031EBDA9
:105A2000200312BD0C1EBD200312BD301EBD20037D
:105A300012BD4012BE481EBE20031EBE20031EBE65
:105A4000200312BE6812BE7012BE781EBE20031262
:105A5000BE8812BE901EBE20031EBE200312BEA82A
:105A60001EBE20031EBE200312BEC01EBE20031297
:105A7000BED012BED81EBE20031EBE20031EBE20F6
:105A80000312BEF816BE001EBE20031EBE20031663
:105A9000BF1816BF201EBF200316BF3016BF381E0A
:105AA000BF200316BF4816BF501EBF200316BF609D
:105AB0001EBF20031EBF200316BF7816BF801EBF67
:105AC000200316BF901EBF20031EBF200316BFA8D1
:105AD0001EBF200316BFB816BFC01EBF200316BFCF
