:020000040800F2
:1000000088100020711F0008050C0008070C00086C
:100010000B0C00080F0C0008130C00080000000077
:10002000000000000000000000000000170C0008A5
:10003000190C0008000000001B0C00081D0C000833
:100040008B1F00088B1F00088B1F00088B1F0008E8
:100050008B1F00088B1F00088B1F00088B1F0008D8
:100060008B1F00088B1F00088B1F00088B1F0008C8
:100070008B1F00088B1F00088B1F00088B1F0008B8
:100080008B1F00088B1F00088B1F00088B1F0008A8
:100090008B1F00088B1F00088B1F00088B1F000898
:1000A0008B1F0008E51B00088B1F00088B1F000832
:1000B000B31000088B1F0008651300088B1F000891
:1000C0008B1F00088B1F00088B1F00088B1F000868
:1000D0008B1F0008E71E00088B1F00088B1F0008FD
:1000E0008B1F00088B1F00088B1F00088B1F000848
:1000F000FF1700088B1F00088B1F00088B1F0008CC
:100100008B1F00088B1F0008A51900088B1F000813
:100110008B1F00088B1F00088B1F00088B1F000817
:100120008B1F00088B1F00088B1F00088B1F000807
:1001300000F002F800F05EF80AA090E8000C82449B
:100140008344AAF10107DA4501D100F053F8AFF278
:10015000090EBAE80F0013F0010F18BFFB1A43F0A5
:1001600001031847C04A0000E04A000010F8013BB4
:100170000A4413F0030408BF10F8014B1D1108BF17
:1001800010F8015B641E05D010F8016B641E01F8C5
:10019000016BF9D1002D15D010F8014B03F00C03C1
:1001A0000C2BA1EB04040ABF10F8013BA4EB831451
:1001B000A4EB032405F1010314F8016B5B1E01F8A5
:1001C000016BF9D5914238BF10F8013BD1D370478C
:1001D0000023002400250026103A28BF78C1FBD850
:1001E000520728BF30C148BF0B6070471FB51FBD05
:1001F00010B510BD03F008FE1146FFF7F7FF00F041
:10020000CAFB03F026FE03B4FFF7F2FF03BC01F0C4
:100210000FFE00000BE010F8012BFE4B1A8000BF10
:10022000FC4A121F128802F04002002AF8D002781D
:10023000002AF0D100210CE0FF22F64B1A8000BF0B
:10024000F44A121F128802F04002002AF8D04A1C19
:10025000D1B20329F0DB70472DE9F05FEE4800884A
:1002600003F017FF8246ED4AED4B03F061FF804635
:10027000EC4AED4B03F02CFE06460022EB4B03F05C
:1002800057FF044603F0D8FEE9490880E948008892
:1002900003F0FFFE0646E84AE84B03F049FF044638
:1002A000E74AE84B03F014FE80460022E64B03F0D9
:1002B0003FFF824603F0C0FEE4490880E44800782E
:1002C000012806D1E348FFF7A5FFE348FFF7A2FFA7
:1002D00005E0E248FFF79EFFE148FFF79BFFD448A7
:1002E0000088642190FBF1F03030DE49C873D048BB
:1002F0000088642190FBF1F201FB12000A2190FBBF
:10030000F1F03030D7490874C94800880A2190FBC1
:10031000F1F201FB12003030D2498874CB480088DA
:10032000642190FBF1F03030CF49C873C748008892
:10033000642190FBF1F201FB12000A2190FBF1F025
:100340003030C9494874C14800880A2190FBF1F255
:1003500001FB12003030C4498874C449C4480068A5
:1003600004F0ECFA044604F069FAC2490880084631
:100370000088642190FBF1F03030BF494874BD48DB
:100380000088642190FBF1F201FB12000A2190FB2E
:10039000F1F03030B8498874B64800880A2190FBE3
:1003A000F1F201FB12003030B349C874AD48FFF7D9
:1003B00031FFAD48FFF72EFFAF48FFF72BFFBDE839
:1003C000F09F2DE9F05FAD48008803F062FE8246A1
:1003D000AB4AAC4B03F0ACFE8046AB4AAB4B03F0F0
:1003E00077FD06460022914B03F0A2FE044603F07F
:1003F00023FEA7490880A748008803F04AFE8246EA
:10040000A54AA64B03F094FE8046A54AA54B03F0EF
:100410005FFD06460022854B03F08AFE044603F08A
:100420000BFEA1490880A148007801280DD1A04801
:100430000088A0F6F530002803D401209D490870FB
:1004400006E002209B49087002E0002099490870EC
:1004500098480078012821D19548008803F019FEBA
:100460008046954A954B03F063FE8246944A954B2D
:1004700003F09EFF06460022734B03F059FE04462C
:1004800003F0DAFD904908809048FFF7C3FE9048DA
:10049000FFF7C0FE8F48FFF7BDFE31E085480078CA
:1004A000022821D18248008803F0F3FD8246824A67
:1004B000824B03F03DFE0646814A824B03F06CFFFF
:1004C00004460022604B03F033FE804603F0B4FD87
:1004D0007D4908808048FFF79DFE8048FFF79AFE1F
:1004E0007F48FFF797FE0BE00020774908807D48A2
:1004F000FFF790FE7C48FFF78DFE7C48FFF78AFEF1
:1005000063480088642190FBF1F030307849C8736B
:100510005F480088642190FBF1F201FB12000A2180
:1005200090FBF1F0303072490874594800880A2174
:1005300090FBF1F201FB120030306D498874624883
:100540000088642190FBF1F030306A49C8735E483E
:100550000088642190FBF1F201FB12000A2190FB5C
:10056000F1F0303063494874574800880A2190FB05
:10057000F1F201FB120030305E4988744A4800886D
:10058000642190FBF1F030305B49C8734648008825
:10059000642190FBF1F201FB12000A2190FBF1F0C3
:1005A000303055490874404800880A2190FBF1F228
:1005B00001FB12003030504988745048008803F025
:1005C00068FD80464E4A4F4B03F0B2FD06464E4A48
:1005D0004E4B03F0EDFE044600221B4B03F0A8FD3A
:1005E000824603F029FD4A4908802F48008809887F
:1005F0004843484908802C480088642190FBF1F06A
:1006000030304549C87328480088642190FBF1F2D6
:1006100084E0000004380140960100205DE15D2E79
:10062000E23B813FD578E9263108EA3F00002440CB
:10063000A601002098010020C229183A1B97463FC6
:1006400005A8A9656B7D913F00005940A8010020D5
:100650003E020020EC010020FC01002010020020DE
:1006600024020020AA010020C001002000007A44DA
:10067000A0010020A4010020D60100206E0000206F
:100680008AE5965643E28E3FC898BB96900FBA3FD4
:1006900074000020720000200E4A9869FB57963FB4
:1006A000D9CEF753E3A5D73F16000020460200201D
:1006B000700000206A000020041C42959A3D803F93
:1006C00048E17A14AE47384076000020A4000020AC
:1006D000B8000020C8000020DC000020EC00002052
:1006E0000001002014010020280100203C0100200E
:1006F000780000208E000020000000205201002021
:10070000B4E7323509DE703FE17A14AE4761294023
:100710004E010020500100205401002001FB120076
:100720000A2190FBF1F03030FE490874FE48008841
:100730000A2190FBF1F201FB12003030F949887474
:10074000FA480088642190FBF1F03030F849C87312
:10075000F6480088642190FBF1F201FB12000A21A7
:1007600090FBF1F03030F2494874F04800880A21DB
:1007700090FBF1F201FB12003030ED498874ED4836
:10078000008842F2107190FBF1F03030EA49C873F2
:10079000E848008842F2107190FBF1F201FB120070
:1007A0004FF47A7190FBF1F03030E3490874E1487E
:1007B00000884FF47A7190FBF1F201FB1200642182
:1007C00090FBF1F03030DC498874DC48FFF722FD03
:1007D000DB48FFF71FFDDB48FFF71CFDD148FFF7A3
:1007E00019FDD348FFF716FDD348FFF713FDBDE809
:1007F000F09F2DE9F05FD448008803F04AFC824660
:10080000D24AD34B03F094FC8046D24AD24B03F039
:10081000CFFD06460022D14B03F08AFC044603F0CC
:100820000BFCCF490880CF48008803F032FC064615
:10083000CD4ACE4B03F07CFC0446CD4ACD4B03F0B1
:10084000B7FD80460022CC4B03F072FC824603F0D9
:10085000F3FBCA490880C248008809884843C84950
:100860000880BF480088642190FBF1F03030C54912
:10087000C873BB480088642190FBF1F201FB1200B1
:100880000A2190FBF1F03030BE490874B44800886A
:100890000A2190FBF1F201FB12003030B949887453
:1008A000B6480088642190FBF1F03030B649C87337
:1008B000B2480088642190FBF1F201FB12000A218A
:1008C00090FBF1F03030B0494874AC4800880A2100
:1008D00090FBF1F201FB12003030AB498874A8485C
:1008E000008842F2107190FBF1F03030A749C873D4
:1008F000A348008842F2107190FBF1F201FB120054
:100900004FF47A7190FBF1F03030A04908749C48A4
:1009100000884FF47A7190FBF1F201FB1200642120
:1009200090FBF1F03030994988749648FFF772FCDB
:100930009548FFF76FFC9548FFF76CFCBDE8F09F0A
:1009400010B593480088B0F5FA6F03DD0020914997
:10095000087002E001208F4908708E4800788E49A7
:100960000978884216D08B4800788B4908708948EE
:10097000007801280BD18949087000208849087047
:100980000421884801F023FC00F071FF02E00120FF
:100990008549087010BD4FF4A06002F08DF801F099
:1009A000DDF900F02DFA00F0A1FA804801F05CF8C2
:1009B000042141F61F4000F023FB002140F29F502C
:1009C00000F078FC002140F29F5000F083FE4721A8
:1009D0004FF6FF7000F074FF4FF4E13001F037FA8A
:1009E00009E173480088012879D100207049088006
:1009F000FFF7A6FF544801886E48008800F07EFD8E
:100A000066480078012805D16B4801886B4800884A
:100A100000F0BCFD6448007801284FD16848008888
:100A20005B490988401A32280BDA65480088584922
:100A30000988401A10F1320F03DD01206149087066
:100A400002E000205F4908705F480068642806D310
:100A50005D48006844F62061081A642803D201202A
:100A60005A49087002E0002058490870554800783B
:100A700040B15648007828B155480088401C544978
:100A8000088002E00020524908805148008814285C
:100A900014D10020444908704049087000F0BFFE9E
:100AA0004FF4967001F097F9002049490880012021
:100AB0003B49087004213B4801F087FB3848007827
:100AC000012806D13C4801883C48008800F0BBFC66
:100AD00005E03B4801883F48008800F059FC3E484B
:100AE0000088012808D1FFF784FEFFF76AFCFFF7B2
:100AF000B3FB0020384908803848007800F08000B7
:100B000070B13648007800F03F002F490860084671
:100B1000008800040860084600683149098861E0DF
:100B200069E0000054010020160000204E01002062
:100B30006A01002050010020800100207800002080
:100B40008E000020000000201A0000205F7B664914
:100B5000809A7A3F4777103B53E8B43F0000244027
:100B6000200000201C000020975643E21E4B6F3FE0
:100B7000B81E85EB51B827400000594022000020E4
:100B800024000020260000203C000020520000200D
:100B90009A0100204702002048020020460200205F
:100BA0003E020020000801403D02002000002041DC
:100BB000440200201E000020720000206800002077
:100BC0009601002035020020380200203402002067
:100BD000400200209C01002042020020E40200208C
:100BE000E602002008440449086000200349087018
:100BF000012003490870F4E638020020E4020020D6
:100C00003C020020704700BFFEE700BFFEE700BFC8
:100C1000FEE700BFFEE7704770477047704700006F
:100C20000CB50020019000906C48006840F48030C2
:100C30006A49086000BF6948006800F4003000900D
:100C40000198401C0190009818B90198B0F5A06F68
:100C5000F1D16248006800F4003010B1012000902A
:100C600001E0002000900098012843D15C48006812
:100C700040F010005A4908600846006820F0030060
:100C800008600846006840F0020008605348406869
:100C9000524948600846406848600846406840F449
:100CA000806048600846406820F47C104860084630
:100CB000406840F4E81048600846006840F08070E2
:100CC000086000BF4548006800F000700028F9D0B7
:100CD0004248406820F003004049486008464068A8
:100CE00040F00200486000BF3C48406800F00C0043
:100CF0000828F9D10CBD10B5FFF792FF10BD10B553
:100D00003648006840F001003449086008464068F1
:100D10003449084031494860084600683249084073
:100D20002E4908600846006820F4802008600846C4
:100D3000406820F4FE0048604FF41F008860FFF711
:100D4000DAFF4FF000602949086010BD10B500219E
:100D500000200022214B5B6803F00C0121B1042923
:100D600006D0082928D107E0214B224C236027E038
:100D70001F4B204C236023E0184B5B6803F470107A
:100D8000164B5B6803F48032022303EB904022B9D8
:100D9000194B4343174C23600DE0104B5B6803F481
:100DA000003323B1144B4343124C236003E0104B38
:100DB0004343104C236003E00D4B0E4C236000BFF7
:100DC00000BF064B5B68C3F303130C4CE15C094B9B
:100DD0001B68CB40074C236010BD00000010024090
:100DE000002002400000FFF8FFFFF6FE08ED00E0E3
:100DF00000127A004C02002000093D005002002041
:100E000008B50121142001F0EFFB0121304801F069
:100E100000FA48208DF803004FF40040ADF80000C0
:100E200069462C4801F024F92020ADF800006946FD
:100E3000294801F01DF908BD10B5044614B1012080
:100E4000264908702548007890B32021224801F0F7
:100E5000A2F928B14FF400411E4801F09CF938BBBB
:100E60000A2000F0B8FF00201C49087020211A4811
:100E700001F091F930B91A480078012827D11949B1
:100E8000087024E04FF40041124801F084F9F0B9F1
:100E900013480078D8B90120114908700020124980
:100EA000087004210B4801F092F900F0E0FC0EE01C
:100EB000FFE72021084801F06EF9012807D1C1039E
:100EC000044801F068F9012801D10449087010BDF7
:100ED00000043000000801400010014060020020C2
:100EE000460200203D0200203E02002000B587B0EF
:100EF00001214FF4077001F077FB4FF4004001F03F
:100F0000D7FA0320ADF8040000208DF8070001A9EE
:100F1000374801F0ADF80720ADF8040000208DF847
:100F2000070001A9334801F0A3F80820ADF8040038
:100F300000208DF8070001A92F4801F099F87020D2
:100F4000ADF8040000208DF8070001A92A4801F03F
:100F50008FF82A4802F02CFD002002908DF80C003A
:100F60008DF80D004FF460200490002005900120C2
:100F70008DF8180002A9214802F041FD01211F4807
:100F800002F069FD1D4802F088FD00BF1B4802F019
:100F900089FD0028FAD1194802F08EFD00BF1748DC
:100FA00002F08FFD0028FAD101224FF40871134896
:100FB00002F067FD0121114802F08DFD07B000BD70
:100FC00010B504460623012221460C4802F0AFFD6D
:100FD00001210A4802F07FFD00BF0221074802F00C
:100FE000EBFE0028F9D0054802F008FE10BD000015
:100FF000000C0140001001400008014000240140A5
:1010000030B589B004460D460121084601F0F9FAD1
:101010000121042001F0E8FAADF81C40ADF81850A9
:101020000020ADF81E00ADF81A0006A94FF0804070
:1010300001F084FE0220ADF8140018208DF817008E
:1010400003208DF8160005A9834801F011F86020EF
:10105000ADF80400204604EBD071C1F34F01ADF8A8
:101060000A100120ADF806000220ADF80C0001A91D
:10107000400701F0E2FE1C208DF8000002208DF8F0
:10108000010000208DF8020001208DF80300684661
:1010900001F017FD01221146900702F0C6F9082160
:1010A000C80602F0E0FA0121880702F0A3F909B0AE
:1010B00030BD10B50121880702F065FC00287DD005
:1010C0006648008864287ADA0420FFF779FF6449CB
:1010D00009680844624908600520FFF771FF61490B
:1010E000096808445F4908600620FFF769FF5E4908
:1010F000096808445C4908600820FFF761FF5B4904
:1011000009680844594908600920FFF759FF584900
:1011100009680844564908600A20FFF751FF5549FD
:1011200009680844534908600B20FFF749FF5249FA
:1011300009680844504908600C20FFF741FF4F49F7
:10114000096808444D4908600320FFF739FF4C49FE
:10115000096808444A49086040480088401C3F49E3
:10116000088008460088642861D13D4800680988E5
:10117000B0FBF1F0434908803A48006837490988D4
:10118000B0FBF1F0404908803748006833490988CE
:10119000B0FBF1F03D490880344800682F490988C8
:1011A000B0FBF1F03A490880314800682B490988C2
:1011B000B0FBF1F0374908802E4801E04AE036E004
:1011C000006826490988B0FBF1F0334908802A48B5
:1011D000006822490988B0FBF1F0304908802748AF
:1011E00000681E490988B0FBF1F02D4908802448A9
:1011F00000681A490988B0FBF1F02A4908800020EC
:1012000016490880164908601649086016490860A2
:1012100016490860164908601649086016490860B2
:10122000164908601649086001201F4908801F48B8
:101230000088401C1D49088008460088B0F57A7F68
:1012400004D1002008800120194908800121880765
:1012500002F0AAFB10BD000000080140640200205B
:10126000680200206C02002070020020740200203E
:10127000780200207C0200208002002084020020EE
:101280008802002096010020980100209A01002089
:101290001A0000201C0000206E00002070000020BA
:1012A000720000205201002044020020660200204B
:1012B0004202002030B589B004460D4601210420C9
:1012C00001F09FF90121082001F08EF9ADF81C40D2
:1012D000ADF818500020ADF81E00ADF81A0006A9B0
:1012E000284801F02BFD4020ADF8140018208DF89F
:1012F000170003208DF8160005A9234800F0B8FE5A
:101300006020ADF80400204604EBD071C1F34F011A
:10131000ADF80A100120ADF806000220ADF80C006F
:1013200001A9184801F047FD1E208DF80000022099
:101330008DF8010003208DF8020001208DF80300D4
:10134000684601F0BEFB012211460E4802F06DF81E
:1013500008210C4802F07EF901210A4802F04AF8FF
:1013600009B030BD10B50121064802F00CFB40B1B8
:10137000064800880349343108800121014802F001
:1013800013FB10BD00080040000C014018000020B5
:101390002DE9F04704468946A4EB0900AB490860F3
:1013A000AB48006803F06AFA0746AA480168384665
:1013B00003F0C4FA0546A548006803F05FFA074643
:1013C000A5480168384603F0B9FA0646294603F0F5
:1013D000B3FBA24908609D4800689D4908609F488A
:1013E000006803F0CFF807469D4A9E4B02F0A0FE2E
:1013F000054602F03BFD9C490860084601689B4891
:10140000006803F0EBF8994908600846006803F0AB
:10141000B9F805464FF03332954B02F04DFE03D834
:101420009448924908600CE09048006803F0AAF8DC
:101430000546914A914B02F079FF02D890488B49BA
:101440000860BDE8F0872DE9F04704468946A4EB23
:1014500009008C4908608C48006803F00FFA0746C1
:101460008A480168384603F069FA054685480068ED
:1014700003F004FA074686480168384603F05EFA2E
:101480000646294603F058FB824908607D480068FB
:101490007D4908607F48006803F074F80746704A89
:1014A000704B02F045FE054602F0E0FC7A49086008
:1014B000084601686D48006803F03EFB6B49086010
:1014C0000846006803F05EF805464FF03332684B7B
:1014D00002F0F2FD03D86748644908600CE06348F5
:1014E000006803F04FF80546634A644B02F01EFFA4
:1014F00002D863485D490860BDE8F0872DE9F041F6
:1015000004460D46601B654908606548006803F0A5
:10151000B5F9804663480168404603F00FFA064675
:101520005E48006803F0AAF980465F4801684046BB
:1015300003F004FA0746314603F0FEFA5B490860FF
:1015400056480068564908605948008803F0AEF9CB
:10155000074656480168384603F0EEFA064603F09F
:101560006DF95349088008460088B0F57A7F02DD9E
:101570004FF47A7008804E480088B0F50C7F03DA8B
:101580004FF40C704A490880BDE8F0812DE9F04124
:1015900004460D46601B474908604748006803F051
:1015A0006DF9804645480168404603F0C7F9064694
:1015B0004048006803F062F98046414801684046AF
:1015C00003F0BCF90746314603F0B6FA3D4908601E
:1015D00038480068384908603B48008803F066F9DD
:1015E000074638480168384602F0F8FF0646374992
:1015F00003F070FA04D84FF434703349088022E0C5
:101600003148008803F052F907462E4801683846F1
:1016100002F0E4FF06462E4903F05CFA0FD82A4890
:10162000008803F043F9074626480168384602F06F
:10163000D5FF064603F002F92349088003E04FF482
:101640000C7021490880BDE8F08100009C02002058
:10165000A0020020900200208C02002094020020B2
:10166000C94ADDDFEA4A353F98020020A001002088
:101670003333EB3F9A99593F1EA7E8482EFFEF3FBF
:1016800072F97F3FB4020020B8020020A8020020B7
:10169000A4020020AC020020B0020020C8020020FA
:1016A000CC020020C0020020BC020020C4020020A6
:1016B00018000020DC020020E0020020D4020020FC
:1016C000D0020020D80200206C000020000034442A
:1016D00000000C4430B58DB005460C46012142F2A5
:1016E000150000F081FF4020ADF8300018208DF883
:1016F000330003208DF832000CA96D4800F0B8FCCF
:1017000040216B4800F061FD8020ADF830001820CA
:101710008DF8330003208DF832000CA9654800F0E5
:10172000A7FCADF82850ADF824400020ADF82A0001
:101730008DF82C00ADF8260009A95F4801F0FEFAEB
:1017400001215D4801F056FF6020ADF814004FF410
:101750001670ADF81A000120ADF816000220ADF8A1
:101760001C00C001ADF820000420ADF818000820CE
:10177000ADF81E000020ADF8220005A94E4801F08A
:101780001AFB08214C4801F065FF4FF40060ADF8EA
:1017900004004010ADF806000020ADF808001F203E
:1017A000ADF80A000020ADF80C004FF48040ADF811
:1017B000100001A9404801F0DDFD2C208DF800004B
:1017C00001208DF8010003208DF8020001208DF822
:1017D0000300684601F075F90121374801F016FE53
:1017E0000121354802F0E0F801221146324801F0AB
:1017F0001CFE0121304801F0FDFD0DB030BD10B5DB
:1018000001212D4802F0BFF840B12C4801882A4838
:1018100002F088F80121284802F0C6F810BD08B58A
:101820000021254801F0E6FD4020ADF80000102021
:101830008DF8030003208DF8020069461C4800F073
:1018400017FC40211A4800F0C0FC8020ADF80000D1
:1018500010208DF8030003208DF80200694614481B
:1018600000F006FC8021134800F0AFFC08BD08B56D
:101870004020ADF8000018208DF8030003208DF8FB
:10188000020069460A4800F0F3FB8020ADF8000032
:1018900018208DF8030003208DF8020069460548E2
:1018A00000F0E6FB0121044801F0A4FD08BD0000A2
:1018B0000010014000080140003401406C0000208D
:1018C00030B589B005460C460121082000F099FE8C
:1018D0000121042000F088FE0120ADF8200028201E
:1018E0008DF8230008A95C4800F0C2FB01215A488A
:1018F00000F06DFC0220ADF8200028208DF82300B8
:1019000008A9554800F0B4FB0221534800F05FFCE1
:10191000ADF81850ADF814400020ADF81A00ADF83D
:10192000160005A94D4801F009FA0020ADF808009D
:10193000ADF80A000120ADF80C000020ADF80E0053
:10194000ADF8100002A9454801F08BFC0420ADF869
:1019500008000020ADF80A000120ADF80C000020BE
:10196000ADF80E00ADF8100002A93C4801F079FC7A
:1019700032208DF8040001208DF8050000208DF83C
:10198000060001208DF8070001A801F09AF8012255
:101990000721324801F049FD0121304801F02AFDBC
:1019A00009B030BD10B52E48007800F08000002846
:1019B0004DD10121294801F0E6FFD0B12848007837
:1019C00000F04000A8B12648007800F03F003F2812
:1019D0000AD12348007840F08000214908704FF672
:1019E000FF702049088004E01D480078401C1C4915
:1019F00008700221194801F0C6FF98B11848007814
:101A000000F0400070B900201549087015490880A1
:101A10000021124801F082FF1148007840F0400098
:101A20000F49087004210D4801F0ADFF78B10C4852
:101A3000007800F0400050B10948007840F0800084
:101A400007490870054801F082FF06490880072110
:101A5000024801F0A9FF10BD00080140000C004041
:101A6000E4020020E602002070B58EB00446012199
:101A700040F60D0000F0B8FD4FF48070ADF8340072
:101A800018208DF8370003208DF836000DA9A448E2
:101A900000F0EEFA4FF40050ADF8340018208DF845
:101AA000370003208DF836000DA99E4800F0E0FABB
:101AB0000420ADF8340010208DF8370003208DF895
:101AC00036000DA9964800F0D3FA0421944800F09E
:101AD0007EFB21469448006802F0EEFD06464FF07A
:101AE000804102F0E9FD054602F0A8FE401E8F4944
:101AF00008800988481C00EBD071C1F34F018C4A63
:101B000011808A480088ADF82C008A480088ADF81A
:101B100028000020ADF82E008DF830002020ADF810
:101B20002A000AA9844801F009F90121824801F03C
:101B300061FD7020ADF818000020ADF81E000120F6
:101B4000ADF81A000220ADF82000C001ADF8240065
:101B50000420ADF81C000820ADF822000020ADF8EC
:101B6000260006A9744801F026F90821724801F000
:101B700071FD4FF40060ADF808004010ADF80A00A8
:101B80000020ADF80C001F20ADF80E000020ADF8CD
:101B900010004FF48040ADF8140002A9664801F02F
:101BA000E9FB19208DF8040000208DF805008DF860
:101BB000060001208DF8070001A800F082FF012136
:101BC0005D4801F023FC01215B4801F0EDFE01229C
:101BD0001146594801F029FC0121574801F00AFC3F
:101BE0000EB070BD70B50121534801F0CCFE002845
:101BF0005AD00121504801F0D7FE4D48008802F02C
:101C000055FE05464D494E4A128851F822004D496D
:101C1000096802F093FE0646294602F0DFFC0446FE
:101C200002F00CFE484908800846008842493431D9
:101C3000088043480088401C4149088008460088C5
:101C4000B0F5C87F01DB00200880404800780128FB
:101C500065D100203D4908703D48006860B33C48AC
:101C6000006842F21071884226D839480068322153
:101C7000B0FBF1F03749088008460088022801DBF4
:101C8000022008802E48008832490988401A3249CB
:101C9000086008460068002807DB294800882D49AD
:101CA0000988401A2649088039E02B48008800F549
:101CB000C8702349088032E02548006842F210715C
:101CC00088422CD3224800684900884227D82048FF
:101CD0000068081A3221B0FBF1F01E49088008465E
:101CE0000088022801DB0220088015480088194975
:101CF000098808441849086008460068B0F5C87F9C
:101D000006DB08460088A0F5C8700D49088006E08B
:101D10000B4800880F49098808440949088070BDAC
:101D200000080140000C0140F0020020E802002001
:101D3000EA020020EC020020002C014000030020F9
:101D4000F6020020A0010020F40200203C02002046
:101D500038020020FC020020F802002010B56FF0CD
:101D6000040000F0F8FE2E4800682E49B0FBF1F0A8
:101D70002D4908700846007800EB4001C1EBC01007
:101D80004FF6FF7101EAC0002849088010BD0146E6
:101D9000254A12784A434FF0E0235A6100229A61A3
:101DA0001A46126942F001021A6100BF4FF0E022A8
:101DB000106900F001021AB100F48032002AF5D057
:101DC0004FF0E022126922F001024FF0E0231A6185
:101DD00000229A6170470146144A12884A434FF024
:101DE000E0235A6100229A611A46126942F0010208
:101DF0001A6100BF4FF0E022106900F001021AB131
:101E000000F48032002AF5D04FF0E022126922F06F
:101E100001024FF0E0231A6100229A61704700002E
:101E20004C02002000127A004009002042090020E4
:101E3000014600BF704700BF494A128802F04002C5
:101E4000002AF9D0C2B2464B1B1D1A80704710B54C
:101E500086B00446012144F2040000F0C5FB4FF4B3
:101E60000070ADF8140003208DF8160018208DF8CE
:101E7000170005A93B4800F0FBF84FF48060ADF86F
:101E8000140004208DF8170005A9364800F0F0F87A
:101E900025208DF8000003208DF801008DF8020048
:101EA00001208DF80300684600F00BFE019400202D
:101EB000ADF80800ADF80A00ADF80C00ADF8100060
:101EC0000C20ADF80E0001A9254800F034FC0122D9
:101ED00040F22551224800F0C6FC0121204800F0C4
:101EE000B6FC06B010BD10B540F225511C4800F0FC
:101EF0009FFD10B31A4800F01BFDC4B21A480088B9
:101F000000F40040C8B91848008800F4804060B16F
:101F10000A2C03D000201449088020E012480088D1
:101F200040F400401049088019E00D2C06D10E48FD
:101F3000008840F480400C49088010E00A4800887E
:101F4000C0F30D0009490C5407480088401C06499D
:101F5000088008460088C72801DD0020088010BDE1
:101F600000380140000801404809002060090020B5
:101F70000948804709480047FEE7FEE7FEE7FEE71D
:101F8000FEE7FEE7FEE7FEE7FEE7FEE70448054959
:101F9000054A064B70470000FF0C0008310100089D
:101FA000880A002088100020880C0020880C00205F
:101FB00010B50446CC48844208D10121042000F029
:101FC0002DFB0021042000F029FB46E0C748844295
:101FD00008D10121082000F021FB0021082000F099
:101FE0001DFB3AE0C248844208D10121102000F0D4
:101FF00015FB0021102000F011FB2EE0BD488442AB
:1020000008D10121202000F009FB0021202000F050
:1020100005FB22E0B848844208D10121402000F0AD
:10202000FDFA0021402000F0F9FA16E0B34884429E
:1020300008D10121802000F0F1FA0021802000F079
:10204000EDFA0AE0AE48844207D10121801500F084
:10205000E5FA0021A01500F0E1FA10BD10B501214C
:10206000084600F0DBFA0021012000F0D7FA10BD8D
:102070002DE9F0410246002500260020002300241F
:10208000002791F803C00CF00F0591F803C00CF085
:10209000100CBCF1000F03D091F802C04CEA05050A
:1020A00091F800C0BCF1000F31D0146800202BE083
:1020B0004FF0010C0CFA00F3B1F800C00CEA030673
:1020C0009E4220D183004FF00F0C0CFA03F7BC4363
:1020D00005FA03FC4CEA040491F803C0BCF1280F94
:1020E00006D14FF0010C0CFA00FCC2F814C00AE053
:1020F00091F803C0BCF1480F05D14FF0010C0CFA68
:1021000000FCC2F810C0401C0828D1D31460B1F8FC
:1021100000C0BCF1FF0F34DD546800202EE000F158
:10212000080C4FF0010808FA0CF3B1F800C00CEAF3
:1021300003069E4221D183004FF00F0C0CFA03F7E7
:10214000BC4305FA03FC4CEA040491F803C0BCF15B
:10215000280F05D100F1080C08FA0CF8C2F8148019
:1021600091F803C0BCF1480F07D100F1080C4FF003
:10217000010808FA0CF8C2F81080401C0828CED3D9
:102180005460BDE8F0814FF6FF710180022181703B
:102190000421C17070470246002093680B400BB1C8
:1021A000012000E0002070470146886880B2704737
:1021B00002460020D3680B400BB1012000E0002054
:1021C00070470146C86880B270470161704741613D
:1021D00070470AB1016100E041617047C16070471A
:1021E0004FF480320A43826181618261826982692F
:1021F000704702460020434B18684FF68073184022
:1022000040EA021008433F4B186070473E49C861DE
:102210007047F0B50A46002300240021002500F095
:102220000046B6F1004F02D1364EF16901E0354E5D
:102230007168C0F3034583B200F44016B6F5401F41
:1022400008D121F070612F4E766826F070662D4F10
:102250007E6012E000F48016B6F5801F06D10326DA
:1022600006FA05F4A14341F0706106E0460D36011F
:1022700003FA06F6B14341F0706122B1460D360112
:1022800003FA06F6314300F00046B6F1004F02D1E2
:102290001C4EF16101E01B4E7160F0BD30B50022B3
:1022A0008B071C0F0F2303FA04F2164B08338C1014
:1022B00053F824309343134C08348D1044F82530E0
:1022C00023468C1053F824308C07240F00FA04F4B2
:1022D00023430C4C08348D1044F8253030BD0A4996
:1022E000DC3108607047000000080140000C01402C
:1022F000001001400014014000180140001C014082
:10230000002001400000014000002042DF4800683A
:1023100040F00100DD49086008464068DC4908409B
:10232000DA49486008460068DA490840D749086039
:102330000846006820F4802008600846406820F4C1
:10234000FE0048604FF41F0088607047CF4909685D
:1023500021F48031CD4A11601146096821F48021B1
:102360001160B0F5803F03D0B0F5802F0ED106E0AC
:10237000C649096841F48031C44A116007E0C34985
:10238000096841F4A021C14A116000E000BF00BF0C
:10239000704710B501460022002300204A11012A8F
:1023A00002D1BA4C236806E0022A02D1B74C236A54
:1023B00001E0B64C636A01F01F02012494401C4006
:1023C0000CB1012000E0002010BD38B500200090C5
:1023D0000024002500BF3120FFF7DBFF05460098F1
:1023E000401C00900098B0F5A06F01D0002DF2D0F5
:1023F0003120FFF7CEFF08B1012400E00024204681
:1024000038BD01460020A14A106820F0F80040EADB
:10241000C10010607047A049086070470246002064
:102420009A4B586820F47C1042EA01031843974BFA
:102430005860704798490866704701460020934AE3
:10244000506820F003000843506070478F48406890
:1024500000F00C007047014600208C4A506820F0C4
:10246000F00008435060704701460020874A5068DA
:1024700020F4E06008435060704701460020834A22
:10248000506820F4605040EAC1005060704729B1A4
:102490007E4A527A02437D4B5A7204E07B4A527A5A
:1024A00082437A4B5A7270477B49D8310860704733
:1024B00001460020754A506820F4404008435060AF
:1024C00070470021714A20321170704A82F8201042
:1024D000012802D004280AD104E001216B4A2032ED
:1024E000117005E00521694A2032117000E000BF3B
:1024F00000BF70476949086070476449096A014331
:10250000624A11627047654944390860704730B5C6
:1025100000210022002400235C4D6D6805F00C01B1
:1025200021B1042905D0082923D105E05C4D0560BF
:1025300022E05B4D05601FE0544D6D6805F470129C
:10254000524D6D6805F48034022505EB92421CB9AA
:10255000544D554305600BE04C4D6D6805F4003556
:102560001DB1504D5543056002E04D4D554305608A
:1025700002E04B4D056000BF00BF444D6D6805F0A3
:10258000F0010909484D6B5C0568DD4045603F4D31
:102590006D6805F4E061090A434D6B5C4568DD40F8
:1025A00085603A4D6D6805F46051C90A3E4D6B5C1B
:1025B0004568DD40C560354D6D6805F44041890BC7
:1025C0003A4D6B5CC568B5FBF3F5056130BD29B1CB
:1025D0002E4A526902432D4B5A6104E02B4A52693C
:1025E00082432A4B5A61704729B1284A92690243B3
:1025F000264B9A6104E0254A92698243234B9A61F3
:10260000704729B1214AD2690243204BDA6104E0C4
:102610001E4AD26982431D4BDA61704729B11B4AB9
:10262000D2680243194BDA6004E0184AD268824348
:10263000164BDA60704729B1144A12690243134BF2
:102640001A6104E0114A12698243104B1A61704703
:1026500012494039086070470F49C86470470B49F8
:10266000C87170470948406A40F080700749486265
:10267000704701460020054A92680A400AB10120CD
:1026800000E0002070470149887270470010024046
:102690000000FFF8FFFFF6FE0000424280044242C5
:1026A00000127A0000093D004A0900205A09002062
:1026B00010B50446FB48844209D101218803FFF785
:1026C000ADFF00214FF48040FFF7A8FF32E0F6484D
:1026D000844209D101214804FFF7ADFF00214FF4E6
:1026E0000030FFF7A8FF25E0F048844209D101211E
:1026F0008804FFF7A0FF00214FF48020FFF79BFF25
:1027000018E0EB48844209D10121C804FFF793FF88
:1027100000214FF40020FFF78EFF0BE0E5488442D4
:1027200008D101210805FFF786FF00214FF4801032
:10273000FFF781FF10BD2DE9F04786B005460E4634
:102740000024A24600BFA1460027B08900B100BF07
:102750002F462C8A4CF6FF700440F08804432C82EC
:10276000AC894EF6F3100440B08831890843718972
:1027700008430443AC81AC8A4FF6FF400440B08963
:102780000443AC8201A8FFF7C2FEC648874202D1CB
:10279000DDF810A001E0DDF80CA0A88900F40040ED
:1027A00040B10AEBCA0000EB0A1031684900B0FBE7
:1027B000F1F807E00AEBCA0000EB0A103168890063
:1027C000B0FBF1F86420B8FBF0F0040120096421AB
:1027D00001FB1089A88900F4004040B1322000EBD1
:1027E000C900B0FBF1F000F00700044308E032201C
:1027F00000EB09106421B0FBF1F000F00F0004437E
:102800002C8106B0BDE8F0874FF41651016000211D
:102810008180C18001810C2141810021818170472B
:1028200010B502460020108A4FF2FF0318400B88B3
:102830004C8823438C882343CC882343184310823D
:1028400010BD0021018041808180C180704721B18D
:10285000828942F40052828104E082894DF6FF733E
:102860001A4082817047F0B50346002400260025F7
:10287000002040F66A17B94200D100BF1846C1F3E4
:10288000421401F01F06012707FA06F5012C01D1B9
:102890000C3004E0022C01D1103000E014301AB1E9
:1028A00007682F43076002E00768AF430760F0BD89
:1028B0001AB1838A0B43838202E0838A8B4383822B
:1028C0007047028A4FF6F0731A400282028A0A4366
:1028D0000282704782894FF2FF731A408281828997
:1028E0000A438281704721B1828942F002028281CB
:1028F00004E082894FF6FD731A4082817047028A94
:102900004FF6DF731A400282028A0A43028270473E
:1029100021B1028A42F48042028204E0028A4BF62C
:10292000FF731A4002827047C1F308028280704729
:1029300001468888C0F308007047818941F0010191
:1029400081817047028BD2B20283028B42EA01225C
:1029500002837047028B02F47F420283028B0A4398
:102960000283704721B1828A42F02002828204E011
:10297000828A4FF6DF731A408282704721B1828AC1
:1029800042F01002828204E0828A4FF6EF731A400E
:102990008282704721B1828A42F00802828204E07A
:1029A000828A4FF6F7731A408282704721B182897A
:1029B00042F40042828103E08289C2F30E028281E6
:1029C000704721B1828A42F40062828204E0828AE6
:1029D0004FF2FF731A4082827047828A4FF6FB7370
:1029E0001A408282828A0A438282704721B1828A97
:1029F00042F00202828204E0828A4FF6FD731A409E
:102A00008282704702460020B1F5007F00D100BFEE
:102A100013880B400BB1012000E00020704701F447
:102A20000072B2F5007F00D100BFCA430280704738
:102A300070B50246002400230025002040F66A16E7
:102A4000B14200D100BFC1F3421501F01F030126BE
:102A500006FA03F3012D02D19689334006E0022DD8
:102A600002D1168A334001E0968A33400C120126C7
:102A700006FA04F41688344013B10CB1012000E0CA
:102A8000002070BD10B50022002340F66A14A14258
:102A900000D100BF0A1201249440A3B2DC43048099
:102AA00010BD0000003801400044004000480040D4
:102AB000004C00400050004031490143314A116050
:102AC000704770B5002100230F22C47804B32D4C49
:102AD000246804F4E064C4F5E064210AC1F104034D
:102AE000CA40447804FA03F1847814402143090170
:102AF000254C0678A155047804F01F050124AC404C
:102B000005786D11AD0005F1E025C5F8004109E03B
:102B1000047804F01F050124AC401C4D06787611A2
:102B200045F8264070BD1A4A0A400243154B1B1F48
:102B30001A60704739B1134A121D12680243114BD3
:102B40001B1D1A6006E00F4A121D126882430D4BCE
:102B50001B1D1A607047042808D14FF0E021096955
:102B600041F004014FF0E022116107E04FF0E02155
:102B7000096921F004014FF0E02211617047000063
:102B80000000FA050CED00E000E400E080E100E068
:102B900080FFFF1F10B50446FE48844208D1012182
:102BA000C014FFF73BFD0021E014FFF737FDC4E040
:102BB000B4F1804F08D101210846FFF73CFD002108
:102BC0000120FFF738FDB8E0F348844208D1012125
:102BD0000220FFF730FD00210220FFF72CFDACE0C2
:102BE000EE48844208D101210420FFF724FD002192
:102BF0000420FFF720FDA0E0E948844208D101212C
:102C00000820FFF718FD00210820FFF714FD94E0CD
:102C1000E448844208D101211020FFF70CFD002177
:102C20001020FFF708FD88E0DF48844208D1012129
:102C30002020FFF700FD00212020FFF7FCFC7CE0B6
:102C4000DA48844208D101214014FFF7E7FC002153
:102C50006014FFF7E3FC70E0D548844209D10121FC
:102C6000C804FFF7DBFC00214FF40020FFF7D6FC7F
:102C700063E0D048844209D101210805FFF7CEFC6A
:102C800000214FF48010FFF7C9FC56E0CA48844287
:102C900009D101214805FFF7C1FC00214FF40010C4
:102CA000FFF7BCFC49E0C548844208D1012140201F
:102CB000FFF7C1FC00214020FFF7BDFC3DE0C0480C
:102CC000844208D101218020FFF7B5FC002180203B
:102CD000FFF7B1FC31E0BB48844208D101218015E7
:102CE000FFF7A9FC0021A015FFF7A5FC25E0B648D9
:102CF000844209D101210804FFF790FC00214FF420
:102D00008030FFF78BFC18E0B048844209D10121E4
:102D10004804FFF783FC00214FF40030FFF77EFCEE
:102D20000BE0AB48844208D101218804FFF776FC10
:102D300000214FF48020FFF771FC10BD00220288B3
:102D4000944B98420ED0994B98420BD0B0F1804FE3
:102D500008D0914B984205D0904B984202D0904BAE
:102D6000984204D14FF68F731A404B881A438D4B0B
:102D7000984207D08C4B984204D04FF6FF431A403C
:102D8000CB881A4302808B8883850B880385814B0F
:102D900098420BD0854B984208D08B4B984205D077
:102DA0008A4B984202D08A4B984201D10B7A038613
:102DB00001238382704770B5002400220023058C14
:102DC0004FF6FE7635400584028C8388048B4FF6DF
:102DD0008F752C40B51E2C400D882C43751E2A4043
:102DE0000D892A434D882A436A4DA8420BD06F4D66
:102DF000A84208D0744DA84205D0744DA84202D014
:102E0000734DA84213D14FF6F7752A404D892A43D6
:102E10004FF6FB752A408D882A434FF6FF652B40FD
:102E20004FF6FF552B408D892B43CD892B43838053
:102E30000483CD888586028470BD70B5002400228D
:102E40000023058C4FF6EF7635400584028C83888D
:102E5000048B48F6FF752C404FF6FF452C400D883B
:102E60004FF6FF7606EA05252C434FF6DF752A401C
:102E70000D8906EA05152A434D8806EA05152A43F9
:102E8000444DA84202D0494DA8421DD14FF67F754E
:102E90002A404D894FF6FF7606EA05152A434FF67C
:102EA000BF752A408D8806EA05152A434FF6FF357F
:102EB0002B404FF2FF752B408D8906EA85052B4389
:102EC000CD8906EA85052B4383800483CD88058759
:102ED000028470BD70B5002400220023058C4FF6DB
:102EE000FF6635400584028C8388848B4FF68F758E
:102EF0002C404FF6FC752C400D882C434FF6FF55A7
:102F00002A400D894FF6FF7606EA05252A434D88AB
:102F100006EA05252A431F4DA84202D0234DA842A8
:102F20001DD14FF2FF752A404D894FF6FF7606EA14
:102F300005252A434FF6FF352A408D8806EA0525E8
:102F40002A434EF6FF752B404DF6FF752B408D89B9
:102F500006EA05152B43CD8906EA05152B43838028
:102F60008483CD888587028470BD70B500220023DC
:102F70000024058C4EF6FF7635400584038C84884A
:102F8000828B48F6FF752A404FF6FF452A400D8890
:102F900020E00000002C0140000400400008004038
:102FA000000C0040001000400014004000340140BC
:102FB000004C014000500140005401400018004006
:102FC000001C00400020004000400140004401403F
:102FD000004801404FF6FF7606EA05252A434DF6E4
:102FE000FF752B400D8906EA05352B434D8806EA0F
:102FF00005352B43FA4DA84202D0FA4DA84208D11C
:103000004BF6FF752C408D894FF6FF7606EA851545
:103010002C4384808283CD88A0F84050038470BD07
:10302000828B4FF2FF331A408283828B4FF6FF73FD
:1030300003EA01231A4382837047F0B50C46154614
:10304000002200210026078C4EF6FF7C07EA0C07C1
:103050000784828B018C4FF6FF7707EA043640F62F
:10306000FF473A404FF6FF7707EA05273A434FF606
:10307000FF7707EA03373A43D94FB8420ED0D94F0A
:10308000B8420BD0B0F1804F08D0D74FB84205D02E
:10309000D64FB84202D0D64FB84206D14DF6FF7790
:1030A000394046F48057394305E047F6FF57394029
:1030B00044F48057394382830184F0BD828B4FF6FC
:1030C000F3731A408283828B0A4382837047F0B580
:1030D0000C461546002200210026078C4FF6FF6C97
:1030E00007EA0C070784828B018C4FF6FF7707EA0B
:1030F00004264FF60C773A404FF6FF7707EA03179E
:103100002F433A43B64FB8420ED0B64FB8420BD019
:10311000B0F1804F08D0B44FB84205D0B34FB84299
:1031200002D0B34FB84206D14FF6FF57394046F4AC
:103130008077394305E04FF2FF57394044F48077F8
:10314000394382830184F0BD028B4FF2FF331A4072
:103150000283028B4FF6FF7303EA01231A430283B3
:103160007047F0B50C461546002200210026078C5A
:103170004FF6EF7C07EA0C070784028B018C4FF6B1
:10318000FF7707EA041640F6FF473A404FF6FF770D
:1031900007EA03373A434FF6FF7707EA05273A4332
:1031A0008F4FB8420ED08F4FB8420BD0B0F1804F46
:1031B00008D08D4FB84205D08C4FB84202D08C4F0A
:1031C000B84206D14FF6DF77394046F01007394351
:1031D00005E04FF65F77394044F01007394302832A
:1031E0000184F0BD028B4FF6F3731A400283028B09
:1031F0000A4302837047F0B50C46154600220021B1
:10320000068C4FF6FE773E400684028B018C4FF60B
:103210000C7632407E1C06EA03162E433243704E73
:10322000B0420ED06F4EB0420BD0B0F1804F08D0FC
:103230006D4EB04205D06D4EB04202D06C4EB042E1
:1032400006D14FF6FD76314044F00106314305E0EA
:103250004FF6F576314044F0010631430283018494
:10326000F0BD70B505460C465D4885420ED05D4800
:1032700085420BD0B5F1804F08D05B48854205D020
:103280005A48854202D05A48854200D100E000BF2A
:10329000208850B92389A28861882846FFF7ABFFB0
:1032A000E1882846FFF79EFF25E0208804280AD100
:1032B0002389A28861882846FFF753FFE1882846C2
:1032C000FFF742FF17E0208808280AD12389A28847
:1032D00061882846FFF7FBFEE1882846FFF7EEFEEF
:1032E00009E02389A28861882846FFF7A6FEE188C5
:1032F0002846FFF795FE70BD2DE9F04105460C46C6
:1033000000260127608808B9022600E00026A08870
:10331000012801D1022700E001272088A0B92389D4
:10332000A28861882846FFF766FFE1882846FFF7F4
:1033300059FF23893A4631462846FFF712FFE188B4
:103340002846FFF701FF13E02389A28861882846F9
:10335000FFF707FFE1882846FFF7F6FE23893A4684
:1033600031462846FFF747FFE1882846FFF73AFF36
:10337000BDE8F0810A884B881A438B881A43CB88B2
:103380001A430B891A434B891A438B891A43A0F8B5
:10339000442070474FF6FF71818000210180C18079
:1033A0004180017270470021018041808180C1808D
:1033B000018141818181C18170470021018041806B
:1033C000012181800021C18001817047002101809D
:1033D00041808180C18001814181818170470000ED
:1033E000002C01400034014000040040000800406F
:1033F000000C004021B1028842F00102028004E08A
:1034000002884FF6FE731A400280704731B1B0F85F
:10341000442042F40042A0F8442005E0B0F84420E3
:10342000C2F30E02A0F8442070471AB183890B43FF
:10343000838102E083898B43838170478182704757
:1034400041EA0203A0F8483070471AB183890B4360
:10345000838102E083898B438381704701894FF622
:10346000F8721140018170470A46002101894FF628
:103470008F73194011430181704730B504460D46E2
:1034800029462046FFF7F0FF208940F00700208101
:1034900030BD2DE9F04104460D4616461F46602D0D
:1034A00006D13B46012231462046FFF75AFE05E091
:1034B0003B46012231462046FFF79DFE2946204625
:1034C000FFF7D2FF208940F007002081BDE8F0819E
:1034D00030B50C4600210189C9B24FF6FF7505EAE7
:1034E0000325154325432943018130BD2DE9F041D2
:1034F00005460E4617469846002443463A4631464E
:103500002846FFF7E5FF2C894FF6F870044044F099
:1035100007044FF68F70044044F070042C81BDE81E
:10352000F081F0B504460D4616461F463B4632462E
:1035300029462046FFF7CCFF208940F480402081B7
:10354000F0BD0185828270470A46002101884FF64E
:103550008F731940114301807047F0B50C46154632
:103560001E460021002200230189028B038C4FF6A6
:10357000F877394021434FF6FC473A4040F20117B3
:103580003A434FF6DD773B404FF6FF7707EA0617E1
:103590002F433B43018102830384F0BD0A4600218F
:1035A000018B4FF68F7319401143018370470A4610
:1035B0000021018B48F6FF7319404FF6FF7303EAB1
:1035C00002231943018370470A460021818B4FF67D
:1035D0008F7319401143818370470A460021818B04
:1035E00048F6FF7319404FF6FF7303EA02231943AD
:1035F0008183704721B1028842F08002028004E09A
:1036000002884FF67F731A400280704721B182888A
:1036100042F00402828004E082884FF6FB731A4075
:103620008280704721B1828842F00802828004E0E3
:1036300082884FF6F7731A408280704721B18288E2
:1036400042F00102828004E082884FF6FE731A4045
:10365000828070470A460021018B4FF6F7731940AC
:103660001143018370470A460021018B4FF2FF731B
:1036700019404FF6FF7303EA022319430183704791
:103680000A460021818B4FF6F7731940114381835D
:1036900070470A460021818B4FF2FF7319404FF6A5
:1036A000FF7303EA02231943818370470A4600210E
:1036B000018B4FF6FB7319401143018370470A4693
:1036C0000021018B4FF6FF3319404FF6FF7303EAD9
:1036D00002231943018370470A460021818B4FF66C
:1036E000FB7319401143818370470A460021818B87
:1036F0004FF6FF3319404FF6FF7303EA02231943D5
:10370000818370470A460021018B4FF67F73194071
:103710001143018370470A460021018BC1F30E015A
:103720004FF6FF7303EA02231943018370470A46E9
:103730000021818B4FF67F731940114381837047BD
:103740000A460021818BC1F30E014FF6FF7303EA95
:1037500002231943818370470A460021018C4FF6EA
:10376000FD7319401143018470470A460021018C02
:103770004FF6F77319401143018470470A46002140
:10378000018C4FF6DF7319404FF6FF7303EA021303
:103790001943018470470A460021018C4FF67F735C
:1037A00019404FF6FF7303EA02131943018470476F
:1037B0000A460021018C4FF6FF5319404FF6FF7364
:1037C00003EA02231943018470470A460021018C51
:1037D0004FF2FF7319404FF6FF7303EA02231943B8
:1037E000018470470A460021018C4DF6FF73194091
:1037F0004FF6FF7303EA023319430184704730B573
:10380000002301248C40A3B2048C9C430484048CC8
:1038100002FA01F5ADB22C43048430BD30B500236B
:1038200004248C40A3B2048C9C430484048C02FACC
:1038300001F5ADB22C43048430BD70B503460020C1
:1038400000241846183001258D40ACB21D8CA543CC
:103850001D8409B1082909D100EB6100056825F034
:10386000700505600568154305600EE00D1FC5F382
:103870004E052844056825F4E045056005684FF6C7
:10388000FF7606EA02263543056070BD21B1028845
:1038900042F00202028004E002884FF6FD731A40F3
:1038A0000280704721B1028842F00402028004E0E5
:1038B00002884FF6FB731A400280704721B182885C
:1038C00042F08002828004E082884FF67F731A40C3
:1038D0008280704702884FF6F7731A400280028890
:1038E0000A430280704782884FF68F731A408280A5
:1038F00082880A438280704702894FF6F8731A4023
:10390000028102890A430281704702894FF67F7360
:103910001A40028102890A430281704781847047FC
:10392000818570478186704701877047818770471E
:10393000A0F84010704702884FF6FF431A400280FB
:1039400002880A43028070470146888E704701460C
:10395000088F70470146888F70470146B1F84000D4
:1039600070470146888C70470146088D70470246B3
:103970000020138A0B400BB1012000E000207047AB
:10398000CA430282704730B502460020002300245B
:10399000158A05EA0103958905EA010413B10CB102
:1039A000012000E0002030BDCA43028270470000C1
:1039B00010B50446FA48844208D101214015FEF7AB
:1039C0002DFE00216015FEF729FE17E0F548844220
:1039D00008D101210015FEF721FE00212015FEF778
:1039E0001DFE0BE0F048844208D10121C803FEF718
:1039F00015FE00214FF40040FEF710FE10BD30B55B
:103A00000246002000235068E84C20400D790C68E5
:103A100044EA0524204350609068E54C2040D1E9F9
:103A200002542C434D7944EA450420439060D06A07
:103A300020F470000C7C641EE4B2234340EA03507F
:103A4000D06230BD00210160017141718160C160AF
:103A500001210174704721B1826842F00102826045
:103A600003E0826822F001028260704721B182681F
:103A700042F48072826003E0826822F48072826085
:103A8000704710B50023CBB21AB144681C434460A0
:103A900002E044689C43446010BD816841F0080125
:103AA00081607047014600208A6802F008020AB16E
:103AB000012000E000207047816841F0040181602E
:103AC0007047014600208A6802F004020AB1012012
:103AD00000E00020704721B1826842F4A0028260B9
:103AE00003E0826822F4A002826070470146002051
:103AF0008A6802F480020AB1012000E000207047C9
:103B000010B50A4600210023416821F46041531E8C
:103B100041EA4331416010BD21B1426842F4006284
:103B2000426003E0426822F4006242607047F0B5F0
:103B300004460D4600200021092D11DDE068A5F1A5
:103B40000A0606EB4607072606FA07F18843A5F1A1
:103B50000A0606EB460603FA06F10843E0600CE0AD
:103B6000206905EB4507072606FA07F1884305EBB0
:103B7000450603FA06F108432061072A0FDA606B55
:103B8000561E06EB86071F2606FA07F18843561EC7
:103B900006EB860605FA06F10843606322E00D2A6B
:103BA0000FDA206BD61F06EB86071F2606FA07F1F1
:103BB0008843D61F06EB860605FA06F10843206304
:103BC00010E0E06AA2F10D0606EB86071F2606FA52
:103BD00007F18843A2F10D0606EB860605FA06F109
:103BE0000843E062F0BD21B1826842F48012826035
:103BF00003E0826822F48012826070470146C86C3C
:103C000080B2704766484C300068704721B1426806
:103C100042F48062426003E0426822F480624260C3
:103C2000704721B1426842F48052426003E042682A
:103C300022F48052426070470A460021816821F4D4
:103C4000E04111438160704721B1826842F4004233
:103C5000826003E0826822F400428260704721B1F2
:103C6000826842F40212826003E0826822F4021247
:103C700082607047014600208A6802F400120AB18F
:103C8000012000E000207047F0B5044615460020F2
:103C900000220026092911DDE068A1F10A0707EBDF
:103CA000470C072707FA0CF29043A1F10A0707EB2C
:103CB000470703FA07F21043E0600CE0206901EBCC
:103CC000410C072707FA0CF2904301EB410703FA76
:103CD00007F210432061A06BC0F30156EF1C06F100
:103CE000010CA7EB0C0707EB870C1F2707FA0CF258
:103CF0009043EF1C06F1010CA7EB0C0707EB8707BD
:103D000001FA07F21043A063F0BD10B50A46002186
:103D10000023816B21F44011531E41EA035181635A
:103D200010BD08B5002300930090009B0B44009346
:103D3000009B1A6008BD08B5024600200090009262
:103D400001F12800009B184400900098006880B2A0
:103D500008BD0A4600214168164B194011434160D5
:103D600070474162826270470A460021416821F033
:103D70001F0111434160704740B10949083109688A
:103D800041F40001064A0832116007E00449083195
:103D9000096821F40001024A0832116070470000EE
:103DA0000024014000280140003C0140FFFEF0FFDC
:103DB000FDF7F1FFFFFD3FFF0246002013680B40B7
:103DC0000BB1012000E000207047CA430260704739
:103DD00070B502460020002300240B125568CEB2B5
:103DE00005EA060415681D4015B10CB1012000E07C
:103DF000002070BD00220A12D34303607047704751
:103E00007047704770477047754600F02BF8AE4614
:103E100005006946534620F00700854618B020B5D6
:103E2000FEF7B4F8BDE820404FF000064FF0000761
:103E30004FF000084FF0000B21F00701AC46ACE852
:103E4000C009ACE8C009ACE8C009ACE8C0098D46BF
:103E5000704710B50446AFF300802046BDE810401F
:103E6000FCF7D1B900487047280A002021F0004231
:103E7000A2F16052B2F5801F01F0004328BFD2F1D9
:103E80007F6C0BD95FEA001C43EAC20242EB507020
:103E900018BF704728BF20F001007047B2F5801F9F
:103EA000BCBF184670474FEA410C1CF5001F02D2F8
:103EB000084600F00ABE70B500F0E4F90000008981
:103EC000FFF7F6BF4FF00040A0F5800070470000FC
:103ED00010B591EA030F48BF83F0004300F17082F0
:103EE000841A71EB030C05D2121943EB0C03001B6F
:103EF00061EB0C01DFF824E14FEA1154A4EB135CF1
:103F00001EEA430F18BF9EEA445F73D023EA0E03F4
:103F1000DCF1200E21EA045143F4801332D322FA5B
:103F20000CFE10EB0E0023FA0CFE41EB0E01CCF15F
:103F3000200E03FA0EFE10EB0E0051F10001B1F558
:103F4000801FCCF1200E32D201EB045112FA0EF296
:103F5000BDE8104058BF7047401C38BF5FEA4202BE
:103F600018BF7047002814BF20F0010041F1000184
:103F70004FEA410313F5001F38BF7047A1F1C0415C
:103F800000F0CEB9012A43EB0302ACF1200CDCF1C6
:103F90001F0E32BF4FF0000E23FA0CF310EB03009C
:103FA00041EB0451B4EB115FD0D0A1EB045101F50A
:103FB000801149085FEA300001EB04510ED350F143
:103FC000000038BF12FA0EFE08D1BDE81040C9E764
:103FD000401C38BF5FEA4202CAD1C3E7BDE81040C7
:103FE0004FEA410313F5001F38BF7047A1F1C041EC
:103FF00000F096B99EEA445F08D011EA5E0FBDE872
:10400000104004BF01F0004100207047BDE810409F
:1040100070B500F037F900BF64FBBE3E0000E0FF62
:10402000491058BFC1F140415B1058BFC3F1404334
:104030008B42EFF3008070474FEA1153A3F5806382
:10404000D3F11E03A8BFD3F1200C08DB4FF00042D0
:1040500042EAC12252EA505232FA03F07047094252
:104060000BD4102BC4BF0020704703F5787CBCF143
:10407000FF3F05D04FF0FF3070474FF00000704712
:1040800070B500F0FFF800BF49922480002070470F
:10409000F0E7B0FA80F310FA03F10AD0C3F11D0380
:1040A00003F580634FEA41504FEA035202EBD121FE
:1040B00070474FF00000704751EA030C17D41CF50D
:1040C000801F58BFBCF5801F00F10680994218BFC1
:1040D000704708BF9042704707D711F5801F58BF3F
:1040E00013F5801F19D499427047894270471CF517
:1040F000801F08D5BCF5801FF7D58B4218BF7047CD
:1041000008BF824270474FF4001C1CEB410F38BFC0
:104110001CEB430F01D28B42704770B500F0B2F830
:10412000922449004FF000514FF08053FFF778BFC1
:10413000DFF848C170B51CEA111E1EBF1CEA13153A
:104140009EEA0C0F95EA0C0F00F06F8081EA0304E1
:1041500023EA4C134EEAD47E21EA4C1141F480113B
:1041600043F48013AE44A1FB024CA0FB0365AEF107
:104170007F7E361955EB0C05A1FB034C4CF1000377
:10418000A0FB021C16EB0C06654153F1000309422B
:1041900018BF46F0010613F4007F0BD14FEA03313C
:1041A0004FEA0530340341EA155140EA16506FF0EA
:1041B00003020AE04FEAC3214FEAC520F40241EAB4
:1041C000555140EA56506FF0020202EB2E4201EBCD
:1041D000025585EACE710AD05FEA440C18BF24F07C
:1041E000004450F1000041F1000120EAD47040F297
:1041F000FE7C624500D270BDA84214BF4FF08044DF
:104200004FF04044002E08BF0024BEF1806FA8BFCD
:10421000A1F1C041BDE8704080F282804FF0000003
:1042200001F1C04101F0004170479EEA0C0F0CEA19
:10423000131518BF95EA0C0F06D04FF0000081EA65
:10424000030E0EF0004170BD00F01CF88900013E25
:1042500000F007B800F009B84FEA430C5FEA5C5C75
:1042600008D081EA030100F05BB84FEA410C5FEA35
:104270005C5CF6D14FF00000014970470000FF0779
:104280000000F87F0EF1020E2EF0030E5EF8046BB4
:10429000364205D4012A43EB030515F5001F12D859
:1042A000012841EB010C1CF5001F0CD80ED14FEA80
:1042B000D17C15F5001F0CEB4C0C0CF1020C08BF67
:1042C0004CEBD37C04E04FF0080C01E04FEAD37CC8
:1042D0000CEB4C0526FA05F606F00706B6F1040CC1
:1042E00006D20EEB860CBDE870404CF0010C604726
:1042F000DFE80CF0090B02024FF000414FF0000024
:10430000A1F5002170BD19461046012851EB0104AA
:1043100018BFD4F5001484BF002001F0004170BD27
:104320000808A0F500114FEA3101704753EA010C6B
:1043300017D41CF5801F58BFBCF5801F00F1068004
:104340008B4218BF704708BF8242704707D713F5EA
:10435000801F58BF11F5801F19D48B4270479B42B4
:1043600070471CF5801F08D5BCF5801FF7D5994212
:1043700018BF704708BF904270474FF4001C1CEBF9
:10438000430F38BF1CEB410F01D2994270470FB465
:104390000CBC03BCFFF7C1BE91EA030F10B581F05E
:1043A00000413FF59DAD83F0004300F009B80000E7
:1043B00010B591EA030F48BF83F000433FF590AD7D
:1043C000841A71EB030C07D212198CF0004C43EBEA
:1043D0000C03001B61EB0C01DFF8A4E14FEA115460
:1043E000A4EB135C1EEA430F18BF9EEA445F00F083
:1043F000B08023EA6E03524221EA0451C3EB6E03FC
:1044000038BF5B1EDCF1200E25D322FA0CFE10EB28
:104410000E0043FA0CFE41EB0E01CCF1200E03FA24
:104420000EFE10EB0E0051F10001CCF1200E29D44C
:1044300012FA0EF201EB0451BDE8104058BF70476C
:10444000401C1CBFB2F1004F704700280CBF491C34
:1044500020F00100704712EB020E43EB030218BF7D
:104460004FF0010E4EEA4202ACF1200CDCF11E0EC0
:1044700054D943FA0CFE10EB0E0051F1FF31CCF190
:104480001E0ED5D50EF1010E12FA0EFE404141EB83
:10449000010101EB445C5FEA5C5C10D910EBDE705B
:1044A00001EB045138BFBEF1004FBDE8104018BF0A
:1044B000704700280CBF491C20F00100704730D223
:1044C0004FEAD42C11F5001124F400641BD0B1FA8A
:1044D00081F20B3AA41AA41ED2F12003914030FAC3
:1044E00003F31943904001EBCC71002C01EB045114
:1044F000BDE81040A8BF704701F1C0414FF0000077
:1045000001F000417047B0FA80F310FA03F100D1D6
:1045100010BDE41A173C4805C90AE4E701EB045151
:1045200010BD491001EB0451BDE810404FEA3000C6
:1045300002E04FF0000170474A0008BF0042F8D087
:10454000B2F5001F28BF704701F000414FF0000096
:1045500070479EEA445F07D011EA5E0FBDE8104045
:1045600004BF002100207047BDE8104070B5FFF780
:1045700089FE00BF40DFF63E83F0004110467047E1
:104580000000E0FF43004FEAD30C4FEA3C0C4340ED
:104590001FBF40070CF1605113F0FE4F70471CF035
:1045A000006F03D100200CF0004170470CF0004375
:1045B00043EA507010B540EACC0000F040FA00BF6A
:1045C000000000924FEA0001FFF7AABE4FF0004141
:1045D0004FF00000A1F500217047000090EA010FA4
:1045E00048BF81F0004100F1AE82421A3CBF801A00
:1045F00089184FEAD0524FF07F4C1CEA410FA2EBD2
:10460000D15318BF9CEA026F00F03B804FF0004C82
:104610004CEA00204CEA012121FA03FC10EB0C0CBF
:104620001ED202F1FF325FEA1C2040EBC25038BFBD
:1046300070471CF07F0F4FEA400C18BFBCF17F4F52
:1046400038BF7047C3F12003994008BF20F0010034
:10465000BCF17F4F38BF7047A0F1C04000F035BAC1
:104660004FEA3C00000A40EBC25028BF1CF0FF0F8D
:104670004FEA400CE6D018BFBCF17F4F38BF7047FF
:10468000EAE79CEA026F05D010EA5C0F08BF00F071
:104690000040704710B500F0D2F900BF64FBBE3E89
:1046A000401058BFC0F14040491058BFC1F14041CF
:1046B0008142EFF3008070474FF47F0C1CEAD01268
:1046C0001EBF1CEAD11392EA0C0F93EA0C0F00F004
:1046D000858090EA010F48BF42F4807240F4000CDC
:1046E00041F400002CF07F4120F07F4000B5814272
:1046F000A2EB03020FF2081CACEB504EC0F100001D
:104700009EF800E04FEA4E0E00FB0EFC38BF490059
:104710004FEA2C1C02F5FA020CFB0EF34FEACE1EF8
:104720004FEA112C4FEAC1210EEB635E42EB2242AD
:104730000EFB0CFC4FEA1C5300FB03114FEA112C3B
:104740004FEA01310EFB0CFC4FEADC4C00FB0C1174
:10475000C14228BF09184CEB03335DF804EB10EBA2
:10476000410143EBC250B2F57C0F38BF704729D5E9
:1047700012F0F00F1CBF00F1C04000F00040704785
:10478000008182838485868788898B8C8D8E8F912A
:104790009293959697999A9C9D9FA0A2A3A5A7A84E
:1047A000AAACAEB0B2B3B5B7B9BCBEC0C2C5C7C97A
:1047B000CCCED1D4D7D9DCDFE2E6E9ECF0F3F7FADE
:1047C000FE0000004FEA400C0CF1807CBCF17E4FF3
:1047D00028BF7047B0F1C04000F077B990EA010FF0
:1047E0000CEAD11348BF42F48072624538BF63457A
:1047F00007D213F47F0F16D080EA010000F00040CA
:10480000704710B500F01BF9097EFC3E00F005B8BA
:1048100080EA010000F00040704780EA010000F0EB
:10482000004000F052B912F47F0F04BF02487047F5
:1048300080EA010000F049B90000C07FC10DD1F14C
:104840009E0206DB4FEA002343F0004323FA02F006
:104850007047004207D54FEA4001B1F1FE4F02D246
:104860004FF00000704710B500F0E9F8499224803D
:10487000002070476FEA20007047000010F00041F0
:1048800048BF4042B0FA80F310FA03F2C3F19D032F
:104890000BD051EAC35101EB1220530638BF7047C9
:1048A00000F1010008BF20F001007047B0FA80F36A
:1048B00010FA03F2C3F19D030AD0D90501EB1220CF
:1048C000530638BF704700F1010008BF20F0010017
:1048D0007047000050EA010C00F113801CF5000F36
:1048E00058BFBCF5000F01D48842704707D710F5B8
:1048F000000F58BF11F5000F15D488427047894248
:1049000070471CF5000F04D5BCF5000FF7D58142A8
:1049100070474FF0807C1CEB400F38BF1CEB410F01
:1049200001D28142704710B500F089F89224490005
:104930004FF000504FF08051FFF7B2BE4FF47F0CA4
:104940001CEAD0121EBF1CEAD11392EA0C0F93EAA4
:104950000C0F00F0478090EA010F48BF42F48072CC
:104960004FF0004C4CEA00204CEA012102EB03021C
:10497000A0FB0113A2F50002002918BF43F00103B8
:104980005B0028BF4FEA330342EB22425FEA132C5D
:104990004CEBC2502EBFBCEB436FB2F57C0F70479F
:1049A0004FEA036CBCF1004F08BF20F00100B2F5E4
:1049B0007C0F38BF70470BD582F0FF0212F5803FA5
:1049C000C8BF704700F1C040D8BF00F0004070473A
:1049D00000F5000C5FEA4C0C48BF7047B0F1C040D6
:1049E00000F073B890EA010F0CEAD11348BF42F40B
:1049F0008072624538BF634504D280EA010000F04E
:104A00000040704710B500F01AF800BF8900013E61
:104A100000F007B800F009B85FEA410C5FEA1C6CCF
:104A200008D080EA010000F050B85FEA400C5FEA6D
:104A30001C6CF6D14FF00040A0F5800070470EF1DD
:104A4000020E2EF0030E5EF8044B244204D44FEA0B
:104A50004102B2F17F4F11D84FEA4003B3F17F4FCB
:104A60000CD80ED14FEAD07CB2F17F4F0CEB4C0C3E
:104A70000CF1020C08BF4CEBD17C04E04FF0080CA9
:104A800001E04FEAD17C0CEB4C0324FA03F404F070
:104A90000704B4F1040C06D20EEB840CBDE8104000
:104AA0004CF0010C6047DFE80CF0070802024FF001
:104AB0000040A0F5800010BD0846420018BFD2F1AA
:104AC000807288BF00F0004010BDFF2141EAD05045
:104AD000C005704751EA000C00F113801CF5000F6F
:104AE00058BFBCF5000F01D48142704707D711F5BC
:104AF000000F58BF10F5000F15D48142704789424E
:104B000070471CF5000F04D5BCF5000FF7D588429F
:104B100070474FF0807C1CEB410F38BF1CEB400FFF
:104B200001D28842704780EA010081EA000180EAF0
:104B30000100FFF7F8BE000090EA010F48BF81F0C6
:104B400000413FF552AD421A04D882F00042A0EB7A
:104B5000020011444FEAD0524FF07F4C1CEA410F43
:104B6000A2EBD15318BF9CEA026F4AD04FF0004C21
:104B70004CEA00204CEA012121FA03FCB0EB0C0CBA
:104B80000FD412F0FE0F36D05FEA4C001DD5001294
:104B900040EBC25038BF70471CF03F0F18BF704742
:104BA0000BE0A2F101025FEA1C2040EBC25038BFCB
:104BB00070471CF07F0F18BF7047C3F12003994066
:104BC00014BF401E20F00100704780084FEA1223F6
:104BD00008BF7047B0FA80FCA2EB0C02CCF1280CA5
:104BE00060FA0CF093EA122F04BF00EBC25070473A
:104BF0004FEAC3707047130A5FEADC1008BF7047C2
:104C0000F6E79CEA026F04D010EA5C0F08BF0020B0
:104C1000704710B5FFF713FF40DFF63E81F000400C
:104C200070470000444C00080000002060090000AC
:104C30006C010008305100086009002028070000BE
:104C4000D0010008101B705B325D2E625B365D2E5A
:104C50007478743D2231382E305622000000D00284
:104C6000052004000B090620060000705B3326C2F5
:104C700035265116613C7006322E393541165237B1
:104C800016300D35302E305722005C060100585486
:104C90006152223452E231523116E232523116114F
:104CA00057600A70636F3D3635353335144238141A
:104CB00062301002113924D233240211384801190C
:104CC0003801127001123C9230DC0613362E0613A6
:104CD000362E0611362E41486009CD0A0000666660
:104CE000663F5606133532061335325235D635D661
:104CF0007006302E3939391695100611351002110B
:104D000035FCA12881E885CE2004010101B17004A1
:104D1000A24A0412000A2B02030406070809010034
:104D2000010006263FCDCCCC3D18E0059A99193EEE
:104D300018011214B135000410A08C4715100AE0B8
:104D400041000060420000A80412E20810060D4372
:104D50000000290412450412610410067D430080FE
:104D60008C04129A0412A80412B61412C40412D2AB
:104D70000C12DF0812ED041C07FB4300400444340E
:104D80000310094400C011440040180C10061F44D1
:104D900000802508122C08123208123908123F2010
:104DA000124520124C0C12520C125804125E1C12A6
:104DB0006504126B0412710412771410067C44000F
:104DC0006081281284101007874400E08944BC11D8
:104DD0001410068F440020922012940C12971C127B
:104DE0009A48129C08129F0812A10812A41812A631
:104DF0002012A80C12AB4012AD1812AF1012B14421
:104E000012B31412B60412B80412BA0412BC14126B
:104E1000BD1C12BF5C12C13812C35C12C51012C691
:104E20000C12C82012CA3C12CB0812CD1012CE1898
:104E300012CF2012D10C12D23012D31012D4401241
:104E4000D52012D70412D80412D910110413C0DAD5
:104E50003812DB7C12DC1412DD2C11041320DE1856
:104E600011041320DF1011041300E020110412803C
:104E70000412C00452E0048300E10C52C020212837
:104E8000213021382140314842DE582160216821FB
:104E900070217821802188319042D7A021A821B0AB
:104EA00021B821C021C821D021D831E042CAF02147
:104EB000F8250025082510251825202528353046F9
:104EC000B840254825502558256025682570257847
:104ED00025803588569F98469AA825B025B825C0C4
:104EE00025C825D025D825E025E825F025F8390066
:104EF0004A6B1029182920292829302938294039B6
:104F0000485A32584A256829702978298039884AB0
:104F1000FB9839A04AD2B029B839C04A9AD029D8CA
:104F200039E05A45F029F85EE208032D10032D18E8
:104F3000033D200312C1101EC22003110412E20817
:104F40001F0DC3200311041245041261041F7DC309
:104F500020031104129A0412A80412B61412C404F5
:104F600012D20C12DF0812ED0413FBC3981EC420EA
:104F7000031EC4200312C4B0110C1F1FC420031150
:104F800008122C08123208123908123F201245204C
:104F9000124C0C12520C125804125E1C12650412B0
:104FA0006B04127104127714177CC4381128128410
:104FB000101F87C420031EC4DC0311141F8FC420DC
:104FC00003112012940C12971C129A48129C08127A
:104FD0009F0812A10812A41812A62012A80C12AB46
:104FE0004012AD1812AF1012B14412B31412B6042D
:104FF00012B80412BA0412BC1412BD1C12BF5C1207
:10500000C13812C35C12C51012C60C12C82012CAD5
:105010003C12CB0812CD1012CE1812CF2012D10C98
:1050200012D23012D31012D44012D52012D704124B
:10503000D80412D910110413C0DA3812DB7C12DC48
:105040001412DD2C11041320DE1811041320DF10BC
:1050500011041300E020110412800412C00452E075
:10506000048300E10C52C020212821302138214046
:10507000314842DE58216021682170217821802149
:1050800088319042D7A021A821B021B821C021C8E1
:1050900021D021D831E042CAF021F8250025082589
:1050A00010251825202528353046B840254825509C
:1050B0002558256025682570257825803588569FD8
:1050C00098469AA825B025B825C025C825D025D84A
:1050D00025E025E825F025F839004A6B1029182924
:1050E00020292829302938294039485A32584A2558
:1050F0006829702978298039884AFB9839A04AD2D2
:10510000B029B839C04A9AD029D839E05A45F0298F
:10511000F85EE208032D10032D1803BD08071DF6E5
:10512000066DFA06000700020406080000000000F1
:0400000508000131BD
:00000001FF
