:020000040800F2
:1000000078070020ED040008F1020008F302000860
:10001000F7020008FB020008FF02000800000000D1
:1000200000000000000000000000000003030008C2
:10003000050300080000000007030008090300088A
:100040000705000807050008070500080705000860
:100050000705000807050008070500080705000850
:100060000705000807050008070500080705000840
:100070000705000807050008070500080705000830
:100080000705000807050008070500080705000820
:100090000705000807050008070500080705000810
:1000A0000705000807050008070500080705000800
:1000B00007050008070500080705000807050008F0
:1000C00007050008070500080705000807050008E0
:1000D0000705000883170008070500080705000842
:1000E00007050008070500080705000807050008C0
:1000F00007050008070500080705000807050008B0
:10010000070500080705000807050008070500089F
:10011000070500080705000807050008070500088F
:10012000070500080705000807050008070500087F
:1001300000F002F800F03AF80AA090E8000C8244BF
:100140008344AAF10107DA4501D100F02FF8AFF29C
:10015000090EBAE80F0013F0010F18BFFB1A43F0A5
:1001600001031847B4300000D4300000103A24BF17
:1001700078C878C1FAD8520724BF30C830C144BF0C
:1001800004680C607047000000230024002500264E
:10019000103A28BF78C1FBD8520728BF30C148BFEA
:1001A0000B6070471FB51FBD10B510BD01F021FEDB
:1001B0001146FFF7F7FF00F074F801F03FFE03B4BB
:1001C000FFF7F2FF03BC01F081FA000008B501213E
:1001D000082001F013F84FF47870ADF80000022009
:1001E0008DF8020010208DF8030069463D4800F0AC
:1001F00049FD1020ADF8000002208DF80200042017
:100200008DF803006946374800F03CFD08BD10B585
:1002100000F086FE4FF4803000F0A2FE00F0DFFE1A
:100220003149087008460078012805D14FF4E011E3
:10023000000400F0FDFE0DE0012000F0F6FE00BF1E
:10024000212000F0B0FE0028FAD04FF46011002009
:1002500000F0EEFE102000F0EBF9022000F0D4F9DF
:10026000002000F002FF002000F011FF4FF480603A
:1002700000F004FF012000F0E7FE00BF392000F08D
:1002800092FE0028FAD0022000F0E1FE00BF00F04C
:10029000E7FE0828FBD1012144F2090000F0AEFF7F
:1002A00010BD08B5FFF7B3FFFFF790FF01F05DFC4D
:1002B0004FF4967001F087FDFF2000900021684602
:1002C00001F067FC0021684601F063FC012107484A
:1002D00001F05FFC0121054801F05BFC00BFFEE777
:1002E00070470000000C014000000020501E000874
:1002F000704700BFFEE700BFFEE700BFFEE700BF9C
:10030000FEE7704770477047704700000CB500204B
:10031000019000906C48006840F480306A490860A1
:1003200000BF6948006800F4003000900198401C4C
:100330000190009818B90198B0F5A06FF1D162480A
:10034000006800F4003010B10120009001E00020AE
:1003500000900098012843D15C48006840F01000EC
:100360005A4908600846006820F003000860084603
:10037000006840F0020008605348406852494860F5
:100380000846406848600846406840F4806048601D
:100390000846406820F47C1048600846406840F4F5
:1003A000E81048600846006840F08070086000BFB0
:1003B0004548006800F000700028F9D042484068C5
:1003C00020F00300404948600846406840F00200C1
:1003D000486000BF3C48406800F00C000828F9D194
:1003E0000CBD10B5FFF792FF10BD10B53648006880
:1003F00040F001003449086008464068344908402C
:100400003149486008460068324908402E49086072
:100410000846006820F4802008600846406820F400
:10042000FE0048604FF41F008860FFF7DAFF4FF0CE
:1004300000602949086010BD10B50021002000228D
:10044000214B5B6803F00C0121B1042906D0082977
:1004500028D107E0214B224C236027E01F4B204C82
:10046000236023E0184B5B6803F47010164B5B6845
:1004700003F48032022303EB904022B9194B43432B
:10048000174C23600DE0104B5B6803F4003323B17D
:10049000144B4343124C236003E0104B4343104C76
:1004A000236003E00D4B0E4C236000BF00BF064BE2
:1004B0005B68C3F303130C4CE15C094B1B68CB4036
:1004C000074C236010BD00000010024000200240D5
:1004D0000000FFF8FFFFF6FE08ED00E000127A00D2
:1004E0000400002000093D00080000200948804762
:1004F00009480047FEE7FEE7FEE7FEE7FEE7FEE706
:10050000FEE7FEE7FEE7FEE704480549054A064B1D
:1005100070470000EB03000831010008780100205B
:100520007807002078030020780300203149014338
:10053000314A1160704770B5002100230F22C47842
:1005400004B32D4C246804F4E064C4F5E064210A8B
:10055000C1F10403CA40447804FA03F184781440DA
:1005600021430901254C0678A155047804F01F05A4
:100570000124AC4005786D11AD0005F1E025C5F80A
:10058000004109E0047804F01F050124AC401C4D33
:100590000678761145F8264070BD1A4A0A40024393
:1005A000154B1B1F1A60704739B1134A121D126890
:1005B0000243114B1B1D1A6006E00F4A121D126800
:1005C00082430D4B1B1D1A607047042808D14FF061
:1005D000E021096941F004014FF0E022116107E0D8
:1005E0004FF0E021096921F004014FF0E022116190
:1005F000704700000000FA050CED00E000E400E0A8
:1006000080E100E080FFFF1F01460020FE4A1068E5
:1006100000F03800084310607047FB49096821F07A
:100620000801F94A116011460968014311607047D9
:10063000F549096821F01001F34A11601146096873
:10064000014311607047F148EF494860F048486045
:100650007047EE48EC494860ED4848607047EA480A
:10066000006940F08000E84908617047E648006989
:1006700040F08000E449086170470420E249C968FD
:1006800001F0010109B101200EE0DF49C96801F064
:10069000040109B1022007E0DB49C96801F010013B
:1006A00009B1032000E00420704700B5024604238E
:1006B000FFF7E3FF034603E0FFF7DFFF0346521EA9
:1006C000012B01D1002AF7D102B90523184600BD3C
:1006D00030B5044604254FF43020FFF7E6FF054609
:1006E000042D17D1C848006940F00200C6490861CE
:1006F00008464461006940F0400008614FF4302032
:10070000FFF7D3FF0546C048006941F6FD71084078
:10071000BD490861284630BD10B504244FF430208F
:10072000FFF7C3FF0446042C16D1B748006940F018
:100730000400B54908610846006940F040000861BE
:100740004FF43020FFF7B1FF0446AF48006941F68F
:10075000FB710840AC490861204610BD00B5024657
:100760000423FFF78AFF034603E0FFF786FF0346F3
:10077000521E012B01D1002AF7D102B905231846D8
:1007800000BD10B504244FF43020FFF7E7FF044606
:10079000042C16D19C48006940F004009A49086175
:1007A0000846006940F0400008614FF43020FFF730
:1007B000D5FF04469448006941F6FB710840924910
:1007C0000861204610BD00208F49C96901F002016F
:1007D00009B1012000E00020704730B5A5250424B0
:1007E000FFF7F1FF00B100254FF43020FFF75DFF68
:1007F0000446042C3AD1854883498860844888603F
:100800000846006940F0200008610846006940F091
:10081000400008614FF43020FFF747FF0446042CE6
:100820001BD17948006941F6DF71084076490861BB
:100830000846006940F01000086176480580E00233
:10084000FFF733FF0446052C10D06F48006941F6CE
:10085000EF7108406C49086108E0052C06D06A4831
:10086000006941F6EF71084067490861204630BDD4
:1008700078B506460C46042500200090E802FFF7F4
:1008800014FF0546042D24D15F48006940F00100A3
:100890005D4908613480E802FFF707FF0546042D33
:1008A00010D1B01C0090200C00990880E802FFF7DE
:1008B000FCFE05465448006941F6FE710840524965
:1008C000086106E05048006941F6FE7108404E4953
:1008D0000861284678BD70B504460D460426F0022E
:1008E000FFF7E3FE0646042E11D14748006940F0A9
:1008F0000100454908612580F002FFF7D6FE064653
:100900004148006941F6FE7108403F4908613046A0
:1009100070BD70B505460E460424E002FFF7C5FE23
:100920000446042C17D13948374988603848886014
:100930000846006940F0100008612E80E002FFF7D1
:10094000B4FE0446052C06D02F48006941F6EF712D
:1009500008402D490861204670BD2DE9F04304464A
:100960004FF6FF763746B046B1460425E443E6B27B
:10097000C4F30727C4F307484FEA1469E802FFF7F6
:1009800094FE0546042D49D120481F49886020481F
:1009900088600846006940F010000861FF2E06D00C
:1009A0001C4808300680E802FFF77FFE0546042D4C
:1009B00008D1FF2F06D017480A300780E802FFF75A
:1009C00074FE0546042D0AD1B8F1FF0F07D0114877
:1009D0000C30A0F80080E802FFF767FE0546042D02
:1009E0000AD1B9F1FF0F07D00A480E30A0F80090E5
:1009F000E802FFF75AFE0546052D0FD002480069B0
:100A000041F6EF71084007E00020024023016745EE
:100A1000AB89EFCD00F8FF1F664908612846BDE8A5
:100A2000F08330B5054604244FF43020FFF73DFE37
:100A30000446042C41D160485E4988605F48886064
:100A40000846006940F0200008610846006940F04F
:100A5000400008614FF43020FFF727FE0446042CC5
:100A600022D15448006941F6DF71084051490861BC
:100A70000846006940F0100008611DB1002050498F
:100A8000088002E0A5204E4908804FF43020FFF78F
:100A90000CFE0446052C10D04648006941F6EF7163
:100AA00008404449086108E0052C06D04148006927
:100AB00041F6DF7108403F490861204630BDF0B57E
:100AC00005460E46174604243B483A4988603B4891
:100AD0008860E002FFF7E9FD0446042C19D135488F
:100AE000006940F010003349086147F0F8003043D6
:100AF00028433349891C0880E002FFF7D6FD0446ED
:100B0000052C06D02B48006941F6EF7108402949B1
:100B100008612046F0BD2748C06980087047254815
:100B2000006A704700202349096801F0200109B1DB
:100B3000012000E00020704729B11E4A12690243DB
:100B40001C4B1A6104E01B4A12698243194B1A615B
:100B5000704701460020012908D1164AD26902F0E7
:100B600001020AB1012008E0002006E0114AD26823
:100B70000A400AB1012000E0002070470D49C8601A
:100B8000704704200B49C96801F0010109B1012037
:100B90000EE00849C96801F0040109B1022007E02C
:100BA0000449C96801F0100109B1032000E00420E4
:100BB000704700000020024023016745AB89EFCD5C
:100BC00000F8FF1F10B50446CC48844208D101212B
:100BD000042000F02DFB0021042000F029FB46E05A
:100BE000C748844208D10121082000F021FB0021E0
:100BF000082000F01DFB3AE0C248844208D10121E0
:100C0000102000F015FB0021102000F011FB2EE059
:100C1000BD48844208D10121202000F009FB0021B9
:100C2000202000F005FB22E0B848844208D10121D1
:100C3000402000F0FDFA0021402000F0F9FA16E013
:100C4000B348844208D10121802000F0F1FA00214C
:100C5000802000F0EDFA0AE0AE48844207D101217D
:100C6000801500F0E5FA0021A01500F0E1FA10BDB2
:100C700010B50121084600F0DBFA0021012000F048
:100C8000D7FA10BD2DE9F0410246002500260020CC
:100C900000230024002791F803C00CF00F0591F801
:100CA00003C00CF0100CBCF1000F03D091F802C08F
:100CB0004CEA050591F800C0BCF1000F31D0146872
:100CC00000202BE04FF0010C0CFA00F3B1F800C04B
:100CD0000CEA03069E4220D183004FF00F0C0CFA61
:100CE00003F7BC4305FA03FC4CEA040491F803C083
:100CF000BCF1280F06D14FF0010C0CFA00FCC2F831
:100D000014C00AE091F803C0BCF1480F05D14FF0C0
:100D1000010C0CFA00FCC2F810C0401C0828D1D30A
:100D20001460B1F800C0BCF1FF0F34DD546800203E
:100D30002EE000F1080C4FF0010808FA0CF3B1F8AE
:100D400000C00CEA03069E4221D183004FF00F0C35
:100D50000CFA03F7BC4305FA03FC4CEA040491F8CF
:100D600003C0BCF1280F05D100F1080C08FA0CF8FB
:100D7000C2F8148091F803C0BCF1480F07D100F10C
:100D8000080C4FF0010808FA0CF8C2F81080401C5B
:100D90000828CED35460BDE8F0814FF6FF71018082
:100DA000022181700421C1707047024600209368BF
:100DB0000B400BB1012000E000207047014688681D
:100DC00080B2704702460020D3680B400BB101206F
:100DD00000E0002070470146C86880B2704701619A
:100DE0007047416170470AB1016100E0416170479D
:100DF000C16070474FF480320A4382618161826131
:100E000082698269704702460020434B18684FF69A
:100E10008073184040EA021008433F4B1860704747
:100E20003E49C8617047F0B50A46002300240021FE
:100E3000002500F00046B6F1004F02D1364EF169B0
:100E400001E0354E7168C0F3034583B200F44016EB
:100E5000B6F5401F08D121F070612F4E766826F05C
:100E600070662D4F7E6012E000F48016B6F5801F8C
:100E700006D1032606FA05F4A14341F0706106E0AD
:100E8000460D360103FA06F6B14341F0706122B116
:100E9000460D360103FA06F6314300F00046B6F17E
:100EA000004F02D11C4EF16101E01B4E7160F0BD9C
:100EB00030B500228B071C0F0F2303FA04F2164BE8
:100EC00008338C1053F824309343134C08348D109E
:100ED00044F8253023468C1053F824308C07240F17
:100EE00000FA04F423430C4C08348D1044F82530E8
:100EF00030BD0A49DC31086070470000000801403D
:100F0000000C014000100140001401400018014095
:100F1000001C014000200140000001400000204270
:100F2000DF48006840F00100DD490860084640687D
:100F3000DC490840DA49486008460068DA49084058
:100F4000D74908600846006820F4802008600846F9
:100F5000406820F4FE0048604FF41F00886070472E
:100F6000CF49096821F48031CD4A116011460968E2
:100F700021F480211160B0F5803F03D0B0F5802FBF
:100F80000ED106E0C649096841F48031C44A1160B7
:100F900007E0C349096841F4A021C14A116000E09B
:100FA00000BF00BF704710B501460022002300209B
:100FB0004A11012A02D1BA4C236806E0022A02D162
:100FC000B74C236A01E0B64C636A01F01F020124AA
:100FD00094401C400CB1012000E0002010BD38B549
:100FE000002000900024002500BF3120FFF7DBFF28
:100FF00005460098401C00900098B0F5A06F01D005
:10100000002DF2D03120FFF7CEFF08B1012400E01F
:101010000024204638BD01460020A14A106820F077
:10102000F80040EAC10010607047A04908607047AE
:10103000024600209A4B586820F47C1042EA0103D3
:101040001843974B586070479849086670470146A7
:101050000020934A506820F0030008435060704716
:101060008F48406800F00C007047014600208C4A11
:10107000506820F0F000084350607047014600209F
:10108000874A506820F4E06008435060704701468A
:101090000020834A506820F4605040EAC10050604C
:1010A000704729B17E4A527A02437D4B5A7204E05E
:1010B0007B4A527A82437A4B5A7270477B49D831C5
:1010C0000860704701460020754A506820F440408F
:1010D0000843506070470021714A20321170704AF5
:1010E00082F82010012802D004280AD104E001214E
:1010F0006B4A2032117005E00521694A20321170D7
:1011000000E000BF00BF704769490860704764494C
:10111000096A0143624A11627047654944390860AF
:10112000704730B500210022002400235C4D6D681B
:1011300005F00C0121B1042905D0082923D105E0CF
:101140005C4D056022E05B4D05601FE0544D6D680D
:1011500005F47012524D6D6805F48034022505EBDC
:1011600092421CB9544D554305600BE04C4D6D68DF
:1011700005F400351DB1504D5543056002E04D4D5D
:101180005543056002E04B4D056000BF00BF444D74
:101190006D6805F0F0010909484D6B5C0568DD409C
:1011A00045603F4D6D6805F4E061090A434D6B5C95
:1011B0004568DD4085603A4D6D6805F46051C90AA7
:1011C0003E4D6B5C4568DD40C560354D6D6805F48E
:1011D0004041890B3A4D6B5CC568B5FBF3F5056181
:1011E00030BD29B12E4A526902432D4B5A6104E0A9
:1011F0002B4A526982432A4B5A61704729B1284AC7
:1012000092690243264B9A6104E0254A926982431F
:10121000234B9A61704729B1214AD2690243204B7E
:10122000DA6104E01E4AD26982431D4BDA617047DD
:1012300029B11B4AD2680243194BDA6004E0184A0C
:10124000D2688243164BDA60704729B1144A12699A
:101250000243134B1A6104E0114A12698243104B96
:101260001A61704712494039086070470F49C864D5
:1012700070470B49C87170470948406A40F0807058
:1012800007494862704701460020054A92680A40B3
:101290000AB1012000E000207047014988727047C0
:1012A000001002400000FFF8FFFFF6FE000042427F
:1012B0008004424200127A0000093D00180000201C
:1012C0002800002010B50446FB48844209D10121C2
:1012D0008803FFF7ADFF00214FF48040FFF7A8FF20
:1012E00032E0F648844209D101214804FFF7ADFFFE
:1012F00000214FF40030FFF7A8FF25E0F0488442BA
:1013000009D101218804FFF7A0FF00214FF48020BC
:10131000FFF79BFF18E0EB48844209D10121C80484
:10132000FFF793FF00214FF40020FFF78EFF0BE043
:10133000E548844208D101210805FFF786FF002116
:101340004FF48010FFF781FF10BD2DE9F04786B004
:1013500005460E460024A24600BFA1460027B089DC
:1013600000B100BF2F462C8A4CF6FF700440F08875
:1013700004432C82AC894EF6F3100440B0883189C6
:101380000843718908430443AC81AC8A4FF6FF409F
:101390000440B0890443AC8201A8FFF7C2FEC648EE
:1013A000874202D1DDF810A001E0DDF80CA0A88989
:1013B00000F4004040B10AEBCA0000EB0A103168AB
:1013C0004900B0FBF1F807E00AEBCA0000EB0A1095
:1013D00031688900B0FBF1F86420B8FBF0F004013B
:1013E0002009642101FB1089A88900F4004040B164
:1013F000322000EBC900B0FBF1F000F0070004431D
:1014000008E0322000EB09106421B0FBF1F000F09D
:101410000F0004432C8106B0BDE8F0874FF416514D
:10142000016000218180C18001810C214181002166
:101430008181704710B502460020108A4FF2FF03E9
:1014400018400B884C8823438C882343CC88234343
:101450001843108210BD0021018041808180C1802D
:10146000704721B1828942F40052828104E082896E
:101470004DF6FF731A4082817047F0B50346002491
:1014800000260025002040F66A17B94200D100BFAF
:101490001846C1F3421401F01F06012707FA06F5AA
:1014A000012C01D10C3004E0022C01D1103000E0FD
:1014B00014301AB107682F43076002E00768AF4392
:1014C0000760F0BD1AB1838A0B43838202E0838AEE
:1014D0008B4383827047028A4FF6F0731A40028270
:1014E000028A0A430282704782894FF2FF731A40D0
:1014F000828182890A438281704721B1828942F0C8
:101500000202828104E082894FF6FD731A408281D3
:101510007047028A4FF6DF731A400282028A0A433A
:101520000282704721B1028A42F48042028204E0C2
:10153000028A4BF6FF731A4002827047C1F3080219
:101540008280704701468888C0F30800704781890F
:1015500041F0010181817047028BD2B20283028B7C
:1015600042EA012202837047028B02F47F42028327
:10157000028B0A430283704721B1828A42F0200223
:10158000828204E0828A4FF6DF731A4082827047BB
:1015900021B1828A42F01002828204E0828A4FF6F0
:1015A000EF731A408282704721B1828A42F00802AA
:1015B000828204E0828A4FF6F7731A408282704773
:1015C00021B1828942F40042828103E08289C2F320
:1015D0000E028281704721B1828A42F400628282C7
:1015E00004E0828A4FF2FF731A4082827047828A37
:1015F0004FF6FB731A408282828A0A4382827047C6
:1016000021B1828A42F00202828204E0828A4FF68D
:10161000FD731A408282704702460020B1F5007FB8
:1016200000D100BF13880B400BB1012000E0002067
:10163000704701F40072B2F5007F00D100BFCA43C9
:101640000280704770B50246002400230025002068
:1016500040F66A16B14200D100BFC1F3421501F055
:101660001F03012606FA03F3012D02D196893340A8
:1016700006E0022D02D1168A334001E0968A3340FB
:101680000C12012606FA04F41688344013B10CB18A
:10169000012000E0002070BD10B50022002340F6BC
:1016A0006A14A14200D100BF0A1201249440A3B2DF
:1016B000DC43048010BD00000038014000440040BD
:1016C00000480040004C004000500040014600BF70
:1016D000704700BF494A128802F04002002AF9D040
:1016E000C2B2464B1B1D1A80704710B586B0044627
:1016F000012144F20400FFF781FD4FF40070ADF8C2
:10170000140003208DF8160018208DF8170005A985
:101710003B48FFF7B7FA4FF48060ADF8140004209F
:101720008DF8170005A93648FFF7ACFA25208DF88B
:10173000000003208DF801008DF8020001208DF8D3
:1017400003006846FEF7F7FE01940020ADF808009C
:10175000ADF80A00ADF80C00ADF810000C20ADF8A3
:101760000E0001A92548FFF7F0FD012240F22551A6
:101770002248FFF782FE01212048FFF772FE06B0E3
:1017800010BD10B540F225511C48FFF75BFF10B3A8
:101790001A48FFF7D7FEC4B21A48008800F4004088
:1017A000C8B91848008800F4804060B10A2C03D002
:1017B00000201449088020E01248008840F40040CE
:1017C0001049088019E00D2C06D10E48008840F41D
:1017D00080400C49088010E00A480088C0F30D00E2
:1017E00009490C5407480088401C064908800846EF
:1017F0000088C72801DD0020088010BD00380140A6
:1018000000080140300000205000002010B50024E6
:1018100000BF0AE01021FE48FFF7D4FA08B9012002
:1018200010BD0A2000F0CFFA641CB4F5C87FF1D3D4
:101830000020F5E710B504468021F548FFF7D1FAFE
:101840004021F348FFF7CDFA204600F099FA8021B5
:10185000EF48FFF7C4FA10BD70B505460C46FFF718
:10186000D5FF8021EA48FFF7BCFA4021E848FFF79E
:10187000B8FA284600F084FA4021E548FFF7AFFAAD
:10188000204600F07DFA8021E148FFF7A8FA70BDFC
:101890002DE9F04104460E46002725468021DC480C
:1018A000FFF79FFA4021DA48FFF79BFA287800F00B
:1018B00067FA6D1C4021D648FFF791FA00BF05E09A
:1018C000287800F05DFA6D1C781CC7B2701EB84213
:1018D000F6DC8021CE48FFF782FABDE8F0812DE9E1
:1018E000F04104460E4615460027B846E11704EBC2
:1018F0005171C910A4EBC10151B12046E11704EBAD
:101900005171C910A4EBC101C1F108012144CCB24D
:101910002046E11704EB5171C1F3C704FFF776FFCE
:101920008021BB48FFF75DFA4021B948FFF759FA1B
:10193000242000F025FA4021B548FFF750FA00278F
:101940000BE04FF0000805E0287800F019FA6D1C54
:1019500008F10108A045F7DB7F1CB742F1D38021D5
:10196000AB48FFF73CFABDE8F0812DE9F0410446B1
:101970000D4616460027B846E11704EB5171C91011
:10198000A4EBC10151B12046E11704EB5171C9101C
:10199000A4EBC101C1F108012144CCB22046E117FA
:1019A00004EB5171C1F3C704FFF730FF8021984861
:1019B000FFF717FA40219648FFF713FA242000F0AA
:1019C000DFF940219248FFF70AFA00270AE04FF0BA
:1019D000000804E0304600F0D3F908F10108A04502
:1019E000F8DB7F1CAF42F2D380218948FFF7F7F97B
:1019F000BDE8F08110B5C0212220FFF72DFF202087
:101A0000FFF718FF10BD2DE9FE4304460D461746AB
:101A10001E46DDE90A8944208DF808008DF809404A
:101A20008DF80A5045208DF800008DF801708DF872
:101A300002608DF803808DF80490032102A8FFF75F
:101A400027FF05216846FFF723FFBDE8FE837CB52D
:101A500006460C4615464E208DF804008DF80560AC
:101A60004F208DF800008DF801408DF802500221C2
:101A700001A8FFF70DFF03216846FFF709FF7CBDB2
:101A80002DE9FC4706460F4614461D46DDE90A8946
:101A90002B46224639463046CDE90089FFF7B3FF91
:101AA0002A4621463046FFF7D2FFBDE8FC871CB529
:101AB00004215848FFF7ECFE04215748FFF7E8FEE1
:101AC00002215648FFF7E4FE02215548FFF7E0FEE9
:101AD00002215448FFF7DCFE02215348FFF7D8FEED
:101AE000002000900346C72218210190FFF78BFFCA
:101AF0000022C7211046FFF7AAFF1CBD10B54FF406
:101B000000614348FFF76DF920214148FFF769F96B
:101B1000642000F058F920213D48FFF760F9642067
:101B200000F051F9FFF7C3FF10BD10B5C721222007
:101B3000FFF792FE2020FFF77DFEFF20FFF77AFEE1
:101B400010BD10B504212220FFF786FE2020FFF7EC
:101B500071FEFF20FFF76EFE10BD70B504460D4606
:101B600029462046FFF794FE70BD10B5FFF7C6FF6B
:101B70001F212E48FFF7F1FFFFF73CFF10BD10B506
:101B8000FFF7BCFF1F212A48FFF7E7FFFFF732FFEF
:101B900010BD70B504460D460022C7211046FFF760
:101BA00056FF2DB9FF22C8210846FFF7DEFE04E0EC
:101BB0002246C8210846FFF792FEFFF7B6FF70BD28
:101BC0002DE9FC5F04460D4616461F46DDE90C89EB
:101BD000B9F1000F52D1C6F30720F1B2AA46EB17B4
:101BE00005EB5373CDE90010C3F3C701A346E31718
:101BF00004EB5373C3F3C700FAB2C7F30723FFF72D
:101C00003FFF98F80020BB1B591C2B1BD8B211E0DA
:101C1000000C01403200002036000020420000206D
:101C200046000020480000204C000020F73100084A
:101C3000D8310008FFF799FEFFF783FFC82000F0B6
:101C4000C2F8C6F30720F1B2EB1705EB5373CDE9E9
:101C50000010C3F3C701E31704EB5373C3F3C700CA
:101C6000FAB2C7F30723FFF70BFF98F80020BB1B5E
:101C7000591C2B1BD8B2FFF778FE7FE0B9F1010F9A
:101C80003ED1C6F30720F1B2AA46EB1705EB53731A
:101C9000CDE90010C3F3C701A346E31704EB537368
:101CA000C3F3C700FAB2C7F30723FFF7E9FEBA1B75
:101CB000511C2A1BD0B24246FFF711FEFFF741FF2D
:101CC0004FF4967000F07FF8C6F30720F1B2EB17DF
:101CD00005EB5373CDE90010C3F3C701E31704EB21
:101CE0005373C3F3C700FAB2C7F30723FFF7C8FE65
:101CF000BA1B511C2A1BD0B24246FFF7F0FD3DE053
:101D0000C6F30720F1B2AA46EB1705EB5373CDE9F2
:101D10000010C3F3C701A346E31704EB5373C3F3E7
:101D2000C700FAB2C7F30723FFF7AAFEBA1B511C7C
:101D30002A1BD0B24246FFF7D2FDFFF702FF4FF455
:101D4000967000F040F8C6F30720F1B2EB1705EBF0
:101D50005373CDE90010C3F3C701E31704EB5373CA
:101D6000C3F3C700FAB2C7F30723FFF789FEBA1B14
:101D7000511C2A1BD0B24246FFF7B1FDBDE8FC9FC3
:101D800070B5044600251BE04FF480711548FFF73D
:101D900028F804F0800028B14FF400711148FFF7D3
:101DA0001EF804E04FF400710E48FFF71AF86006C1
:101DB000040E4FF480710B48FFF711F8681CC5B290
:101DC000082DE1DB70BD0022002100BF06E00022EB
:101DD00000E0521CB2F5205FFBD3491C8142F6D3D0
:101DE00070470000000C0140704770477047704713
:101DF0007047754600F028F8AE4605006946534620
:101E000020F00700854618B020B5FEF77DFBBDE841
:101E100020404FF000064FF000074FF000084FF051
:101E2000000B21F00701AC46ACE8C009ACE8C009E2
:101E3000ACE8C009ACE8C0098D4670470446AFF372
:101E400000802046FEF7BBF90048704718010020CB
:101E50000000000000000000000000000000000082
:101E60000000000000000000000000000000000072
:101E70000000000000000000000000000000000062
:101E80000000000000000000000000000000000052
:101E90000000000000000000000000000000000042
:101EA000000003F00000000000000000000000003F
:101EB0000000000000000000000000061800000004
:101EC0000000000000000000000000000000000012
:101ED000003FFC00080400000000000000000000BB
:101EE00000000000000000000003FFFF00100200DF
:101EF00000000000000000000000000000000000E2
:101F000000000FC03F801132000000000000000000
:101F10000000000000000000000000380007E02181
:101F200011000000000000000000000000000000A0
:101F300000000000E00001F021610000000000004E
:101F40000000000000000000000000000180000010
:101F5000F02141000000000000000000000000002F
:101F6000000000000006000000F821210000000031
:101F70000000000000000000000000000000080059
:101F80000000781132000000000000000000000096
:101F900000000000000000000000003C18060000E7
:101FA0000000000000000000000000000000000031
:101FB000000000003C0C0C000000000000000000CD
:101FC000000000000000000000000000003C073896
:101FD0000000000000000000000000000000000001
:101FE0000000000000003C01E000000000000000D4
:101FF00000000000000000000000F01FFC70F01E58
:102000000000008060000E0004303000F00000008E
:10201000000000781FFC71F01E000000E0F0000ED0
:102020000007307000F000FFFFE000003801E071B1
:10203000F81E000000E0700FFFFF0FB67000F00008
:10204000FFFFE000003C01E039F81E000001DFFF67
:10205000CFFFFF1DB6607FFFE0FFFFE000001E0125
:10206000E03BBC1E000001DFFFC00E003DB67E7FDE
:10207000FFE00007C000001E01E03B9C3E000001A5
:10208000C00007FFFE39B6FE7FFFE0001F00000022
:102090000F01E03B9E3C000003CFFF87FFFE35FEB3
:1020A000CE70F0E0007C0000002781E03F0E3C0095
:1020B0000003CFFF801C0007FFCC70F0E000F800A9
:1020C00000002781E01F0F3C000007C0001FFFFF3A
:1020D0008E01EC7FFFE000E000000023C1E01F075D
:1020E0007C000007C0001FFFFF9EFEEC7FFFE000AA
:1020F000E000000061E1E01E07F8000007CFFF806C
:10210000F0F03CFE6C70F0E1FFFFF0000061E1E0F8
:102110001E07F8000007CFFF81E7783C007C70F0D5
:10212000E1FFFFF0000060F1E01E03F0040005C0D5
:102130000007E77E3C007C70F0E000E0000000E07B
:1021400078000C00C0080005CFFF9FF7FFBCFE78A9
:102150007FFFE000E0000000F00000000000100041
:1021600001CFFF8E67672CFE387FFFE000E00000A4
:1021700000F00000000000300001CE038037C00CEA
:10218000CE3870F03C00E0000000F00000000000DD
:10219000600001CE0381F7F80CCF7C70F03800E0CE
:1021A000000000F00000000001C00001CE0387F72E
:1021B000FF0CCFFE00F03801E0000000F800000046
:1021C0000003800001CFFF878F1E0DCFEE007FF848
:1021D0001FE0000000F8000000000F000001CFFF2A
:1021E000803E060D8ECE007FF01FC0000000FC0078
:1021F0000000001E000001CE03803E000C80800025
:102200001FC01F80000000FE0000000078000000DA
:1022100000000000000000000000000000000000BE
:102220007F00000001F0000000000000000000003E
:102230000000000000000000007F80000007C000D8
:10224000000000000000000000000000000000008E
:1022500000003FC000003F800000000000000000C0
:1022600000000000000000000000001FF00001FE60
:10227000000000000000000000000000000000005E
:10228000000000000FFE003FF8000000000000000A
:102290000000000000000000000000000007FFFF39
:1022A000FFC000000000000000000000000000006F
:1022B00000000000000001FFFFFE00000000000021
:1022C000000000000000000000000000000000000E
:1022D0007FFFF00000000000000000000000000090
:1022E00000000000000000000003FC0000000000EF
:1022F00000000000000000000000000000000000DE
:1023000000000000000000000000000000000000CD
:1023100000000000000000000000000000000000BD
:1023200000000000000000000000000000000000AD
:10233000000000000000000000000000000000009D
:10234000000000000000000000000000000000008D
:10235000000000000000000000000000000000007D
:10236000000000000000000000000000000000006D
:102370000000000000000000000000000007CF9FE8
:102380003E3C78F1F3E7CF9F1E3C7CF9F3E7C78F23
:102390001F3E7CF9F1E007CF9F3E3C78F1F3E7CF99
:1023A0009F1E3C7CF9F3E7C78F1F3E7CF9F1E000EC
:1023B000000000000000000000000000000000001D
:1023C000000000000000000000000000000000000D
:1023D00000000000000000000000000000000000FD
:1023E00000000000000000000000000000000000ED
:1023F0000000000000000000000001FF84800807CA
:10240000FE000380718609F01CC187FFB2C0000086
:1024100000000001FF8DFEFF87FE0007C0F986194E
:10242000F03E6307FFB7F0000000000000180DFE4B
:102430008884600000C00D8619006663000217F0F2
:10244000000000000000181F608884200600C018EB
:10245000CC3100636303F200C000000000000018EC
:102460001F7CFF85FE06038070CC31E063320332AF
:1024700077F8000000000000181C7C888DFE000327
:10248000C0784C2070633603321340000000000017
:1024900000180C60FF8C280000600C7860306236F9
:1024A00003321358000000000000180C7CFFCC2CF5
:1024B0000000600C784030661403F21678000000CB
:1024C000000000180C7C886C240607CCF830C3E3AD
:1024D0003E1C03023470000000000003FFCC600FBC
:1024E000FBFE0403047000C1C21800001E7FF80048
:1024F0000000000000000C6007C8000000000001A0
:1025000080000000001E27F800000000000000000E
:1025100000000000000000000000000000000000BB
:1025200000000000000000000000000000000000AB
:10253000000000000000000000000000000000009B
:10254000000000000000000000000000000000008B
:10255000000000000000000000000000000000007B
:10256000000000000000000000000000000000006B
:102570000003F88C188980680000E07FE01FF86392
:10258000C000001160000000000003FABF7CBFC063
:102590006C0001E07FE0DFF9FBC003FFDB600000BF
:1025A000000000030A8243C99FFC0003B8606198E1
:1025B0001802C000030BF8000000000003FA9A4361
:1025C000DFC0600C061C7FE19FF9B28001FB026056
:1025D00000000000000322BF7DD0C0600C0FFE6031
:1025E000011803FB8001FB3BFC000000000003FA24
:1025F0008459F0DFE00008407FE31FFBFA80019B75
:102600003BFC000000000003AABF5B9FC660000007
:102610004040221809FAC0019B19A80000000000E0
:1026200003AA945A8606200007FC5F261BC9FA40BD
:1026300001FB1B2C000000000002AAB5D8BFC6B6E3
:102640000C0040D96612491BC001831B38000000F2
:10265000000002B9BCD88F9FB40C00C0DF6C33C936
:10266000FBC000033C00000000000002238D98B86E
:10267000D81C000FFEC1EC30791A00000F17FC00C7
:10268000000000000000000000000000000000004A
:10269000000000000000000000000000000000003A
:1026A000000000000000000000000000000000002A
:1026B000000000000000000000000000000000001A
:1026C000000000000000000000000000000000000A
:1026D00000000000000000000000000000000000FA
:1026E00000000000000000000000000000000000EA
:1026F00000000000000000000000000000000000DA
:10270000000048112010000000000000000000033D
:10271000000C000000003000000000CC7D7BFF803A
:1027200000F0F1E319F1E1E00FFF1FC0003FF020DE
:10273000000000018E7D7BFF8001B9B1B33933B356
:10274000600FC830C0003F53FF00000003872B5BC1
:102750006D8000191B31B013333006BF7FE00037A6
:1027600053010000000703AB517B01801B1B11E0EC
:1027700033363007F37FE0303FF30100000003FF02
:102780007F79BF0000331B18E033363004BF2220AE
:10279000000303FF00000000C615337D8000631BAB
:1027A00011E063363007BF3FE0003FF3FF00000059
:1027B00000C67D78000000C31B31B0C3323004BFB7
:1027C0003FE00003030100000000C61133FFC18198
:1027D00081B333398333600FBB2010207FFB0100AE
:1027E000000001863330100181F9F1E71BF1E1E0CF
:1027F0000CDE3010303493FF000000073C36301000
:102800000000000000000000000FB33FF00036DBC6
:10281000FF00000002002230100000000000000055
:1028200000000200000000249301000000000000EE
:102830000000000000000000000000000000000098
:102840000000000000000000000000000000000088
:102850000000000000000000000000000000000078
:102860000000000000000000000000000000000068
:102870000000000000000000000000000000000058
:102880000000000000000000000000000000000048
:1028900000000000000800400000000000000800E8
:1028A00030004000000000000000037FB7F0180077
:1028B0005800079F1C03FFCDFC7F0FFE0000000C9B
:1028C0007E186003331B33FFFFFC000F9FDC03FF08
:1028D000C98C630FFE0000003C7E7C50001C03335B
:1028E000FFFFFC000C18C800019DACFFCFFE0000EC
:1028F000000C066650007FB3306000400C0C18C816
:1029000000F985ADFFCFFE0600600C066660077F0C
:10291000B3307F1F60080F19C800898DECCCCDF84B
:1029200004001C0C0C4600034997F07F1F60000355
:102930009F8800899DECFFCDF80000060C0C460036
:10294000037F93304304600000D80800999BFCCCBF
:10295000CBFC00000C0C18660003499334C30464DC
:102960000000D80800F98870FFC98C0000700C18AE
:102970006600034B1F39C31FAC0C0F981C008188E5
:10298000F4CCC8D80E00403F107C0007FFBB1B9F53
:102990003F3C00000000000F8BBD8FD9FE040000FB
:1029A00000000000007F93191E00180000000000C6
:1029B0000F091C8F8B0E00000000000000000000BB
:1029C0000000000000000000000000000000000007
:1029D00000000000000000000000000000000000F7
:1029E00000000000000000000000000000000000E7
:1029F00000000000000000000000000000000000D7
:102A000000000000000000000000000000000000C6
:102A100000000000000000000000000000000000B6
:102A200000000000000000000000000000000000A6
:102A30000000000000000000000000000000000096
:102A40000000000000000000000000000000000086
:102A50000000000000000000000000000000000076
:102A600000000000000000000000000000003FFF28
:102A7000FFFF000000000000000000000000000058
:102A8000000000000000007FFFFFFF80000000004A
:102A90000000000000000000006231800000000023
:102AA0007000001FC00000000000000000000000D7
:102AB000000062318000000000F000001DE0000016
:102AC00000000000000000000000006231800000F3
:102AD0000000F000001DF0000000000000000000F9
:102AE0000000000062318000000000F000001CF0D7
:102AF000000001181603186FF0000000006231801A
:102B000000000000F000001C7800000FFE76E6DFF9
:102B10003FF00000000062318000000000F0000083
:102B20001C3C00000118E7BFDC0C800000000062C4
:102B3000318000000000F000001E3C000000000F8B
:102B400087794FF00000000062318000000000F043
:102B5000FFFE0FFC00000FFEFFE7DF6F30000000FC
:102B60000000000000000000F0FFFE07FC00000F66
:102B7000FCFFE4402FF00000000000000000000017
:102B800000F00000001C000001843FE7DB2FF00094
:102B9000000001FFFFE000000000F00000001C004A
:102BA00000018420645E28C000000001FFFFE000F7
:102BB000000000F00000001C000001BC3FE7D96BE2
:102BC000F0000007F1FFFFE7F8000000F000000050
:102BD0001C000001BC2064597AD0000007F1FFFFFF
:102BE000E7F8000000F00000001C000001803FE555
:102BF000DF79D000000001FFFFE000000000F07F5F
:102C0000FFF81C00000000000000000000000001B0
:102C1000FFFFE000000000F0FFFFFC1C00000000D0
:102C2000000000000000000001FFFFE000000000C5
:102C3000F0FFFFFC1C00000000000000000000008E
:102C400007F1FFFFE7F8000000F00000001C0000A3
:102C500000000000000000000007F1FFFFE7F8009F
:102C60000000F00000001C00000000000000000058
:102C700000000001FFFFE000000000F00000001C69
:102C800000000000000000000000000001FFFFE065
:102C900000000000F00000001C0000000001FFC068
:102CA000000000000001FFFFE000000000F0000055
:102CB000001C0000000007FFF00000000007F1FF0B
:102CC000FFE7F8000000F07FFFFC1C000000000799
:102CD000FFF0000000000001FFFFE000000000F036
:102CE000FFFFFC1C000000000FF7F80000000000D0
:102CF00001FFFFE000000000F07FFFFC1C0000006F
:102D0000001FF7F8000000000001FFFFE0000000D6
:102D100000F00000001C000000001FE3FD80000028
:102D20000007F1FFFFE7F8000000F00000001C00C2
:102D30000000003FC3FF0000000007F1FFFFE7F8BD
:102D4000000000F00000001C000000007FC1FF0038
:102D50000000000001FFFFE000000000F0000000A4
:102D60001C000000007F81FF000000000001FFFF49
:102D7000E000000000F00000001C00000000FF80E8
:102D8000FF00000000000000000000000000F07FD5
:102D9000FFFC1C000000003F03FE000000000000DC
:102DA00000000000000000F0FFFFFC1C000000001D
:102DB0000E03FE0000000000000000000000000004
:102DC000F07FFFFC1C0000000046003E00000000F9
:102DD000000062318000000000F00000001C0000D4
:102DE0000007E00000E00000000000623180000009
:102DF0000000F00000001C0000007FE01C03E00069
:102E00000000000062318000000000F00000001CA3
:102E10000000003FE01C07F000000000006231806D
:102E200000000000F00000001C0000000FF0380F50
:102E3000F0000000000062318000000000F000009F
:102E4000001C0000001FF03F07F8000000000062B7
:102E5000318000000000F00000001C0000003FF086
:102E60007E07FC0000000000623180000000007F4F
:102E7000FFFFFFFC0000003FF00C03FC000000001F
:102E800000000000000000007FFFFFFFF8000000CE
:102E90007FD81803FE0000000000000000000000C2
:102EA000003FFFFFFFF00000007F801001FE0000E8
:102EB0000000000000000000000000000000000012
:102EC00000007F002000FE00000000000000000065
:102ED00000000000000000000000007F000000FE75
:102EE00000000000000000000000000000000000E2
:102EF000000000003E0000407E00000000000000D6
:102F0000000000000000000000000000003E000083
:102F1000E07C000000000000000000000000000055
:102F20000000000000001FFFC1FFFC0000000000C7
:102F30000000000000000000000000000000001F72
:102F4000FFC3FFF8000000000000000000000000C8
:102F500000000000000000000FFFC7FFF0000000AD
:102F60000000000000000000000000000000000061
:102F7000000FFFCFFFF00000000000000000000085
:102F80000000000000000000000007FFC7FFE00095
:102F90000000000000000000000000000000000031
:102FA00000000003FFC3FFE000000000000000007D
:102FB00000000000000000000000000001FFC1FF51
:102FC000C000000000000000000000000000000041
:102FD0000000000000000000E00003300C00C00012
:102FE000800002000C1DEC47FC0003183FE00000CD
:102FF0000060001FFEFFE1FE7887FF266009FDEC00
:10300000C7FC7FEFD83FE000000020000120FFE771
:103010000C30C08C3FF81B902D87FC000FDF3FE089
:1030200000000000000FFCD9E5B837F0843FF81726
:1030300090ED07FC0002B23FE00000000000012418
:1030400074E1E0FE90840C001DFCEFE7FCFFF6F25B
:10305000322000000000001FFE4F6FB03697FF8F38
:10306000F00DFC8FE7FC060C7A3FE000000000004A
:1030700001243184FE7FF7FF9C301F90ED85B4362C
:10308000828E020000000000000FFCFFE3867FF14B
:103090008436601F902D85B466C38C7FF0000000DD
:1030A00000000330A0E6DCF6918473C001BE2CC79B
:1030B000BC66638C0F8000000000000F3C20C070D5
:1030C00030838467E01FFE6F61B0C637FF7A7000FF
:1030D0000000000009263FCFC03087045E78198CBD
:1030E000EE0FFE1E0C3362300000000000012020B5
:1030F000C600308204101000000000000000000034
:1031000000000000000000000000000000000000BF
:1031100000000000000000000000000000000000AF
:10312000000000000000000000000000000000009F
:10313000000000000000000000000000000000008F
:10314000000000000000000000000000000000007F
:10315000000000000000000000000000000000006F
:10316000000000000000000000000000000000005F
:10317000000000000000000000000000000000004F
:10318000000000000000000000000000000000003F
:10319000000000000000000000000000000000002F
:1031A000000000000000000000000000000000001F
:1031B000000000000000000000000000000000000F
:1031C00000000000000000000000000000000000FF
:1031D000000000000000000032101818281818180D
:1031E0001808000000000000000000000013112279
:1031F000631100000000003266664466AA11800870
:10320000111881181188118811880000FFFFFFFF35
:103210005FAFFFFF2F0000003832000800000020E1
:10322000500000006C0100088832000850000020A7
:1032300028070000880100080000000000A24A04DE
:103240000000000000000000010203040607080956
:10325000000000000102030401020304060708093C
:103260000204060800000000000001C700000CD79F
:10327000D69D218F22F0036604042C7FF01F3A1A9A
:083280003B083C331101000082
:0400000508000131BD
:00000001FF
